:020000040800F2
:10000000B0FC0120B98300080D0500080F050008A9
:1000100013050008170500081B0500080000000074
:10002000000000000000000000000000390300088C
:100030001F05000800000000950300080B0E0108D2
:10004000D3830008D3830008D3830008D383000838
:10005000D3830008D3830008D3830008D383000828
:10006000D3830008D3830008D3830008D383000818
:10007000D3830008D3830008D3830008D383000808
:10008000D3830008D3830008D3830008D3830008F8
:10009000D3830008D3830008D3830008D3830008E8
:1000A000D3830008D3830008D3830008D3830008D8
:1000B000D38300086BB80008D3830008D3830008FB
:1000C000D3830008D3830008D3830008D3830008B8
:1000D000D383000839BA0008D3830008D38300080B
:1000E000D3830008D3830008D3830008D383000898
:1000F000D3830008D3830008D3830008D383000888
:10010000D38300083D760008D3830008D38300081A
:10011000D3830008D3830008D3830008D383000867
:10012000D3830008D3830008D3830008D383000857
:10013000D3830008D3830008D3830008D383000847
:10014000D3830008D3830008D3830008D383000837
:10015000D3830008D3830008D3830008D383000827
:10016000D3830008D3830008D3830008D383000817
:10017000D3830008D3830008D3830008D383000807
:10018000D3830008D3830008D3830008D3830008F7
:10019000D3830008D3830008D3830008D3830008E7
:1001A000D3830008D3830008D383000800F002F84B
:1001B00000F0B2F80AA090E8000C82448344AAF14F
:1001C0000107DA4501D100F0A7F8AFF2090EBAE84D
:1001D0000F0013F0010F18BFFB1A43F0010318477B
:1001E000E09F0C0000A00C000A444FF0000C10F837
:1001F000013B13F0070408BF10F8014B1D1108BFA5
:1002000010F8015B641E05D010F8016B641E01F844
:10021000016BF9D113F0080F1EBF10F8014BAD1C94
:100220000C1B09D16D1E58BF01F801CBFAD505E0B2
:1002300014F8016B01F8016B6D1EF9D59142D6D30C
:10024000704700000023002400250026103A28BF34
:1002500078C1FBD8520728BF30C148BF0B60704738
:100260006E2927F0DEA6702928F037A266292AF029
:100270007FA665292AF07CA667292AF079A661293C
:100280002AF078A603681B0A28BF41F0800169297B
:1002900027F00CA3642927F009A3752927F006A3EA
:1002A0006F2928F0C4A1782928F003A2E92928F0B1
:1002B0005FA1E42928F05CA1F52928F059A1EF29D4
:1002C00028F0C1A1F82928F002A20368DB0928BFA1
:1002D00041F08001632928F09FA4732928F0A4A489
:1002E000E32928F0AFA4F32928F0B4A40020704734
:1002F0001FB56AF030FE67F0D5FD04000020002134
:100300006AF04CF8401C6060002000216AF05CF844
:10031000E0601FBD10B510BD68F071FD1146FFF71C
:10032000E7FF00F098F869F00BF803B4FFF7F2FF6D
:1003300003BC68F051FA00002C4B19680868B0E85B
:10034000F04F80F30988BFF36F8F4FF0000080F308
:10035000118870470000000008480068006880F3BA
:1003600008884FF0000080F3148862B661B6BFF3CE
:100370004F8FBFF36F8F00DF00BF00BF08ED00E0BD
:10038000DFF80C00016841F470010160704700BFA4
:1003900088ED00E0EFF30980BFF36F8F134B1A680D
:1003A0001EF0100F08BF20ED108A20E9F04F1060FA
:1003B00009B44FF0BF0080F31188BFF34F8FBFF334
:1003C0006F8F0FF003FC4FF0000080F3118809BC21
:1003D00019680868B0E8F04F1EF0100F08BFB0ECC5
:1003E000108A80F30988BFF36F8F7047D000002018
:1003F000EFF30580704700001BE04FF400713548B3
:1004000008F06EF94FF48061324808F067F94FF454
:10041000FA700FF0F2FA4FF400712E4808F05EF90E
:100420004FF480612B4808F05BF94FF4FA700FF03D
:10043000E4FAE2E707F082FB07F032FB02E026A0D5
:1004400007F04AFEFBE705E000BF4EF0C5FC0520C3
:100450000FF0D3FAF8E71CB50BF003FA00F082F9BD
:100460000BF042FA07F080FA14F0BAFC65F015F8C8
:1004700065F074F81BA00BF0B5FA65F097F81A4810
:10048000012100238022CDE9001018A119480EF0A7
:10049000F4FF1948012100234A02CDE9001017A1F9
:1004A00019480EF0EAFF0FF056FD00BFFEE770B5E9
:1004B00000BF64F0B1F9064610F0CAFC05465EF0D4
:1004C000CFFE044600231A460921204619F023F8DE
:1004D00070BD000000140240303A6C6C682E6D70E4
:1004E0003300000031310A00040000207461736B96
:1004F00031000000F9030008080000206C76676CEA
:100500005F7461736B00000047040008704700BF10
:10051000FEE700BFFEE700BFFEE700BFFEE7704753
:100520000CB50020019000908348006840F48030B2
:100530008149086000BF8048006800F400300090E6
:100540000198401C0190009818B90198B0F5A04F8F
:10055000F1D17948006800F4003010B1012000901A
:1005600001E0002000900098012860D172484030DE
:10057000006840F080507049403108606F48006862
:1005800040F440406D4908606B48083000686A4993
:10059000083108600846006840F4004008600846DA
:1005A000006840F4A05008606548091F0860081FF3
:1005B000006840F08070091F086000BF5E48006856
:1005C00000F000700028F9D05C48006840F48030EA
:1005D0005A49086000BF5948406800F4803000283C
:1005E000F9D05648006840F400305449086000BF14
:1005F0005248406800F400300028F9D040F20570FD
:10060000504908604C480830006820F003004A490F
:10061000083108600846006840F00200086000BF2A
:1006200045480830006800F00C000828F8D10CBDDF
:1006300010B54548006840F47000434908603E48E2
:10064000006840F001003C49086000203A49083148
:100650000860394800683D490840374908603C480F
:10066000091D0860081F006820F48020091F086029
:10067000002031490C310860FFF752FF4FF0006055
:1006800031498039086010BD70B500200022022376
:1006900000240221284D08352D6805F00C0020B1FA
:1006A000042806D0082834D107E02A4D2A4E3560A8
:1006B00033E02A4D284E35602FE01F4D2D1D2D684B
:1006C000C5F380541C4D2D1D2D6805F03F0154B11C
:1006D000224DB5FBF1F5184E361D3668C6F3881667
:1006E00005FB06F209E01B4DB5FBF1F5124E361D78
:1006F0003668C6F3881605FB06F20F4D2D1D2D68D2
:10070000C5F301456D1C6B00B2FBF3F5124E35606D
:1007100003E0104D104E356000BF00BF064D083598
:100720002D68C5F303150E4E705D0B4D2D68C54049
:10073000094E356070BD0000003802400070004076
:10074000085A4007003C024088ED00E0FFFFF6FE3B
:10075000103000240024F4004C00002000127A0025
:10076000500000201CB50121202008F0DCF94FF4D6
:10077000C060009001208DF8040000208DF8060074
:1007800003208DF8050001208DF807006946044814
:1007900007F028FF4FF4C061014807F09FFF1CBD20
:1007A0000014024001B5BDF800000090BDF8000043
:1007B000FE49088008BD01B5BDF800000090BDF8F5
:1007C0000000FA49891C088008BD10B51120FFF708
:1007D000E9FF78200BF072F83620FFF7E3FF0020E6
:1007E000FFF7E9FF3A20FFF7DDFF5520FFF7E3FFB2
:1007F000B220FFF7D7FF0C20FFF7DDFF0C20FFF73B
:10080000DAFF0020FFF7D7FF3320FFF7D4FF3320B4
:10081000FFF7D1FFB720FFF7C5FF5620FFF7CBFF4B
:10082000BB20FFF7BFFF2020FFF7C5FFC020FFF769
:10083000B9FF2C20FFF7BFFFC220FFF7B3FF012055
:10084000FFF7B9FFC320FFF7ADFF0F20FFF7B3FF9E
:10085000C420FFF7A7FF2020FFF7ADFFC620FFF75A
:10086000A1FF0F20FFF7A7FFD020FFF79BFFA420D9
:10087000FFF7A1FFA120FFF79EFFD620FFF792FF11
:10088000A120FFF798FFE020FFF78CFFF020FFF793
:1008900092FF0020FFF78FFF0620FFF78CFF062056
:1008A000FFF789FF0720FFF786FF0520FFF783FF8B
:1008B0003020FFF780FF4420FFF77DFF4820FFF73F
:1008C0007AFF3820FFF777FF1120FFF774FF102021
:1008D000FFF771FF2E20FFF76EFF3420FFF76BFF4D
:1008E000E120FFF75FFFF020FFF765FF0A20FFF729
:1008F00062FF0E20FFF75FFF0D20FFF75CFF0B206C
:10090000FFF759FF2720FFF756FF2F20FFF753FF70
:100910004420FFF750FF4720FFF74DFF3520FFF73A
:100920004AFF1220FFF747FF1220FFF744FF2C2059
:10093000FFF741FF3220FFF73EFF3520FFF732FF80
:100940000020FFF738FF2120FFF72CFF2920FFF7B9
:1009500029FF2A20FFF726FF0020FFF72CFF0020A9
:10096000FFF729FF0120FFF726FF3F20FFF723FFB6
:100970002B20FFF717FF0020FFF71DFF0020FFF7D8
:100980001AFF0020FFF717FFEF20FFF714FF2C20BE
:10099000FFF708FF10BD10B5CF20FFF703FF0020C1
:1009A000FFF709FFC120FFF706FF3020FFF703FF25
:1009B000ED20FFF7F7FE6420FFF7FDFE0320FFF7B1
:1009C000FAFE1220FFF7F7FE8120FFF7F4FEE82081
:1009D000FFF7E8FE8520FFF7EEFE1020FFF7EBFEA5
:1009E0007A20FFF7E8FECB20FFF7DCFE3920FFF787
:1009F000E2FE2C20FFF7DFFE0020FFF7DCFE3420B4
:100A0000FFF7D9FE0220FFF7D6FEF720FFF7CAFE58
:100A10002020FFF7D0FEEA20FFF7C4FE0020FFF7FA
:100A2000CAFE0020FFF7C7FEC020FFF7BBFE1B2059
:100A3000FFF7C1FEC120FFF7B5FE0120FFF7BBFEA7
:100A4000C520FFF7AFFE3020FFF7B5FE3020FFF7DF
:100A5000B2FEC720FFF7A6FEB720FFF7ACFE362098
:100A6000FFF7A0FE4820FFF7A6FE3A20FFF79AFE08
:100A70005520FFF7A0FEB120FFF794FE0020FFF7FE
:100A80009AFE1A20FFF797FEB620FFF78BFE0A208A
:100A9000FFF791FEA220FFF78EFEF220FFF782FE05
:100AA0000020FFF788FE2620FFF77CFE0120FFF7DD
:100AB00082FEE020FFF776FE0F20FFF77CFE2A2063
:100AC000FFF779FE2820FFF776FE0820FFF773FE78
:100AD0000E20FFF770FE0820FFF76DFE5420FFF791
:100AE0006AFEA920FFF767FE4320FFF764FE0A2095
:100AF000FFF761FE0F20FFF75EFE0020FFF75BFEB1
:100B00000020FFF758FE0020FFF755FE0020FFF7FA
:100B100052FEE120FFF746FE0020FFF74CFE1520B5
:100B2000FFF749FE1720FFF746FE0720FFF743FEB9
:100B30001120FFF740FE0620FFF73DFE2B20FFF7B8
:100B40003AFE5620FFF737FE3C20FFF734FE052023
:100B5000FFF731FE1020FFF72EFE0F20FFF72BFED0
:100B60003F20FFF728FE3F20FFF725FE0F20FFF76D
:100B700022FE2B20FFF716FE0020FFF71CFE0020B0
:100B8000FFF719FE0120FFF716FE3F20FFF713FEC7
:100B90002A20FFF707FE0020FFF70DFE0020FFF7D9
:100BA0000AFE0020FFF707FEEF2001E07E00006C48
:100BB000FFF701FE1120FFF7F5FD78200AF07EFE19
:100BC0002920FFF7EFFD10BD10B5ED20FFF7EAFD7E
:100BD0000120FFF7F0FDFE20FFF7EDFDEE20FFF70F
:100BE000E1FDDE20FFF7E7FD2120FFF7E4FDF12026
:100BF000FFF7D8FD0120FFF7DEFDDF20FFF7D2FD74
:100C00001020FFF7D8FDC420FFF7CCFD8F20FFF7A1
:100C1000D2FDC620FFF7C6FD0020FFF7CCFDE22085
:100C2000FFF7C9FDE220FFF7C6FDE220FFF7C3FD95
:100C3000BF20FFF7B7FDAA20FFF7BDFDB020FFF7EB
:100C4000B1FD0D20FFF7B7FD0020FFF7B4FD0D202B
:100C5000FFF7B1FD0020FFF7AEFD1120FFF7ABFD60
:100C60000020FFF7A8FD1920FFF7A5FD0020FFF7E2
:100C7000A2FD2120FFF79FFD0020FFF79CFD2D2006
:100C8000FFF799FD0020FFF796FD3D20FFF793FD4C
:100C90000020FFF790FD5D20FFF78DFD0020FFF79E
:100CA0008AFD5D20FFF787FD0020FFF784FDB1205E
:100CB000FFF778FD8020FFF77EFD0020FFF77BFD2A
:100CC0008B20FFF778FD0020FFF775FD9620FFF7DA
:100CD00072FD0020FFF76FFDB220FFF763FD0020DB
:100CE000FFF769FD0020FFF766FD0220FFF763FDB7
:100CF0000020FFF760FD0320FFF75DFD0020FFF7F8
:100D00005AFDB320FFF74EFD0020FFF754FD0020F1
:100D1000FFF751FD0020FFF74EFD0020FFF74BFDD0
:100D20000020FFF748FD0020FFF745FD0020FFF7FA
:100D300042FD0020FFF73FFD0020FFF73CFD0020B3
:100D4000FFF739FD0020FFF736FD0020FFF733FDE8
:100D50000020FFF730FD0020FFF72DFD0020FFF7FA
:100D60002AFD0020FFF727FD0020FFF724FD0020CB
:100D7000FFF721FD0020FFF71EFD0020FFF71BFD00
:100D80000020FFF718FD0020FFF715FD0020FFF7FA
:100D900012FD0020FFF70FFDB420FFF703FD8B20AD
:100DA000FFF709FD0020FFF706FD9620FFF703FD82
:100DB0000020FFF700FDA120FFF7FDFC0020FFF75A
:100DC000FAFCB520FFF7EEFC0220FFF7F4FC002050
:100DD000FFF7F1FC0320FFF7EEFC0020FFF7EBFC30
:100DE0000420FFF7E8FC0020FFF7E5FCB620FFF742
:100DF000D9FC0020FFF7DFFC0020FFF7DCFCB72068
:100E0000FFF7D0FC0020FFF7D6FC0020FFF7D3FC53
:100E10003F20FFF7D0FC0020FFF7CDFC5E20FFF75E
:100E2000CAFC0020FFF7C7FC6420FFF7C4FC0020C9
:100E3000FFF7C1FC8C20FFF7BEFC0020FFF7BBFCD6
:100E4000AC20FFF7B8FC0020FFF7B5FCDC20FFF773
:100E5000B2FC0020FFF7AFFC7020FFF7ACFC0020D5
:100E6000FFF7A9FC9020FFF7A6FC0020FFF7A3FCEA
:100E7000EB20FFF7A0FC0020FFF79DFCDC20FFF734
:100E80009AFC0020FFF797FCB820FFF78BFC0020AE
:100E9000FFF791FC0020FFF78EFC0020FFF78BFC92
:100EA0000020FFF788FC0020FFF785FC0020FFF7FB
:100EB00082FC0020FFF77FFC0020FFF77CFCBA20BB
:100EC000FFF770FC2420FFF776FC0020FFF773FC8F
:100ED0000020FFF770FC0020FFF76DFCC120FFF73A
:100EE00061FC2020FFF767FC0020FFF764FC542022
:100EF000FFF761FC0020FFF75EFCFF20FFF75BFCC3
:100F00000020FFF758FCC220FFF74CFC0A20FFF737
:100F100052FC0020FFF74FFC0420FFF74CFC0020A0
:100F2000FFF749FCC320FFF73DFC3C20FFF743FCE3
:100F30000020FFF740FC3A20FFF73DFC0020FFF7C0
:100F40003AFC3920FFF737FC0020FFF734FC37204C
:100F5000FFF731FC0020FFF72EFC3C20FFF72BFCB5
:100F60000020FFF728FC3620FFF725FC0020FFF7C4
:100F700022FC3220FFF71FFC0020FFF71CFC2F2073
:100F8000FFF719FC0020FFF716FC2C20FFF713FCDD
:100F90000020FFF710FC2920FFF70DFC0020FFF7D1
:100FA0000AFC2620FFF707FC0020FFF704FC2420A2
:100FB000FFF701FC0020FFF7FEFB2420FFF7FBFBFF
:100FC0000020FFF7F8FB2320FFF7F5FB0020FFF7D9
:100FD000F2FB3C20FFF7EFFB0020FFF7ECFB362095
:100FE000FFF7E9FB0020FFF7E6FB3220FFF7E3FB0A
:100FF0000020FFF7E0FB2F20FFF7DDFB0020FFF7CD
:10100000DAFB2C20FFF7D7FB0020FFF7D4FB2920C9
:10101000FFF7D1FB0020FFF7CEFB2620FFF7CBFB2D
:101020000020FFF7C8FB2420FFF7C5FB0020FFF7D7
:10103000C2FB2420FFF7BFFB0020FFF7BCFB2320EF
:10104000FFF7B9FB0020FFF7B6FBC420FFF7AAFBB0
:101050006220FFF7B0FB0020FFF7ADFB0520FFF794
:10106000AAFB0020FFF7A7FB8420FFF7A4FB0020CA
:10107000FFF7A1FBF020FFF79EFB0020FFF79BFB93
:101080001820FFF798FB0020FFF795FBA420FFF73F
:1010900092FB0020FFF78FFB1820FFF78CFB00204E
:1010A000FFF789FB5020FFF786FB0020FFF783FB4B
:1010B0000C20FFF780FB0020FFF77DFB1720FFF7D8
:1010C0007AFB0020FFF777FB9520FFF774FB0020E9
:1010D000FFF771FBF320FFF76EFB0020FFF76BFBC0
:1010E000E620FFF768FB0020FFF765FBC520FFF750
:1010F00059FB3220FFF75FFB0020FFF75CFB442029
:10110000FFF759FB0020FFF756FB6520FFF753FB65
:101110000020FFF750FB7620FFF74DFB0020FFF784
:101120004AFB8820FFF747FB0020FFF744FBC6205F
:10113000FFF738FB2020FFF73EFB0020FFF73BFBCB
:101140001720FFF738FB0020FFF735FB0120FFF7E2
:1011500032FB0020FFF72FFBC720FFF723FB002007
:10116000FFF729FB0020FFF726FB0020FFF723FBFA
:101170000020FFF720FBC820FFF714FB0020FFF73B
:101180001AFB0020FFF717FB0020FFF714FB0020DD
:10119000FFF711FBC920FFF705FB0020FFF70BFB52
:1011A0000020FFF708FB0020FFF705FB0020FFF7FA
:1011B00002FB0020FFF7FFFA0020FFF7FCFA0020F7
:1011C000FFF7F9FA0020FFF7F6FA0020FFF7F3FA2D
:1011D0000020FFF7F0FA0020FFF7EDFA0020FFF7FC
:1011E000EAFA0020FFF7E7FA0020FFF7E4FA002010
:1011F000FFF7E1FA0020FFF7DEFAE020FFF7D2FA6E
:101200001620FFF7D8FA0020FFF7D5FA1C20FFF7C9
:10121000D2FA0020FFF7CFFA2120FFF7CCFA002006
:10122000FFF7C9FA3620FFF7C6FA0020FFF7C3FA26
:101230004620FFF7C0FA0020FFF7BDFA5220FFF763
:10124000BAFA0020FFF7B7FA6420FFF7B4FA0020DB
:10125000FFF7B1FA7A20FFF7AEFA0020FFF7ABFAFA
:101260008B20FFF7A8FA0020FFF7A5FA9920FFF7D7
:10127000A2FA0020FFF79FFAA820FFF79CFA0020AF
:10128000FFF799FAB920FFF796FA0020FFF793FAD3
:10129000C420FFF790FA0020FFF78DFACA20FFF76D
:1012A0008AFA0020FFF787FAD220FFF784FA00209D
:1012B000FFF781FAD920FFF77EFA0020FFF77BFACB
:1012C000E020FFF778FA0020FFF775FAF320FFF728
:1012D00072FA0020FFF76FFAE120FFF763FA162099
:1012E000FFF769FA0020FFF766FA1C20FFF763FAA0
:1012F0000020FFF760FA2220FFF75DFA0020FFF7D9
:101300005AFA3620FFF757FA0020FFF754FA452023
:10131000FFF751FA0020FFF74EFA5220FFF74BFA81
:101320000020FFF748FA6420FFF745FA0020FFF796
:1013300042FA7A20FFF73FFA0020FFF73CFA8B20B1
:10134000FFF739FA0020FFF736FA9920FFF733FA52
:101350000020FFF730FAA820FFF72DFA0020FFF752
:101360002AFAB920FFF727FA0020FFF724FAC42051
:10137000FFF721FA0020FFF71EFACA20FFF71BFA39
:101380000020FFF718FAD220FFF715FA0020FFF728
:1013900012FAD820FFF70FFA0020FFF70CFAE0202E
:1013A000FFF709FA0020FFF706FAF320FFF703FA28
:1013B0000020FFF700FAE220FFF7F4F90520FFF71D
:1013C000FAF90020FFF7F7F90B20FFF7F4F90020F6
:1013D000FFF7F1F91B20FFF7EEF90020FFF7EBF91B
:1013E0003420FFF7E8F90020FFF7E5F94420FFF784
:1013F000E2F90020FFF7DFF94F20FFF7DCF90020CA
:10140000FFF7D9F96120FFF7D6F90020FFF7D3F9EC
:101410007920FFF7D0F90020FFF7CDF98820FFF7FA
:10142000CAF90020FFF7C7F99720FFF7C4F9002099
:10143000FFF7C1F9A620FFF7BEF90020FFF7BBF9BF
:10144000B720FFF7B8F90020FFF7B5F9C220FFF782
:10145000B2F90020FFF7AFF9C720FFF7ACF9002081
:10146000FFF7A9F9D120FFF7A6F90020FFF7A3F9AC
:10147000D620FFF7A0F90020FFF79DF9DD20FFF748
:101480009AF90020FFF797F9F320FFF794F900206D
:10149000FFF791F9E320FFF785F90520FFF78BF9B6
:1014A0000020FFF788F90A20FFF785F90020FFF7F1
:1014B00082F91C20FFF77FF90020FFF77CF9332029
:1014C000FFF779F90020FFF776F94420FFF773F969
:1014D0000020FFF770F95020FFF76DF90020FFF7AB
:1014E0006AF96220FFF767F90020FFF764F97820B6
:1014F000FFF761F90020FFF75EF98820FFF75BF93D
:101500000020FFF758F99720FFF755F90020FFF763
:1015100052F9A620FFF74FF90020FFF74CF9B7204A
:10152000FFF749F90020FFF746F9C220FFF743F91A
:101530000020FFF740F9C720FFF73DF90020FFF733
:101540003AF9D120FFF737F90020FFF734F9D52019
:10155000FFF731F90020FFF72EF9DD20FFF72BF917
:101560000020FFF728F9F320FFF725F90020FFF707
:1015700022F9E420FFF716F90120FFF71CF90020FB
:10158000FFF719F90120FFF716F90020FFF713F90B
:101590000220FFF710F90020FFF70DF92A20FFF7CE
:1015A0000AF90020FFF707F93C20FFF704F90020B3
:1015B000FFF701F94B20FFF7FEF80020FFF7FBF8DB
:1015C0005D20FFF7F8F80020FFF7F5F87420FFF72B
:1015D000F2F80020FFF7EFF88420FFF7ECF8002086
:1015E000FFF7E9F89320FFF7E6F80020FFF7E3F8AC
:1015F000A220FFF7E0F80020FFF7DDF8B320FFF7A7
:10160000DAF80020FFF7D7F8BE20FFF7D4F8002063
:10161000FFF7D1F8C420FFF7CEF80020FFF7CBF892
:10162000CD20FFF7C8F80020FFF7C5F8D320FFF75B
:10163000C2F80020FFF7BFF8DD20FFF7BCF800205C
:10164000FFF7B9F8F320FFF7B6F80020FFF7B3F87B
:10165000E520FFF7A7F80020FFF7ADF80020FFF71F
:10166000AAF80020FFF7A7F80020FFF7A4F802204F
:10167000FFF7A1F80020FFF79EF82920FFF79BF85D
:101680000020FFF798F83C20FFF795F80020FFF7BF
:1016900092F84B20FFF78FF80020FFF78CF85D20C1
:1016A000FFF789F80020FFF786F87420FFF783F82A
:1016B0000020FFF780F88420FFF77DF80020FFF777
:1016C0007AF89320FFF777F80020FFF774F8A2204C
:1016D000FFF771F80020FFF76EF8B320FFF76BF803
:1016E0000020FFF768F8BE20FFF765F80020FFF73D
:1016F00062F8C420FFF75FF80020FFF75CF8CD2008
:10170000FFF759F80020FFF756F8D320FFF753F8FA
:101710000020FFF750F8DC20FFF74DF80020FFF71E
:101720004AF8F320FFF747F80020FFF744F8E620D7
:10173000FFF738F81120FFF73EF80020FFF73BF8DD
:101740003420FFF738F80020FFF735F85620FFF770
:1017500032F80020FFF72FF87620FFF72CF8002052
:10176000FFF729F87720FFF726F80020FFF723F886
:101770006620FFF720F80020FFF71DF88820FFF70C
:101780001AF80020FFF717F89920FFF714F8002047
:10179000FFF711F8BB20FFF70EF80020FFF70BF85A
:1017A0009920FFF708F80020FFF705F86620FFF7FB
:1017B00002F80020FEF7FFFF5520FEF7FCFF002097
:1017C000FEF7F9FF5520FEF7F6FF0020FEF7F3FFC6
:1017D0004520FEF7F0FF0020FEF7EDFF4320FEF767
:1017E000EAFF0020FEF7E7FF4420FEF7E4FF0020B9
:1017F000FEF7E1FFE720FEF7D5FF3220FEF7DBFF23
:101800000020FEF7D8FF5520FEF7D5FF0020FEF799
:10181000D2FF7620FEF7CFFF0020FEF7CCFF662038
:10182000FEF7C9FF0020FEF7C6FF6720FEF7C3FFE3
:101830000020FEF7C0FF6720FEF7BDFF0020FEF787
:10184000BAFF8720FEF7B7FF0020FEF7B4FF99200C
:10185000FEF7B1FF0020FEF7AEFFBB20FEF7ABFFA7
:101860000020FEF7A8FF9920FEF7A5FF0020FEF755
:10187000A2FF7720FEF79FFF0020FEF79CFF442089
:10188000FEF799FF0020FEF796FF5620FEF793FF24
:101890000020FEF790FF2320FEF78DFF0020FEF7CB
:1018A0008AFF3320FEF787FF0020FEF784FF4520E4
:1018B000FEF781FF0020FEF77EFFE820FEF772FFB3
:1018C0000020FEF778FF0020FEF775FF9920FEF755
:1018D00072FF0020FEF76FFF8720FEF76CFF0020ED
:1018E000FEF769FF8820FEF766FF0020FEF763FF22
:1018F0007720FEF760FF0020FEF75DFF6620FEF711
:101900005AFF0020FEF757FF8820FEF754FF002003
:10191000FEF751FFAA20FEF74EFF0020FEF74BFF17
:10192000BB20FEF748FF0020FEF745FF9920FEF799
:1019300042FF0020FEF73FFF6620FEF73CFF00203D
:10194000FEF739FF5520FEF736FF0020FEF733FF84
:101950005520FEF730FF0020FEF72DFF4420FEF754
:101960002AFF0020FEF727FF4420FEF724FF002077
:10197000FEF721FF5520FEF71EFF0020FEF71BFF9C
:10198000E920FEF70FFFAA20FEF715FF0020FEF763
:1019900012FF0020FEF70FFF0020FEF70CFF0020D3
:1019A000FEF700FFAA20FEF706FFCF20FEF7FAFEA3
:1019B0000020FEF700FF0020FEF7FDFE0020FEF7EE
:1019C000FAFE0020FEF7F7FE0020FEF7F4FE0020EE
:1019D000FEF7F1FE0020FEF7EEFE0020FEF7EBFE24
:1019E0000020FEF7E8FE0020FEF7E5FE0020FEF7EF
:1019F000E2FE0020FEF7DFFE0020FEF7DCFE002006
:101A0000FEF7D9FE0020FEF7D6FE0020FEF7D3FE3B
:101A10000020FEF7D0FEF020FEF7C4FE0020FEF707
:101A2000CAFE5020FEF7C7FE0020FEF7C4FE0020CD
:101A3000FEF7C1FE0020FEF7BEFEF320FEF7B2FE69
:101A40000020FEF7B8FEF920FEF7ACFE0620FEF7F8
:101A5000B2FE1020FEF7AFFE2920FEF7ACFE0020FC
:101A6000FEF7A9FE3A20FEF79DFE5520FEF7A3FEE5
:101A70001120FEF797FE642009F020FF2920FEF7D1
:101A800091FE3520FEF78EFE0020FEF794FE5120D9
:101A9000FEF788FEFF20FEF78EFE5320FEF782FE43
:101AA0002C20FEF788FE5520FEF77CFE8220FEF7F4
:101AB00082FE2C20FEF776FE10BD10B51120FEF739
:101AC00071FE782009F0FAFE3620FEF76BFE482002
:101AD000FEF771FE3A20FEF765FE5520FEF76BFE1D
:101AE000F020FEF75FFEC320FEF765FEF020FEF754
:101AF00059FE9620FEF75FFEB420FEF753FE01204C
:101B0000FEF759FEB620FEF74DFE0A20FEF753FE03
:101B1000A220FEF750FEB720FEF744FEC620FEF7D7
:101B20004AFEB920FEF73EFE0220FEF744FEE0200A
:101B3000FEF741FEC020FEF735FE8020FEF73BFE9B
:101B40001620FEF738FEC120FEF72CFE1920FEF706
:101B500032FEC220FEF726FEA720FEF72CFEC5208F
:101B6000FEF720FE1620FEF726FEE820FEF71AFEFE
:101B70004020FEF720FE8A20FEF71DFE0020FEF723
:101B80001AFE0020FEF717FE2920FEF714FE19208A
:101B9000FEF711FEA520FEF70EFE3320FEF70BFE2A
:101BA000E020FEF7FFFDF020FEF705FE0720FEF720
:101BB00002FE0D20FEF7FFFD0420FEF7FCFD0520D0
:101BC000FEF7F9FD1420FEF7F6FD3620FEF7F3FDD3
:101BD0005420FEF7F0FD4C20FEF7EDFD3820FEF717
:101BE000EAFD1320FEF7E7FD1420FEF7E4FD2E20AA
:101BF000FEF7E1FD3420FEF7DEFDE120FEF7D2FD29
:101C0000F020FEF7D8FD1020FEF7D5FD1420FEF7DA
:101C1000D2FD0E20FEF7CFFD0C20FEF7CCFD0820F4
:101C2000FEF7C9FD3520FEF7C6FD4420FEF7C3FDD3
:101C30004C20FEF7C0FD2620FEF7BDFD1020FEF76C
:101C4000BAFD1220FEF7B7FD2C20FEF7B4FD3220BE
:101C5000FEF7B1FDF020FEF7A5FD3C20FEF7ABFD41
:101C6000F020FEF79FFD6920FEF7A5FD782009F022
:101C700025FE2120FEF796FD2920FEF793FD10BDDD
:101C8000FE4A10804FF0D842A2F88010704710B57D
:101C900055214FF47040FFF7F3FFAA214FF20100E6
:101CA000FFF7EEFF52214FF20200FFF7E9FF082194
:101CB0004FF20300FFF7E4FF01214FF20400FFF7AA
:101CC000DFFF0D214FF43040FFF7DAFF0D214BF21B
:101CD0000100FFF7D5FF0D214BF20200FFF7D0FF07
:101CE00034214FF43640FFF7CBFF34214BF2016033
:101CF000FFF7C6FF34214BF20260FFF7C1FF0D2151
:101D00004FF43140FFF7BCFF0D214BF20110FFF7FC
:101D1000B7FF0D214BF20210FFF7B2FF34214FF451
:101D20003740FFF7ADFF34214BF20170FFF7A8FFFA
:101D300034214BF20270FFF7A3FF00214FF4324031
:101D4000FFF79EFF00214BF20120FFF799FF0021D2
:101D50004BF20220FFF794FF24214FF43840FFF7A5
:101D60008FFF24214BF60100FFF78AFF24214BF659
:101D70000200FFF785FF01214FF43F40FFF780FF8E
:101D80000F214FF43340FFF77BFF0F214BF201305F
:101D9000FFF776FF0F214BF20230FFF771FF34217E
:101DA0004FF43940FFF76CFF34214BF60110FFF779
:101DB00067FF34214BF60210FFF762FF08214FF452
:101DC0003540FFF75DFF08214BF20150FFF758FF48
:101DD00008214BF20250FFF753FF03214FF442401A
:101DE000FFF74EFF24214FF43A40FFF749FF24212B
:101DF0004BF60120FFF744FF24214BF60220FFF7AA
:101E00003FFF00214FF43C40FFF73AFF78214BF6AB
:101E10000140FFF735FF00214BF60240FFF730FF8E
:101E200000214FF43D40FFF72BFF78214BF6015086
:101E3000FFF726FF00214BF60250FFF721FF00219C
:101E40004FF43E40FFF71CFF64214BF60160FFF7A3
:101E500017FF00214FF45140FFF712FF33214DF2DD
:101E60000110FFF70DFF00214DF20210FFF708FFF0
:101E700034214DF20310FFF703FF00214DF204104F
:101E8000FFF7FEFE3A214DF20510FFF7F9FE0021A3
:101E90004DF20610FFF7F4FE4A214DF20710FFF74E
:101EA000EFFE00214DF20810FFF7EAFE5C214DF233
:101EB0000910FFF7E5FE00214DF20A10FFF7E0FEE2
:101EC00081214DF20B10FFF7DBFE00214DF20C10CB
:101ED000FFF7D6FEA6214DF20D10FFF7D1FE00212F
:101EE0004DF20E10FFF7CCFEE5214DF20F10FFF77B
:101EF000C7FE01214DF21010FFF7C2FE13214DF273
:101F00001110FFF7BDFE01214DF21210FFF7B8FED0
:101F100054214DF21310FFF7B3FE01214DF21410BE
:101F2000FFF7AEFE82214DF21510FFF7A9FE012149
:101F30004DF21610FFF7A4FECA214DF21710FFF75D
:101F40009FFE02214DF21810FFF79AFE00214DF27C
:101F50001910FFF795FE02214DF21A10FFF790FEBF
:101F600001214DF21B10FFF78BFE02214DF21C10D8
:101F7000FFF786FE34214DF21D10FFF781FE02218E
:101F80004DF21E10FFF77CFE67214DF21F10FFF788
:101F900077FE02214DF22010FFF772FE84214DF2F0
:101FA0002110FFF76DFE02214DF22210FFF768FEAF
:101FB000A4214DF22310FFF763FE02214DF22410FD
:101FC000FFF75EFEB7214DF22510FFF759FE022103
:101FD0004DF22610FFF754FECF214DF22710FFF7E8
:101FE0004FFE02214DF22810FFF74AFEDE214DF28E
:101FF0002910FFF745FE02214DF22A10FFF740FE9F
:10200000F2214DF22B10FFF73BFE02214DF22C1076
:10201000FFF736FEFE214DF22D10FFF731FE0321B2
:102020004DF22E10FFF72CFE10214DF22F10FFF76E
:1020300027FE03214DF23010FFF722FE33214DF22F
:102040003110FFF71DFE03214DF23210FFF718FE8D
:102050006D214DF23310FFF713FE00214FF4524073
:10206000FFF70EFE33214DF20120FFF709FE00219C
:102070004DF20220FFF704FE342101E07E00006CE7
:102080004DF20320FFF7FCFD00214DF20420FFF785
:10209000F7FD3A214DF20520FFF7F2FD00214DF248
:1020A0000620FFF7EDFD4A214DF20720FFF7E8FD7E
:1020B00000214DF20820FFF7E3FD5C214DF20920DD
:1020C000FFF7DEFD00214DF20A20FFF7D9FD812147
:1020D0004DF20B20FFF7D4FD00214DF20C20FFF74D
:1020E000CFFDA6214DF20D20FFF7CAFD00214DF2D4
:1020F0000E20FFF7C5FDE5214DF20F20FFF7C0FDD3
:1021000001214DF21020FFF7BBFD13214DF21120EC
:10211000FFF7B6FD01214DF21220FFF7B1FD54216A
:102120004DF21320FFF7ACFD01214DF21420FFF713
:10213000A7FD82214DF21520FFF7A2FD01214DF2EE
:102140001620FFF79DFDCA214DF21720FFF798FDDD
:1021500002214DF21820FFF793FD00214DF21920C6
:10216000FFF78EFD02214DF21A20FFF789FD0121B4
:102170004DF21B20FFF784FD02214DF21C20FFF7DA
:102180007FFD34214DF21D20FFF77AFD02214DF233
:102190001E20FFF775FD67214DF21F20FFF770FD30
:1021A00002214DF22020FFF76BFD84214DF221200A
:1021B000FFF766FD02214DF22220FFF761FDA42109
:1021C0004DF22320FFF75CFD02214DF22420FFF7A2
:1021D00057FDB7214DF22520FFF752FD02214DF2A8
:1021E0002620FFF74DFDCF214DF22720FFF748FDB8
:1021F00002214DF22820FFF743FDDE214DF2292078
:10220000FFF73EFD02214DF22A20FFF739FDF221B2
:102210004DF22B20FFF734FD02214DF22C20FFF769
:102220002FFDFE214DF22D20FFF72AFD03214DF257
:102230002E20FFF725FD10214DF22F20FFF720FD66
:1022400003214DF23020FFF71BFD33214DF23120E9
:10225000FFF716FD03214DF23220FFF711FD6D212E
:102260004DF23320FFF70CFD00214FF45340FFF7F0
:1022700007FD33214DF20130FFF702FD00214DF241
:102280000230FFF7FDFC34214DF20330FFF7F8FC7C
:1022900000214DF20430FFF7F3FC3A214DF20530F6
:1022A000FFF7EEFC00214DF20630FFF7E9FC4A2172
:1022B0004DF20730FFF7E4FC00214DF20830FFF744
:1022C000DFFC5C214DF20930FFF7DAFC00214DF212
:1022D0000A30FFF7D5FC81214DF20B30FFF7D0FC1F
:1022E00000214DF20C30FFF7CBFCA6214DF20D3052
:1022F000FFF7C6FC00214DF20E30FFF7C1FCE521CF
:102300004DF20F30FFF7BCFC01214DF21030FFF70A
:10231000B7FC13214DF21130FFF7B2FC01214DF251
:102320001230FFF7ADFC54214DF21330FFF7A8FC3B
:1023300001214DF21430FFF7A3FC82214DF215303C
:10234000FFF79EFC01214DF21630FFF799FCCA21E0
:102350004DF21730FFF794FC02214DF21830FFF7D1
:102360008FFC00214DF21930FFF78AFC02214DF25B
:102370001A30FFF785FC01214DF21B30FFF780FC7E
:1023800002214DF21C30FFF77BFC34214DF21D3051
:10239000FFF776FC02214DF21E30FFF771FC67213A
:1023A0004DF21F30FFF76CFC02214DF22030FFF799
:1023B00067FC84214DF22130FFF762FC02214DF2CF
:1023C0002230FFF75DFCA4214DF22330FFF758FCCB
:1023D00002214DF22430FFF753FCB7214DF2253096
:1023E000FFF74EFC02214DF22630FFF749FCCF21CA
:1023F0004DF22730FFF744FC02214DF22830FFF761
:102400003FFCDE214DF22930FFF73AFC02214DF26C
:102410002A30FFF735FCF2214DF22B30FFF730FC6C
:1024200002214DF22C30FFF72BFCFE214DF22D3016
:10243000FFF726FC03214DF22E30FFF721FC10217F
:102440004DF22F30FFF71CFC03214DF23030FFF727
:1024500017FC33214DF23130FFF712FC03214DF20E
:102460003230FFF70DFC6D214DF23330FFF708FCE1
:1024700000214FF45440FFF703FC33214DF201409B
:10248000FFF7FEFB00214DF20240FFF7F9FB34217C
:102490004DF20340FFF7F4FB00214DF20440FFF73B
:1024A000EFFB3A214DF20540FFF7EAFB00214DF228
:1024B0000640FFF7E5FB4A214DF20740FFF7E0FB3E
:1024C00000214DF20840FFF7DBFB5C214DF2094093
:1024D000FFF7D6FB00214DF20A40FFF7D1FB812127
:1024E0004DF20B40FFF7CCFB00214DF20C40FFF703
:1024F000C7FBA6214DF20D40FFF7C2FB00214DF2B4
:102500000E40FFF7BDFBE5214DF20F40FFF7B8FB92
:1025100001214DF21040FFF7B3FB13214DF21140A2
:10252000FFF7AEFB01214DF21240FFF7A9FB54214A
:102530004DF21340FFF7A4FB01214DF21440FFF7C9
:102540009FFB82214DF21540FFF79AFB01214DF2CE
:102550001640FFF795FBCA214DF21740FFF790FB9D
:1025600002214DF21840FFF78BFB00214DF219407C
:10257000FFF786FB02214DF21A40FFF781FB012194
:102580004DF21B40FFF77CFB02214DF21C40FFF790
:1025900077FB34214DF21D40FFF772FB02214DF213
:1025A0001E40FFF76DFB67214DF21F40FFF768FBF0
:1025B00002214DF22040FFF763FB84214DF22140C0
:1025C000FFF75EFB02214DF22240FFF759FBA421E9
:1025D0004DF22340FFF754FB02214DF22440FFF758
:1025E0004FFBB7214DF22540FFF74AFB02214DF288
:1025F0002640FFF745FBCF214DF22740FFF740FB78
:1026000002214DF22840FFF73BFBDE214DF229402D
:10261000FFF736FB02214DF22A40FFF731FBF22192
:102620004DF22B40FFF72CFB02214DF22C40FFF71F
:1026300027FBFE214DF22D40FFF722FB03214DF237
:102640002E40FFF71DFB10214DF22F40FFF718FB26
:1026500003214DF23040FFF713FB33214DF231409F
:10266000FFF70EFB03214DF23240FFF709FB6D210E
:102670004DF23340FFF704FB00214FF45540FFF7C4
:10268000FFFA33214DF20150FFF7FAFA00214DF223
:102690000250FFF7F5FA34214DF20350FFF7F0FA3C
:1026A00000214DF20450FFF7EBFA3A214DF20550AC
:1026B000FFF7E6FA00214DF20650FFF7E1FA4A2152
:1026C0004DF20750FFF7DCFA00214DF20850FFF7FA
:1026D000D7FA5C214DF20950FFF7D2FA00214DF2F2
:1026E0000A50FFF7CDFA81214DF20B50FFF7C8FADF
:1026F00000214DF20C50FFF7C3FAA6214DF20D5008
:10270000FFF7BEFA00214DF20E50FFF7B9FAE521AE
:102710004DF20F50FFF7B4FA01214DF21050FFF7C0
:10272000AFFA13214DF21150FFF7AAFA01214DF231
:102730001250FFF7A5FA54214DF21350FFF7A0FAFB
:1027400001214DF21450FFF79BFA82214DF21550F2
:10275000FFF796FA01214DF21650FFF791FACA21C0
:102760004DF21750FFF78CFA02214DF21850FFF787
:1027700087FA00214DF21950FFF782FA02214DF23B
:102780001A50FFF77DFA01214DF21B50FFF778FA3E
:1027900002214DF21C50FFF773FA34214DF21D5007
:1027A000FFF76EFA02214DF21E50FFF769FA67211A
:1027B0004DF21F50FFF764FA02214DF22050FFF74F
:1027C0005FFA84214DF22150FFF75AFA02214DF2AF
:1027D0002250FFF755FAA4214DF22350FFF750FA8B
:1027E00002214DF22450FFF74BFAB7214DF225504C
:1027F000FFF746FA02214DF22650FFF741FACF21AA
:102800004DF22750FFF73CFA02214DF22850FFF716
:1028100037FADE214DF22950FFF732FA02214DF24C
:102820002A50FFF72DFAF2214DF22B50FFF728FA2C
:1028300002214DF22C50FFF723FAFE214DF22D50CC
:10284000FFF71EFA03214DF22E50FFF719FA10215F
:102850004DF22F50FFF714FA03214DF23050FFF7DD
:102860000FFA33214DF23150FFF70AFA03214DF2EE
:102870003250FFF705FA6D214DF23350FFF700FAA1
:1028800000214FF45640FFF7FBF933214DF2016070
:10289000FFF7F6F900214DF20260FFF7F1F934215C
:1028A0004DF20360FFF7ECF900214DF20460FFF7F1
:1028B000E7F93A214DF20560FFF7E2F900214DF208
:1028C0000660FFF7DDF94A214DF20760FFF7D8F9FE
:1028D00000214DF20860FFF7D3F95C214DF2096049
:1028E000FFF7CEF900214DF20A60FFF7C9F9812107
:1028F0004DF20B60FFF7C4F900214DF20C60FFF7B9
:10290000BFF9A6214DF20D60FFF7BAF900214DF293
:102910000E60FFF7B5F9E5214DF20F60FFF7B0F952
:1029200001214DF21060FFF7ABF913214DF2116058
:10293000FFF7A6F901214DF21260FFF7A1F954212A
:102940004DF21360FFF79CF901214DF21460FFF77F
:1029500097F982214DF21560FFF792F901214DF2AE
:102960001660FFF78DF9CA214DF21760FFF788F95D
:1029700002214DF21860FFF783F900214DF2196032
:10298000FFF77EF902214DF21A60FFF779F9012174
:102990004DF21B60FFF774F902214DF21C60FFF746
:1029A0006FF934214DF21D60FFF76AF902214DF2F3
:1029B0001E60FFF765F967214DF21F60FFF760F9B0
:1029C00002214DF22060FFF75BF984214DF2216076
:1029D000FFF756F902214DF22260FFF751F9A421C9
:1029E0004DF22360FFF74CF902214DF22460FFF70E
:1029F00047F9B7214DF22560FFF742F902214DF268
:102A00002660FFF73DF9CF214DF22760FFF738F937
:102A100002214DF22860FFF733F9DE214DF22960E3
:102A2000FFF72EF902214DF22A60FFF729F9F22172
:102A30004DF22B60FFF724F902214DF22C60FFF7D5
:102A40001FF9FE214DF22D60FFF71AF903214DF217
:102A50002E60FFF715F910214DF22F60FFF710F9E6
:102A600003214DF23060FFF70BF933214DF2316055
:102A7000FFF706F903214DF23260FFF701F96D21EE
:102A80004DF23360FFF7FCF855214FF47040FFF72B
:102A9000F7F8AA214FF20100FFF7F2F852214FF2A6
:102AA0000200FFF7EDF808214FF20300FFF7E8F806
:102AB00000214FF20400FFF7E3F8CC214FF431403E
:102AC000FFF7DEF800214BF20110FFF7D9F80521DE
:102AD0004FF43640FFF7D4F870214FF43740FFF73A
:102AE000CFF870214BF20170FFF7CAF801214FF4C3
:102AF0003840FFF7C5F803214BF60100FFF7C0F897
:102B000003214BF60200FFF7BBF803214BF603004D
:102B1000FFF7B6F802214FF43C40FFF7B1F800216F
:102B20004BF60140FFF7ACF800214BF60240FFF7EF
:102B3000A7F8D0214FF44940FFF7A2F802214CF644
:102B40000110FFF79DF850214CF60210FFF798F89E
:102B500050214CF60310FFF793F850214CF6041067
:102B6000FFF78EF800214FF45450FFF789F85521F4
:102B70004FF46850FFF784F84FF48850FDF712FEC9
:102B8000782008F084FE4FF42450FDF70BFE10BDB2
:102B900010B5FF20FDF706FEFF20FDF70CFE982084
:102BA000FDF709FE0620FDF706FEBC20FDF7FAFD45
:102BB0000120FDF700FE0F20FDF7FDFD6120FDF770
:102BC000FAFDFF20FDF7F7FD0120FDF7F4FD0120E0
:102BD000FDF7F1FD0B20FDF7EEFD1020FDF7EBFDFD
:102BE0003720FDF7E8FD6320FDF7E5FDFF20FDF749
:102BF000E2FDFF20FDF7DFFD0120FDF7DCFD0120F8
:102C0000FDF7D9FD0020FDF7D6FD0020FDF7D3FD2F
:102C1000FF20FDF7D0FD5220FDF7CDFD0120FDF78F
:102C2000CAFD0020FDF7C7FD4020FDF7C4FDBD2013
:102C3000FDF7B8FD0120FDF7BEFD2320FDF7BBFD2C
:102C40004520FDF7B8FD6720FDF7B5FD0120FDF734
:102C5000B2FD2320FDF7AFFD4520FDF7ACFD672059
:102C6000FDF7A9FDBE20FDF79DFD0020FDF7A3FDAA
:102C70000120FDF7A0FDAB20FDF79DFD6020FDF7D5
:102C80009AFD2220FDF797FD2220FDF794FD2220DA
:102C9000FDF791FD2220FDF78EFD2220FDF78BFD33
:102CA000C720FDF77FFD3620FDF785FDED20FDF700
:102CB00079FD7F20FDF77FFD0F20FDF77CFDC02013
:102CC000FDF770FD0F20FDF776FD0B20FDF773FD7E
:102CD0000A20FDF770FDFC20FDF764FD0820FDF7DC
:102CE0006AFDDF20FDF75EFD0020FDF764FD00209A
:102CF000FDF761FD0020FDF75EFD0020FDF75BFDA7
:102D00000020FDF758FD2020FDF755FDF320FDF7CD
:102D100049FD7420FDF74FFDB420FDF743FD002071
:102D2000FDF749FD0020FDF746FD0020FDF743FDBE
:102D3000F720FDF737FD8220FDF73DFDB120FDF7BF
:102D400031FD0020FDF737FD1320FDF734FD132082
:102D5000FDF731FDF220FDF725FD8020FDF72BFD6D
:102D60000420FDF728FD4020FDF725FD2820FDF774
:102D700022FDC120FDF716FD1720FDF71CFD882060
:102D8000FDF719FD8820FDF716FD2020FDF713FD46
:102D9000E020FDF707FD0020FDF70DFD0A20FDF7FF
:102DA0000AFD1220FDF707FD1020FDF704FD0E209F
:102DB000FDF701FD2020FDF7FEFCCC20FDF7FBFC1C
:102DC0000720FDF7F8FC0620FDF7F5FC0B20FDF7CA
:102DD000F2FC0E20FDF7EFFC0F20FDF7ECFC0D20C0
:102DE000FDF7E9FC1520FDF7E6FC1020FDF7E3FCFC
:102DF0000020FDF7E0FCE120FDF7D4FC0020FDF70A
:102E0000DAFC0B20FDF7D7FC1320FDF7D4FC0D20D6
:102E1000FDF7D1FC0E20FDF7CEFC1B20FDF7CBFC0F
:102E20007120FDF7C8FC0620FDF7C5FC0620FDF764
:102E3000C2FC0A20FDF7BFFC0F20FDF7BCFC0E20F2
:102E4000FDF7B9FC0F20FDF7B6FC1520FDF7B3FC2C
:102E50000C20FDF7B0FC0020FDF7ADFC2A20FDF7AB
:102E6000A1FC0020FDF7A7FC0020FDF7A4FC012039
:102E7000FDF7A1FCDF20FDF79EFC2B20FDF792FC67
:102E80000020FDF798FC0020FDF795FC0320FDF7DE
:102E900092FC1F20FDF78FFC3A20FDF783FC5520A4
:102EA000FDF789FC3620FDF77DFC0020FDF783FC53
:102EB0001120FDF777FC782008F000FD2920FDF7B0
:102EC00071FC142008F0FAFC2C20FDF76BFC10BDFF
:102ED00010B5E220FDF766FC1D20FDF76CFC02201A
:102EE000FDF769FC0420FDF766FC642008F0CFFCC8
:102EF000E020FDF757FC0120FDF75DFC0A2008F0FB
:102F0000DDFCE020FDF74EFC0320FDF754FC0C2017
:102F100008F0D4FC0120FDF745FC0A2008F0CEFCA7
:102F2000E620FDF73FFC2F20FDF745FCFF20FDF7D5
:102F300042FCFF20FDF73FFCB020FDF733FC2020D2
:102F4000FDF739FC0020FDF736FC0320FDF733FCCC
:102F500040F21F30FDF72FFC0120FDF72CFC40F262
:102F6000DF10FDF728FC0020FDF725FCB420FDF75D
:102F700019FC0420FDF71FFC40F21F40FDF71BFC6D
:102F80000020FDF718FC2E20FDF715FC0020FDF7B2
:102F900012FC0020FDF70FFC0020FDF70CFC0020C8
:102FA000FDF709FCB620FDF7FDFB0220FDF703FC51
:102FB0004FF40370FDF7FFFB0020FDF7FCFB17202B
:102FC000FDF7F9FB1520FDF7F6FB0020FDF7F3FBFD
:102FD0000020FDF7F0FBF020FDF7E4FB0320FDF7F8
:102FE000EAFB2920FDF7DEFBD020FDF7DBFB00200C
:102FF000FDF7E1FBBE20FDF7D5FB0520FDF7DBFB70
:10300000FE20FDF7D8FB0120FDF7D5FB0020FDF7E2
:10301000D2FB0020FDF7CFFB0020FDF7CCFBB82052
:10302000FDF7C0FB0320FDF7C6FB0120FDF7C3FB46
:10303000BA20FDF7B7FB0120FDF7BDFB10BD00BFB7
:10304000011EA0F10100FBD1704708B50220FFF777
:10305000F6FFFE4800880090BDF8000008BDFC485F
:103060000089FA49891E0880704710B502460C464F
:10307000F748808841F66311884247D1F448807947
:10308000A8B9F3480088401E801A82B2F0494889E6
:10309000FDF788FB0020FDF78EFB0020FDF78BFB82
:1030A0001012FDF788FBD0B2FDF785FB16E0E8496A
:1030B0004889FDF777FB1012FDF77DFBD0B2FDF7D5
:1030C0007AFBE3490988491EC1F30F20FDF773FB22
:1030D000DF490978491EC8B2FDF76DFBDC498889D4
:1030E000FDF760FB2012FDF766FBE0B2FDF763FB26
:1030F000D7494988491EC1F30F20FDF75CFBD4492D
:103100008978491EC8B2FDF756FB3AE0D04880885E
:1031100045F21051884220D1CD494889FDF742FB44
:103120001012FDF748FBCA494989491C88B2FDF7CE
:1031300039FBD0B2FDF73FFBC5498889FDF732FB6B
:103140002012FDF738FBC2498989491C88B2FDF776
:1031500029FBE0B2FDF72FFB13E0BD494889FDF7DD
:1031600021FB1012FDF727FBD0B2FDF724FBB84975
:103170008889FDF717FB2012FDF71DFBE0B2FDF774
:103180001AFB10BD2DE9F04105460E46002400272C
:10319000A046AF480088A84203DDAD484088B04251
:1031A00002DC0020BDE8F08131462846FFF75DFFD4
:1031B000A748808845F21051884204D14FF4385016
:1031C000FDF7F0FA02E02E20FDF7ECFAFFF73DFFE5
:1031D0000446FFF73AFF0446FFF737FF8046E7B2A1
:1031E0004FF6FF7000EA07279948808847F29671EA
:1031F000884201D12046D5E7E012C002B91240EA68
:10320000411040EAE820CDE700B59148808845F2BA
:103210001051884204D14FF42450FDF7C3FA02E064
:103220002920FDF7BFFA00BD00B58948808845F226
:103230001051884204D14FF42050FDF7B3FA02E058
:103240002820FDF7AFFA00BDF0B5054600240027A1
:103250007F488079012805D17D48808841F6631137
:10326000884208D17A488079F0B97948808841F657
:103270006311884218D1082D15D2DFE805F0040645
:10328000080A0C0E101206250DE007250BE0042598
:1032900009E0052507E0012505E0002503E00325F9
:1032A00001E0022500BF00BF082D1CD2DFE805F0B9
:1032B0000406090C0F12151800BF14E044F0800436
:1032C00011E044F040040EE044F0C0040BE044F090
:1032D000200408E044F0600405E044F0A00402E0AB
:1032E00044F0E00400BF00BF36275948808845F20B
:1032F0001051884201D13F0200E0362754488088AF
:1033000047F29671884201D144F0080421463846BC
:10331000FEF7B6FC04F0200068B14D4800884C4927
:103320004988884214DA4A48068840884849088013
:10333000084646800CE0464800884549498888424E
:1033400006DD434806884088414908800846468093
:103350003F48808845F21051884252D13C49488903
:10336000FDF720FA0020FDF726FA39494989491C62
:1033700088B2FDF717FA0020FDF71DFA3449498994
:10338000891C88B2FDF70EFA31490988491EC1F33C
:103390000F20FDF710FA2E494989C91C88B2FDF7A4
:1033A00001FA2B490978491EC8B2FDF704FA2849E9
:1033B0008889FDF7F7F90020FDF7FDF9244989898F
:1033C000491C88B2FDF7EEF90020FDF7F4F9204919
:1033D0008989891C88B2FDF7E5F91D494988491E8C
:1033E000C1F30F20FDF7E7F919498989C91C88B293
:1033F000FDF7D8F916498978491EC8B2FDF7DBF9FF
:1034000032E013494889FDF7CDF90020FDF7D3F9E3
:103410000020FDF7D0F90E490988491EC1F30F209D
:10342000FDF7C9F90A490978491EC8B2FDF7C3F981
:1034300007498889FDF7B6F90020FDF7BCF900209F
:10344000FDF7B9F902494988491E03E08000006C84
:10345000C0090020C1F30F20FDF7ADF9FE498978BE
:10346000491EC8B2FDF7A7F9F0BD70B505460E4676
:10347000144631462846FFF7F8FDFFF7F0FDF64801
:10348000808847F28971884208D1C4F30F20F3493C
:1034900008804FF0D841A1F8804001E0EF490C804E
:1034A00070BD70B52DED048B0446BE20FDF77AF992
:1034B0000520FDF780F9204667F06EFA41EC190B04
:1034C0009FEDE70B53EC102B67F0B6FA41EC180BAD
:1034D00067F01EFA85B22846FDF76DF90120FDF769
:1034E0006AF9FF20FDF767F90020FDF764F9002075
:1034F000FDF761F9BDEC048B70BD10B50446D648EC
:103500008471002C58D1F020D34908804FF4A0706A
:1035100048800846808845F21051884210D14FF407
:103520003050CD4908814FF4285048814FF42C5039
:1035300088814FF4F07008804FF4487048801AE09A
:10354000C548808841F6631188420DD12C20C249BC
:1035500008812B2048812A2088814FF4F070088050
:103560004FF44870488006E02C20BB4908812A208F
:1035700048812B208881B848808845F210318842E4
:1035800005D0B548808847F29671884206D14FF43D
:10359000A070B14908804FF4F0704880AE48808830
:1035A00049F60601884258D14FF4F070AA490880C4
:1035B0004FF44870488050E04FF4A070A64908804E
:1035C000F02048800846808845F21051884210D18A
:1035D0004FF43050A04908814FF4285048814FF4EF
:1035E0002C5088814FF4487008804FF4F070488068
:1035F00020E09948808841F66311884205D09648BA
:10360000808849F6060188420DD12C209249088114
:103610002A2048812B2088814FF4487008804FF47D
:10362000F070488006E02C208B4908812A204881D0
:103630002B2088818848808845F21031884205D047
:103640008548808847F29671884206D14FF4F07021
:10365000814908804FF4A07048800020FFF7F4FDF6
:1036600010BD2DE9F04104460D461E46A018401E2F
:1036700087B2A819401E1FFA80F87748808841F663
:103680006311884231D17448807901282DD0724865
:103690000088801A001B84B2A819401E86B26E49A9
:1036A0004889FDF77FF82012FDF785F8E0B2FDF7B5
:1036B00082F8A118491EC1F30F20FDF77CF8A1186C
:1036C000491EC8B2FDF777F863498889FDF76AF8A3
:1036D0002812FDF770F8E8B2FDF76DF83012FDF72B
:1036E0006AF8F0B2FDF767F86EE05B48808845F253
:1036F0001051884246D158494889FDF753F82012A5
:10370000FDF759F854494989491C88B2FDF74AF830
:10371000E0B2FDF750F850494989891C88B2FDF79D
:1037200041F83812FDF747F84B494989C91C88B25E
:10373000FDF738F8F8B2FDF73EF847498889FDF7FC
:1037400031F82812FDF737F843498989491C88B2B6
:10375000FDF728F8E8B2FDF72EF83F498989891C62
:1037600088B2FDF71FF84FEA2820FDF724F83A4900
:103770008989C91C88B2FDF715F808F0FF00FDF72C
:103780001AF821E034494889FDF70CF82012FDF7BA
:1037900012F8E0B2FDF70FF83812FDF70CF8F8B2A6
:1037A000FDF709F82C498889FCF7FCFF2812FDF782
:1037B00002F8E8B2FCF7FFFF4FEA2820FCF7FBFF16
:1037C00008F0FF00FCF7F7FFBDE8F0811CB5012110
:1037D000082005F0A8F90121102005F0A4F9012125
:1037E000084605F0D6F94CF20370009002208DF8DF
:1037F000040000208DF8060002208DF805006946BF
:10380000194804F0EFFE0C220021174804F075FF60
:103810000C220121144804F070FF0C2208211248E8
:1038200004F06BFF0C2209210F4804F066FF0C2204
:103830000A210D4804F061FF0C220E210A4804F011
:103840005CFF0C220F21084804F057FF4FF68070F0
:103850000090694605480BE0C00900208000006C1C
:103860006666666666660440000C02400010024010
:1038700004F0B8FE0C220721FE4804F03EFF0C22A3
:103880000821FC4804F039FF0C220921F94804F012
:1038900034FF0C220A21F74804F02FFF0C220B21E1
:1038A000F44804F02AFF0C221146F24804F025FFE8
:1038B0000C220D21EF4804F020FF0C220E21ED48D0
:1038C00004F01BFF0C220F21EA4804F016FF1CBD78
:1038D00070B504460026E848058840884543002125
:1038E0000846FFF7C2FBFFF7BAFB00BF10E0E24853
:1038F000808847F28971884207D12012DF49088009
:103900004FF0D840A0F8804001E0DC480480761CED
:10391000AE42ECD370BD00B591B0FFF757FF00BFCA
:103920000121402005F0FFF800BF00BF0121082061
:1039300005F0F9F800BF00BF0121082005F0F3F8F9
:1039400000BF00BF0121202005F0EDF800BF00BF3F
:103950000121022005F0E7F800BF00BF0121082087
:1039600005F0E1F800BF4FF480500F9002208DF871
:10397000400000208DF8420002208DF841000FA980
:10398000BF4804F02FFE20200F900FA9BD4804F07F
:1039900029FE10200F900FA9BA4804F023FE4FF41F
:1039A00080500F900FA9B84804F01CFE0C2211465D
:1039B000B34804F0A2FE0C220521B24804F09DFE9B
:1039C0000C220421AF4804F098FE0C221146AE48A8
:1039D00004F093FE4FF400400F9001208DF840005A
:1039E00000208DF842000FA9A84804F0FBFD4FF419
:1039F00000600F9001208DF8400000208DF84200FB
:103A00000FA9A04804F0EEFD0620A149086000209F
:103A1000486088601020C86000200861C862486162
:103A20008861C8614FF480500862002048624FF4FA
:103A300080408862002008630120089000200990DF
:103A40000F200A9000200E9001200190002002908B
:103A5000022003900020079008A8886301A8C8638B
:103A6000084607F098FA0121062007F043FB3220B0
:103A700007F024FF00BF4FF40061824804F02EFEDF
:103A800000BF0A2007F01AFF00BF4FF400617D4815
:103A900004F026FE00BF322007F010FF00BF4FF4F5
:103AA0000061784804F01AFE00BFC82007F006FF46
:103AB000D320FCF777FEFFF7C8FA6F498880FFF73D
:103AC000C4FA6D498880FFF7C0FA6B4988800846C0
:103AD00080884FF6FF7101EA002067498880FFF770
:103AE000B4FA654989880843634988800846808814
:103AF00049F2413188427CD00420FCF753FEFFF7A5
:103B0000A4FA5D498880FFF7A0FA5B498880FFF737
:103B10009CFA59498880084680884FF6FF7101EA6F
:103B2000002055498880FFF790FA53498988084357
:103B3000514988800846808848F25251884203D112
:103B400047F289704C4988804B48808847F28971D8
:103B50008842D0D0D420FCF725FEFFF776FA4649FC
:103B60008880FFF772FA44498880FFF76EFA42496D
:103B70008880084680884FF6FF7101EA00203E49A0
:103B80008880FFF762FA3C49898808433A4988806F
:103B90000846808845F210318842ACD0D320FCF72B
:103BA00001FEFFF752FA34498880FFF74EFA324996
:103BB0008880FFF74AFA30498880084680884FF6A7
:103BC000FF7101EA00202C498880FFF73EFA2A495C
:103BD00089880843284988800846808847F296717A
:103BE000884288D055214FF47040FEF749F8AA2149
:103BF00000E090E04FF20100FEF742F852214FF250
:103C00000200FEF73DF808214FF20300FEF738F8F6
:103C100001214FF20400FEF733F84FF44540FCF762
:103C2000C1FDFFF712FA14498880084680884FF6D4
:103C3000FF7101EA0020104988804CF20150FCF726
:103C4000B1FDFFF702FA0C49898808430A498880C8
:103C5000052007F033FE0848808845F2105188425D
:103C600059D0D320FCF79EFDFFF7EFF90249888079
:103C700010E0000000100240C00900208000006C2D
:103C800000180240000C02400014024000040240F0
:103C900080090020FFF7D9F9F9498880FFF7D5F9A5
:103CA000F7498880084680884FF6FF7101EA0020B6
:103CB000F3498880FFF7C9F9F14989880843F04939
:103CC00088800846808849F60601884223D0A120D2
:103CD000FCF768FDFFF7B9F9E9498880FFF7B5F906
:103CE000E7498880084680884FF6FF7101EA002086
:103CF000E3498880FFF7A9F9E14989880843E04949
:103D000088800846808845F26171884203D141F677
:103D10006310DB498880DA48808847F289718842DD
:103D200002D1FCF752FD37E0D548808849F2413195
:103D3000884202D1FCF72FFE2EE0D148808845F260
:103D40001031884202D1FCF73FFF25E0CC48808843
:103D500047F29671884202D1FDF7AFFE1CE0C848D9
:103D6000808845F21051884202D1FDF790FF13E0A0
:103D7000C348808849F60601884202D1FEF708FF51
:103D80000AE0BF48808841F66311884204D1FFF7FA
:103D90009FF86420FFF785FB0020FFF7AEFB00BF14
:103DA0004FF40041B74804F099FC00BF4FF6FF7094
:103DB000FFF78EFD11B000BD2DE9F04F06460F460E
:103DC00090469946099C4FF0000BA8EB0600401C5A
:103DD0001FFA80FB3D4621E029463046FFF745F9B2
:103DE000FFF73DF94FF0000A14E0A548808847F23C
:103DF0008971884208D1C4F30F20A34908804FF08D
:103E0000D841A1F8804001E09F490C800AF10100EF
:103E10001FFA80FADA45E8DB681C85B24D45DBDD28
:103E2000BDE8F08F2DE9F84F81460F4692469B463C
:103E3000DDF82880AAEB0900401C86B2ABEB070036
:103E4000401C80B2009000242AE0381981B2484614
:103E5000FFF70BF9FFF703F900251DE0884880887C
:103E600047F2897188420FD104FB065038F81000E0
:103E700000128549088004FB065038F810004FF006
:103E8000D841A1F8800005E004FB065038F8100086
:103E90007D490880681C85B2B542DFDB601C84B2B6
:103EA00000988442D1DBBDE8F88F2DE9FF4F84B044
:103EB00081468A460020029083460698A0EB0905B9
:103EC0000798A0EB0A06CDF80490CDF800A0002DCD
:103ED00001DD012705E00DB9002702E04FF0FF37B3
:103EE0006D42002E02DD4FF0010806E016B94FF0DA
:103EF000000802E04FF0FF387642B54201DD2C4663
:103F000000E03446002003901EE0009A91B2019A2E
:103F100090B2119AFFF7A9FA029828440290B3448C
:103F20000298A04205DD0298001B029001983844D7
:103F30000190A34504DDABEB040B009840440090D6
:103F40000398401C80B20390611C03988842DCDD1A
:103F500008B0BDE8F08FF8B504460D4616461F467A
:103F60003EB147480088A04203DB45484088A8424C
:103F700000DAF8BDA019401E82B22B462946204621
:103F80000097FFF719FF00BFF3E72DE9F841054659
:103F90000E4617469846079C33463A463146284611
:103FA0000094FFF782FF43462A4631462846009494
:103FB000FFF77BFF43463A46414628460094FFF709
:103FC00074FF43463A46314638460094FFF76DFF8A
:103FD000BDE8F8812DE9F04706460F4690469A461F
:103FE000002445460320A0EB480944E07A1B91B227
:103FF000321990B25246FFF738FA3A1B91B2721951
:1040000090B25246FFF731FA3A1991B2721990B252
:104010005246FFF72AFA7A1991B2321990B25246F3
:10402000FFF723FA7A1991B2321B90B25246FFF78A
:104030001CFA3A1991B2721B90B25246FFF715FA68
:104040007A1B91B2321B90B25246FFF70EFA3A1B1E
:1040500091B2721B90B25246FFF707FA641CB9F195
:10406000000F03DAA000801D814404E0601B800083
:104070000A3081446D1EAC42B8DDBDE8F087000017
:10408000C0090020000402408000006C2DE9F04FC0
:104090000746884616469A4640F2C32070434FF4BE
:1040A0007A71B0FBF1F000F1010906FB06F000EBBC
:1040B000560B344671040A0CB91B88B2534641466C
:1040C000FFF749FF012535E005FB05F004FB04007F
:1040D00058451AD94C4517D96B1E5B041A0C08EBCE
:1040E000040399B27B1B5B1C98B25346FFF733FF66
:1040F0006B1E5B041A0CA8EB040399B27B1B5B1CC0
:1041000098B25346FFF727FF641E63041A0C08EBAE
:10411000050399B23B1B98B25346FFF71CFF63049B
:104120001A0CA8EB050399B23B1B98B25346FFF754
:1041300012FF6D1C4D45C7D9BDE8F08F2DE9FC4F2E
:1041400080460E4615461C46B3460020019000905E
:104150002046E31704EB5373DB1021464FEAE47C5F
:1041600004EB5C7C4FEAEC0CA4EBCC0CBCF1000F34
:1041700002D04FF0010C01E04FF0000C63442246E6
:1041800004EBD27C4FEA6C0C03FB0CF3DBB2019323
:10419000A5F12000C5B20C2C06D0102C0BD0182C89
:1041A0000ED0202C18D112E005EB4500A44901EBFC
:1041B0008000009012E0A34800EB051000900DE095
:1041C00005EBC500A04901EB8000009006E09F4888
:1041D00000EB8510009001E0BDE8FC8F00BF0027D8
:1041E0003AE0009810F807904FF0000A2EE009F02E
:1041F000800028B1314640460C9AFFF736F907E0B7
:104200000B9828B99248314602684046FFF72DF9CD
:104210004FEA49604FEA1069701C86B28D484088A9
:10422000B04200DCD8E7A6EB0B00A0420AD15E4604
:1042300008F101001FFA80F886480088404500DC3C
:10424000CAE706E00AF1010000F0FF0ABAF1080F20
:10425000CDDB00BF781CC7B201988742C1DB00BF2D
:10426000BAE710B50246012000E050430B1EA1F151
:104270000104E1B2F9D110BD2DE9FF4F83B007462B
:1042800091461E46DDE9105A0020029000243AE0D3
:10429000301B401EC1B20A20FFF7E3FFB9FBF0F06C
:1042A0000A21B0FBF1F201FB12080298B8B9701EA6
:1042B000A04214DDB8F1000F0FD10020AB4605EB92
:1042C000DB71491001FB0471CDE9000A88B22B466D
:1042D00020220499FFF732FF13E001200290002012
:1042E000AB4605EBDB71491001FB0471CDE9000A17
:1042F00088B208F13001CAB22B460499FFF71EFFBD
:1043000000BF601CC4B2B442C2DB07B0BDE8F08F8E
:104310002DE9FF4F85B0064693461F46DDE9138918
:10432000129C00200490002550E0781B401EC1B272
:104330000A20FFF796FFBBFBF0F00A21B0FBF1F279
:1043400001FB120A049860BB781EA84229DDBAF16D
:10435000000F24D108F0800080B108F0010004EBC8
:10436000D471491001FB0561CDE90009039488B2BD
:10437000234630220699FFF7E1FE0FE008F0010026
:1043800004EBD471491001FB0561CDE900090394E8
:1043900088B2234620220699FFF7D0FE14E00120C0
:1043A000049008F0010004EBD471491001FB056191
:1043B000CDE90009039488B20AF13001CAB223465C
:1043C0000699FFF7BBFE00BF681CC5B2BD42ACDB5F
:1043D00009B0BDE8F08F2DE9FC4F04460D4690462C
:1043E0009946DDE90C7A0B9E04F0FF0B08EB040004
:1043F0001FFA80F809EB05001FFA80F917E0444521
:1044000002DB5C46A81985B24D4500DB15E00020B3
:10441000CDE9000A3A78334629462046FFF78EFE5A
:10442000304606EBD07104EB61018CB27F1C38780A
:104430007E2802DC38782028E1DA00BFBDE8FC8F56
:1044400074B00608E8B40608D8BA060834C80608E6
:1044500064000020C009002010B5022007F017FA00
:1044600010BD10B500BF2021914804F039F900BFFC
:10447000FFF7F2FF00BF01218D4804F02FF900BFC4
:10448000FFF7EAFF00BF2021894804F027F900BFA9
:10449000FFF7E2FF10BD1CB500BF0121022004F0B0
:1044A00042FB00BF00BF0121022004F03CFB00BF23
:1044B000012000908DF8040000208DF806000220F5
:1044C0008DF8050069467A4804F08CF820200090A9
:1044D00001208DF804008DF806006946744804F048
:1044E00081F8FFF7BEFF1CBD10B500BF202170484A
:1044F00004F0F4F800BF00BF01216D4804F0EEF8AD
:1045000000BFFFF7A9FF00BF2021694804F0E8F8C9
:1045100000BFFFF7A1FF00BF0121654804F0E0F8EC
:1045200000BFFFF799FF10BD70B50024002500BF44
:1045300020215F4804F0D2F800BFFFF78DFF00BFD5
:1045400001215B4804F0CAF800BFFFF785FF09E0CE
:10455000601CC4B2FA2C03DDFFF783FF012507E0DE
:10456000FFF77AFF2021524804F09EF80028EFD18F
:1045700000BF00BF01214E4804F0B2F800BFFFF7B2
:104580006BFF284670BD10B500BF2021484804F0DD
:10459000A7F800BFFFF760FF00BF0121444804F007
:1045A0009DF800BFFFF758FF00BF0121404804F00D
:1045B00097F800BFFFF750FF00BF20213C4804F0F0
:1045C0008DF800BFFFF748FF10BD10B500BF2021D8
:1045D000374804F083F800BFFFF73EFF00BF01211A
:1045E000334804F07BF800BFFFF736FF00BF01211E
:1045F0002F4804F075F800BFFFF72EFF10BD70B50F
:104600000446002520E000BFE00920B12021284811
:1046100004F064F803E02021254804F061F800BFAD
:10462000FFF71AFF00BF0121214804F057F800BF2F
:10463000FFF712FF00BF01211D4804F051F800BF31
:104640006006040E681CC5B2082DDCDB00BF20210B
:10465000174804F043F800BF70BD70B5054600244C
:1046600000261AE06006040E00BF0121104804F085
:1046700035F800BFFFF7F0FE20210D4804F014F8D4
:1046800008B1601CC4B200BF0121094804F028F839
:1046900000BFFFF7E1FE701CC6B2082EE2DB15B9C1
:1046A000FFF793FF01E0FFF76EFF204670BD0000AB
:1046B000000402402DE9F04105460E4617464FF032
:1046C0000008FFF711FF7020FFF799FFFFF72CFF9D
:1046D000E8B2FFF794FFFFF727FF00240BE0305DFF
:1046E000FFF78DFFFFF720FF8046B8F1000F00D0E5
:1046F00003E0601CC4B2BC42F1DB00BFFFF7B1FEB7
:104700004046BDE8F0812DE9F04106460F461546CA
:10471000FFF7EAFE7020FFF772FFFFF705FFF0B228
:10472000FFF76DFFFFF700FFFFF7DEFE7120FFF7D9
:1047300066FFFFF7F9FE00240BE0691EA14201D0DD
:10474000012100E000210846FFF787FF3855601C73
:10475000C4B2AC42F1DBFFF784FEBDE8F0810EB5D8
:1047600000BF0121082004F0DEF900BF00BF0121D5
:10477000022004F0D8F900BF4FF40060019001203E
:104780008DF8080000208DF80A0002208DF809003D
:1047900001A9964803F026FF0220019000208DF821
:1047A00008008DF80B0002208DF8090001A990483F
:1047B00003F018FFFFF76FFE00BF4FF400618B4856
:1047C00003F08EFF00BF142007F078F800BF4FF40D
:1047D0000061864803F082FF00BF322007F06EF8C8
:1047E00000208DF8000001226946FFF763FF0122D7
:1047F0006946A420FFF75EFF16208DF80000012215
:1048000069468020FFF756FF0C208DF8000001223A
:1048100069468820FFF74EFF02226946A120FFF774
:1048200072FF9DF80000302803D19DF80100032895
:104830000DD09DF80100012809D09DF80100022843
:1048400005D09DF8000020B99DF8010008B90020AE
:104850000EBD0120FCE72DE9FC4107460020019038
:104860000024002663480078401C6249087008460E
:1048700000780A2190FBF1F201FB120018B15D48AB
:1048800000780A2869DA012201A90220FFF73BFF1C
:104890009DF8040000F00F0000285ED09DF8040091
:1048A00000F00F0006287BDA9DF8040000F00F01ED
:1048B0004FF6FF70884085B2E84380B240F4404034
:1048C0004D490884042006F0F9FF00245AE04A48C4
:1048D000008C0121A1400840F0B3484931F8140090
:1048E00004226946FFF70FFF434890F8300000F0BC
:1048F0000100C0B19DF801009DF8001001F00F010A
:1049000000EB01203C49163121F814009DF803000A
:104910009DF8021001F00F0100EB012136480C3028
:1049200020F814101EE09DF801009DF8001001F021
:104930000F0100EB012032490988081A81B22E4884
:104940000C3020F814109DF803009DF8021001F0BF
:104950000F0100EB012001E012E021E026491631B1
:1049600021F814009DF8000000F0F000802807D026
:1049700000212148163020F814100A3820F81410AD
:10498000601CC4B2052CA2DB01261B48808920B91B
:104990001948C08A08B90020019000201549087004
:1049A0009DF8040000F01F00A8B91348008C00F423
:1049B000004030B11048008C20F400400E490884BB
:1049C00009E04FF6FF700C498881C8820846008CC8
:1049D00000F46040088407480078F02802DD0A20CF
:1049E000044908703046BDE8FC810000000C02401C
:1049F000000402406800002070000020F4DF060878
:104A0000C00900202DE9F04104460E4617464FF03C
:104A10000008FFF769FD2820FFF7F1FDFFF784FD8F
:104A20002012FFF7ECFDFFF77FFDE0B2FFF7E7FD97
:104A3000FFF77AFD00250BE0705DFFF7E0FDFFF763
:104A400073FD8046B8F1000F00D003E0681CC5B2CA
:104A5000BD42F1DB00BFFFF704FD4046BDE8F08139
:104A60002DE9F04105460F461646FFF73DFD28208B
:104A7000FFF7C5FDFFF758FD2812FFF7C0FDFFF750
:104A800053FDE8B2FFF7BBFDFFF74EFDFFF72CFD2E
:104A90002920FFF7B4FDFFF747FD00240BE0711E4E
:104AA000A14201D0012100E000210846FFF7D5FD19
:104AB0003855601CC4B2B442F1DBFFF7D2FCBDE84C
:104AC000F0811FB500BF0121042004F02CF800BFC5
:104AD00000BF0121022004F026F800BF4FF400506F
:104AE000029001208DF80C0000208DF80E000220AD
:104AF0008DF80D0002A9F24803F074FD0220029027
:104B000000208DF80C008DF80F0002208DF80D00AC
:104B100002A9EC4803F066FDFFF7BDFC00BF4FF4AF
:104B20000051E74803F0DCFD00BF0A2006F0C6FE96
:104B300000BF4FF40051E24803F0D0FD00BF0A204F
:104B400006F0BCFE0220029000208DF80C008DF8CB
:104B50000F0002208DF80D0002A9DA4803F042FD93
:104B6000642006F0ABFE0422694648F24010FFF7CD
:104B700077FF00208DF80400D3A1684663F04EF95A
:104B800088B1D2A1684663F049F960B1D1A1684605
:104B900063F044F938B1D1A1684663F03FF910B130
:104BA000012004B010BDCDA1684663F037F910B9FB
:104BB0000A20CC49087002208DF8000001226946C5
:104BC00048F24000FFF71EFF0A2006F077FE0020A3
:104BD0008DF800000122694648F24000FFF712FFFD
:104BE0000020DEE771B583B0002001900026BE48AA
:104BF0000078401CBC490870084601780A2091FBE7
:104C0000F0F200FB121018B1B74800780A287DDADC
:104C1000012203A948F24E10FFF722FF9DF80C0075
:104C200000F0800078B19DF80C0000F00F00AD4955
:104C30000978884207DC00200190012201A948F28E
:104C40004E10FFF7DFFE9DF80C0000F00F0000286B
:104C50005CD09DF80C0000F00F00A2490978884252
:104C600054DC9DF80C0000F00F014FF6FF708840F7
:104C700084B29E48058CE04380B240F440409B499A
:104C800008840846828997480078401E0C3121F834
:104C900010209648C28A93480078401E0A3121F8B5
:104CA000102000200190A7E09048008C9DF804207F
:104CB00001219140084000283FD08D499DF80420F3
:104CC00031F81200042202A9FFF7CAFE8948808841
:104CD00045F2105188420BD08648808845F2103149
:104CE000884205D08348808847F29671884240D137
:104CF0007E4890F8300000F00100F8B19DF80A00FD
:104D00009DF80B1000EB01207A4900E0B2E0098821
:104D1000081A81B275480C309DF8042020F8121052
:104D20009DF808009DF8091000EB012081B26F4842
:104D300016309DF8042020F8121058E09DF8080065
:104D40009DF8091000EB012081B268480C309DF8F5
:104D5000042020F812109DF80A009DF80B1000EBBB
:104D6000012081B2614816309DF8042020F812100D
:104D70003DE05E4890F8300000F00100D0B19DF8B1
:104D800008009DF8091000EB012081B257480C3053
:104D90009DF8042020F812109DF80A009DF80B10D1
:104DA00000EB012081B2514816309DF8042020F814
:104DB00012101CE09DF80A009DF80B1000EB01207A
:104DC0004C490988081A81B248480C309DF80420E3
:104DD00020F812109DF808009DF8091000EB012042
:104DE00081B2424816309DF8042020F812109DF838
:104DF0000400401CC0B201909DF8040039490978B4
:104E00008842FFF651AF0126384880893949098820
:104E1000884205DC3548C08A36494988884226DD03
:104E20009DF80C0000F00F0001280ADD2F48C08912
:104E30002E4988810846008BC88200202A490870C4
:104E400018E028480078401E28490C3131F810003D
:104E50000C39888123480078401E163131F8100043
:104E60001639C882802003900846058402E000209D
:104E70001D4908709DF80C0000F08F00802815D1A6
:104E80001A48008C00F4004030B11848008C20F41F
:104E900000401649088409E04FF6FF7013498881E5
:104EA000C8820846008C00F4604008840E480078F0
:104EB000F02802DD0A200C490870304604B070BDAD
:104EC00000080240000402403931310039313437E2
:104ED0000000000031313538000000003932373130
:104EE00000000000690000206E000020700000201B
:104EF000FEDF0608C009002070B50446002500BF8B
:104F000023E004F0800030B100BF4FF40061F948A5
:104F100003F0E4FB06E000BF4FF40061F54803F046
:104F2000DFFB00BF6006040E00BF0121F24803F062
:104F3000D7FB00BF012006F0AAFC00BF0121EE480C
:104F400003F0CCFB00BF681CC5B2082DD9DB70BDD7
:104F500070B506460025002400BF0121E64803F095
:104F6000BFFB00BF00BF4FF40061E24803F0B8FB95
:104F700000BF00BF4FF40051E04803F0B1FB00BF99
:104F80003046FFF7B9FF062006F081FC00BF012183
:104F9000D94803F0A5FB00BF012006F078FC00BF54
:104FA0000121D54803F09AFB00BF012006F06FFCF9
:104FB00000BF0121D04803F093FB00BF00BF1BE0FE
:104FC0004FF6FF7000EA440400BF0121CA4803F015
:104FD00087FB00BF012006F05AFC00BF0121C64834
:104FE00003F07CFB00BF0421C34803F05DFB08B164
:104FF000601C84B2681CC5B2102DE1DB241100BF17
:105000004FF40051BD4803F069FB00BF204670BD5E
:105010002DE9FE4380460027002406E04046FFF7C6
:1050200097FF2DF81400601C84B2052CF6DB0024D9
:1050300016E0601C85B20FE03DF814003DF8151035
:10504000884207DD3DF814603DF815002DF8140086
:105050002DF81560681C85B2052DEDDB601C84B24F
:10506000042CE6DB0027012405E03DF81400384459
:1050700087B2601C84B2042CF7DB032097FBF0F0AE
:1050800086B23046BDE8FE832DE9F04106460F4664
:105090009B4890F8300000F0010040B19020FFF7ED
:1050A000B7FF0546D020FFF7B3FF044607E0D02046
:1050B000FFF7AEFF05469020FFF7AAFF04463580B4
:1050C0003C80BDE8F0817FB504460D4602A903A8E7
:1050D000FFF7DAFF694601A8FFF7D6FFBDF8040025
:1050E000BDF80C10884206DCBDF80C10BDF80400B9
:1050F000323081420CDBBDF80C00BDF80410884250
:1051000037DCBDF80410BDF80C003230814230DAD3
:10511000BDF80000BDF80810884206DCBDF8081094
:10512000BDF80000323081420CDBBDF80800BDF84C
:10513000001088421DDCBDF80010BDF808003230B8
:10514000814216DABDF80C10BDF80420881800EB77
:10515000D071C1F34F012180BDF80810BDF80020C7
:10516000881800EBD071C1F34F012980012004B0F1
:1051700070BD0020FBE7F8B504460D46164604F165
:105180000D018AB2193988B22B4629460096FEF7DE
:105190008CFE05F10D0083B2193881B222462046FB
:1051A0000096FEF782FE6A1C91B2621C90B23246F3
:1051B000FEF75BF96A1C91B2621E90B23246FEF7AE
:1051C00054F96A1E91B2621C90B23246FEF74DF954
:1051D0006A1E91B2621E90B23246FEF746F933461D
:1051E000062229462046FEF7F5FEF8BD70B50446B6
:1051F0000D461646324629462046FEF736F9611C12
:1052000088B232462946FEF730F9681C81B2324630
:105210002046FEF72AF96A1C91B2621C90B232460F
:10522000FEF723F970BD10B504460221324803F0A1
:105230003BFA002869D134B131491631A1F10A0095
:10524000FFF741FF47E02E491631A1F10A00FFF7B1
:105250003AFFE8B32A498989294A928D891A09B205
:1052600000EE101AB8EEC00A254991ED091AC0EEF9
:10527000010A2449088800EBD071491000EE101A89
:10528000B8EEC00A30EE800ABCEEC00A10EE101A6A
:105290001B4A91811146C98AD28D891A09B200EE42
:1052A000101AB8EEC00A164991ED0A1AC0EE010AAA
:1052B0001449488800EBD071491000EE101AB8EE7E
:1052C000C00A30EE800ABCEEC00A10EE101A00E0F0
:1052D00001E00B4AD1820A48008C00F40040F8B982
:1052E0004FF4404006490884084681898182C18A7A
:1052F000C1831FE000140240000402400008024085
:1053000070000020C0090020FFE7F948008C00F47D
:10531000004030B1F648008C20F40040F449088485
:1053200008E00021F2488182C1834FF6FF70F04906
:105330008881C882EE4890F82000002010BD10B58A
:10534000EB4C24340C222146EA4803F007F80A21EA
:10535000E8480C3002F0DAFF10BD70B5E44C24349C
:1053600000250C222146E34802F0EEFFE1480C3014
:1053700002F0E7FF05460A2D01D1012070BD002093
:10538000FCE770B52DED048B88B00546B0EE408A81
:10539000F0EE608AB0EE419AF0EE619A002433E0BC
:1053A00035F82430621CD4A103A862F069FA4FF4E6
:1053B000784003A91022CDE900210290D04843880B
:1053C000028804EB8400A02606EB80012820FFF76A
:1053D00002F805EB84004388621CCAA103A862F0AE
:1053E0004FFA4FF4784003A91022CDE90021029032
:1053F000C3484388028804EB840006EB80017820D0
:10540000FEF7E9FF601CC4B2052CC9DB4FF6FF7044
:105410000090BB480088401E82B204EB8400A023A9
:1054200003EB800110232820FEF7C6FC53EC182B59
:10543000B6A103A862F024FA00208DF813004FF4FF
:10544000784003A91022CDE900210290AC4843889E
:10545000028804EB8400A02606EB80012820FEF7DA
:10546000BAFF53EC192BACA103A862F009FA002093
:105470008DF813004FF4784003A91022CDE90021E4
:1054800002909F484388028804EB840006EB800169
:105490007820FEF7A0FF08B0BDEC048B70BD2DE9AD
:1054A000F04F2DED088B8BB04FF0000800200590D9
:1054B00000BF4FF6FF70FEF70BFA4FF478409949A2
:1054C000096810226423CDE900210290A02228213E
:1054D0000846FEF780FF4FF4784214210846FFF794
:1054E0004AFE0020824908840FE281484168012079
:1054F00088477F48008C00F44040B0F5804F7DD154
:10550000002005907A48008C20F480407849088477
:105510000846808906A921F828007548C08A01EB51
:105520008801488008F1010000F0FF08B8F1060F7B
:1055300013D2DFE808F0120313263C514FF6FF7236
:1055400014210846FFF717FE6D490988143988B2FF
:105550004FF478421421FFF70EFEC6E1684909882E
:10556000143988B24FF6FF721421FFF704FE644825
:105570004088143881B24FF478421420FFF7FBFDC5
:10558000B3E15F484088143881B24FF6FF721420AF
:10559000FFF7F1FD5A4A5288143A91B2584A1288DC
:1055A000143A90B24FF47842FFF7E5FD9DE14FF6D3
:1055B000FF70FEF78DF9524AB2F8029009EBD972EA
:1055C00051104F4AB2F800A00AEBDA7250104FF4B3
:1055D0007842FFF7D0FD88E1BDF81C10BDF8180037
:1055E000081A04B2BDF82400BDF82010401A06B213
:1055F000BDF82610BDF81E00081A00E076E105B2DD
:10560000BDF82200BDF81A10401A07B2304665F006
:10561000ACF941EC1A0B204665F0A7F941EC1B0BE5
:1056200053EC1A2B64F0E0FF41EC180B384665F0A0
:105630009CF941EC1A0B284665F097F941EC1B0BDD
:1056400053EC1A2B64F0D0FF41EC190B9FED360B95
:1056500053EC102B51EC180B65F0B2F905D251EC5C
:10566000180B64F0C7FE41EC180B9FED2F0B53ECA9
:10567000102B51EC190B65F0A3F905D251EC190B65
:1056800064F0B8FE41EC190B9FED290B53EC102B85
:1056900051EC180B65F094F970D39FED270B53EC88
:1056A000102B51EC180B65F0C5FA67D39FED200B5A
:1056B00053EC102B51EC190B65F082F97AD39FED66
:1056C0001E0B53EC102B51EC190B65F0B3FA71D390
:1056D0000094002C01DB009801E000984042B0F5F6
:1056E000805F67DA0195002D2ADB01982AE000002F
:1056F0007000002000000E087825643A2564000040
:10570000C00900207925643A2564000070783A25A4
:10571000302E32660000000070793A25302E326655
:105720000000000014E00608000000000000000077
:10573000666666666666EE3FCDCCCCCCCCCCF03FE0
:1057400001984042B0F5805F34DA0296002E01DB0A
:10575000029801E002984042B0F5805F2ADA039790
:10576000002F01DB039801E003984042B0F5805F11
:1057700020DA0494002C02DB049802E01AE004987A
:105780004042B8B1B5F1000B01DB584601E0CBF166
:10579000000078B1B6F1000A01DB504601E0CAF121
:1057A000000038B1B7F1000901DB484601E0C9F15A
:1057B000000018BB4FF00008BE4AB2F8029009EB97
:1057C000D9725110BB4AB2F800A00AEBDA7250103D
:1057D0004FF6FF72FFF7CFFC4FF4784214210846D2
:1057E000FFF7C9FCB0EE491AF0EE691AB0EE480AAC
:1057F000F0EE680A06A8FFF7C4FD86E0A01900EEE7
:10580000100AF8EEC00AAB4800882838400000EEC5
:10581000100AB8EEC00A80EE801AA74880ED091A77
:10582000E81900EE100AF8EEC00AA24840882838AD
:10583000400000EE100AB8EEC00A80EE801A9E48C2
:1058400080ED0A1ABDF8280000B29B498885BDF892
:105850002A0000B2C885084690ED090A10EE101A19
:10586000084665F007FB41EC1A0B53EC1A2B93A08A
:1058700006F0B8F8904890ED0A0A10EE101A0846A3
:1058800065F0F8FA41EC1A0B53EC1A2B90A006F0D5
:10589000A9F88948B0F92C1092A006F0A3F8864820
:1058A000B0F92E1093A006F09DF84FF6FF70FEF7AA
:1058B0000FF81F2093A11022CDE9002102907D480E
:1058C000438802886E212320FEF785FD4FF47A700D
:1058D00005F0F4FFFFF733FD4FF6FF70FDF7F8FF1B
:1058E0000BB0BDEC088BBDE8F08F00BF0A2005F0BF
:1058F000E5FF0598401C80B205900598B0F57A7FC9
:1059000002DDFFF72AFD01E000BFEEE500BF00BFAA
:10591000E6E71CB50020684981F83000084690F899
:1059200030006449897901F001010843624981F836
:1059300030006048808847F28971884205D05D4810
:10594000808845F2103188420ED1FFF7BAF858B975
:10595000724859494860084690F8300040F080008D
:1059600081F8300000201CBD5248808845F210515B
:10597000884217D04F48808847F29671884211D0EC
:105980004C48808844F2423188420BD04948808894
:1059900041F21801884205D04648808844F284319B
:1059A00088420DD1FFF78DF85C48434948600846AE
:1059B00090F8300040F0800081F830000020D2E7FD
:1059C0003C48808847F28401884205D03948808865
:1059D00047F21601884215D1FEF7C1FE18B95048AA
:1059E0003549486004E0FFF76CF84C48324948609C
:1059F000314890F8300040F080002F4981F83000A5
:105A00000020B0E700BF0121022003F08CF800BFA6
:105A100000BF0121042003F086F800BF00BF012170
:105A2000022003F080F800BF00BF0121202003F016
:105A30007AF800BF00BF0121022003F074F800BF14
:105A40000220009000208DF804008DF8070002204D
:105A50008DF805006946334802F0C4FD042000902B
:105A60006946304802F0BEFD4FF40060009001200E
:105A70008DF8040000208DF8060002208DF8050046
:105A80006946294802F0AEFD01200090694625488C
:105A900002F0A8FD4FF4005000906946234802F040
:105AA000A1FD05491631A1F10A00FFF7EDFA00202A
:105AB00059E70000C00900207000002074705F6486
:105AC00065762E78666163203D2025660000000023
:105AD00074705F6465762E79666163203D2025666B
