:020000040800F2
:10000000289D002035310008A1040008A304000841
:10001000A7040008AB040008AF04000800000000BB
:10002000000000000000000000000000D5020008F1
:10003000B30400080000000031030008C7A800084E
:100040004F3100084F3100084F3100084F31000890
:100050004F3100084F3100084F3100084F31000880
:100060004F3100084F3100084F3100084F31000870
:100070004F3100084F3100084F3100084F31000860
:100080004F3100084F3100084F3100084F31000850
:100090004F3100084F3100084F3100084F31000840
:1000A0004F3100084F3100084F3100084F31000830
:1000B0004F310008275300084F3100084F31000826
:1000C0004F3100084F3100084F3100084F31000810
:1000D0004F310008F55400084F3100084F31000837
:1000E0004F3100084F3100084F3100084F310008F0
:1000F0004F3100084F3100084F3100084F310008E0
:100100004F310008112200084F3100084F3100081C
:100110004F3100084F3100084F3100084F310008BF
:100120004F3100084F3100084F3100084F310008AF
:100130004F3100084F3100084F3100084F3100089F
:100140004F3100084F3100084F3100084F3100088F
:100150004F3100084F3100084F3100084F3100087F
:100160004F3100084F3100084F3100084F3100086F
:100170004F3100084F3100084F3100084F3100085F
:100180004F3100084F31000800F002F800F092F8FB
:100190000AA090E8000C82448344AAF10107DA45E2
:1001A00001D100F087F8AFF2090EBAE80F0013F0A2
:1001B000010F18BFFB1A43F0010318471871030021
:1001C00038710300103A24BF78C878C1FAD85207B2
:1001D00024BF30C830C144BF04680C6070470000C1
:1001E0000023002400250026103A28BF78C1FBD840
:1001F000520728BF30C148BF0B6070476E290AF014
:10020000198670290AF0638766290CF0B881652980
:100210000CF0B58167290CF0B28161290CF0B18135
:1002200003681B0A28BF41F0800169290AF0C685CE
:1002300064290AF0C38575290AF0C0856F290AF080
:10024000F08678290AF02F87E9290AF08B86E429BD
:100250000AF08886F5290AF08586EF290AF0ED86EE
:10026000F8290AF02E870368DB0928BF41F08001D6
:1002700063290BF0318473290BF03684E3290BF0EA
:100280004184F3290BF04684002070471FB50CF021
:1002900071F90BF091FC0400002000210CF054F9DE
:1002A000401C6060002000210CF038F9E0601FBDA8
:1002B00010B510BD0BF052FC1146FFF7E7FF00F040
:1002C000A4F80BF02FFD03B4FFF7F2FF03BC0BF013
:1002D00037FD00002C4B19680868B0E8F04F80F338
:1002E0000988BFF36F8F4FF0000080F311887047CB
:1002F0000000000008480068006880F308884FF09C
:10030000000080F3148862B661B6BFF34F8FBFF36D
:100310006F8F00DF00BF00BF08ED00E0DFF80C00CA
:10032000016841F470010160704700BF88ED00E092
:10033000EFF30980BFF36F8F134B1A681EF0100F95
:1003400008BF20ED108A20E9F04F106009B44FF08B
:10035000BF0080F31188BFF34F8FBFF36F8F09F099
:1003600093F94FF0000080F3118809BC1968086800
:10037000B0E8F04F1EF0100F08BFB0EC108A80F309
:100380000988BFF36F8F704788000020EFF3058066
:10039000704700001BE04FF400712D4802F084FE0E
:1003A0004FF480612A4802F07DFE4FF4FA7009F0A4
:1003B00082F84FF40071264802F074FE4FF4806119
:1003C000234802F071FE4FF4FA7009F074F8E2E786
:1003D00002F09EF902F04EF902E01EA002F066FC67
:1003E000FBE710B501221EA11E4806F00EFD0446D3
:1003F00021461DA005F054F834B14FF400731F4A94
:10040000002117A007F053FE10BD1CB504F087FFB4
:1004100000F058F904F0C6FF02F090F8FFF7E1FF92
:100420001748012100238022CDE9001015A11748AB
:1004300008F081FD1648012100238022CDE900103B
:1004400014A1164808F077FD09F0E3FA00201CBD5E
:1004500000140240303A6C6C682E6D70330000005E
:10046000303A0000F8040020665F6D6F756E7420EE
:10047000726573203D2025640A0000002C070020CF
:10048000040000207461736B3100000095030008C4
:10049000000000207461736B32000000D10300087B
:1004A000704700BFFEE700BFFEE700BFFEE700BFEA
:1004B000FEE770470CB50020019000907648006878
:1004C00040F480307449086000BF7348006800F44D
:1004D000003000900198401C0190009818B90198D4
:1004E000B0F5A04FF1D16C48006800F4003010B1B5
:1004F0000120009001E0002000900098012846D1E2
:1005000065484030006840F08050634940310860E1
:100510006248006840F44040604908605E48083026
:1005200000685D49083108600846006840F40040F2
:1005300008600846006840F4A05008605848091F49
:100540000860081F006840F08070091F086000BF45
:100550005148006800F000700028F9D040F20570A2
:10056000504908604C480830006820F003004A49B0
:10057000083108600846006840F00200086000BFCB
:1005800045480830006800F00C000828F8D10CBD80
:1005900010B54548006840F47000434908603E4883
:1005A000006840F001003C49086000203A490831E9
:1005B0000860394800683D490840374908603C48B0
:1005C000091D0860081F006820F48020091F0860CA
:1005D000002031490C310860FFF76CFF4FF00060DC
:1005E00031498039086010BD70B500200022022317
:1005F00000240221284D08352D6805F00C0020B19B
:10060000042806D0082834D107E02A4D2A4E356048
:1006100033E02A4D284E35602FE01F4D2D1D2D68EB
:10062000C5F380541C4D2D1D2D6805F03F0154B1BC
:10063000224DB5FBF1F5184E361D3668C6F3881607
:1006400005FB06F209E01B4DB5FBF1F5124E361D18
:100650003668C6F3881605FB06F20F4D2D1D2D6872
:10066000C5F301456D1C6B00B2FBF3F5124E35600E
:1006700003E0104D104E356000BF00BF064D083539
:100680002D68C5F303150E4E705D0B4D2D68C540EA
:10069000094E356070BD0000003802400070004017
:1006A00008544007003C024088ED00E0FFFFF6FEE2
:1006B000103000240024F4004800002000127A00CA
:1006C0004C0000201CB50121202002F02DFF4FF42A
:1006D000C060009001208DF8040000208DF8060015
:1006E00003208DF8050001208DF8070069460448B5
:1006F00002F05CFC4FF4C061014802F0D3FC1CBD69
:100700000014024001460020012900D011B9FE4B1F
:10071000197000E0262070470146FC4A106820F05E
:10072000FF0008431060704770B5044606E0F748C4
:100730003030056805F0450000B100E0F7E700BF84
:10074000042004F05DFB20B1042004F064FB0320CE
:1007500070BD012004F054FB20B1012004F05BFBCC
:100760000120F5E7E9480C300068A04201D01020D4
:10077000EEE740F2FF50E54934310860E3481030BD
:10078000006808210840C0B2E2E72DE9FC410746B5
:100790000D46002600240020009001900820DC492E
:1007A000086010204860402088600020C8604FF436
:1007B00080600861084604F090FA1020FFF7B4FF4B
:1007C000044614B12046BDE8FC81D24800880004EC
:1007D000CF49086037204860402088600020C8600A
:1007E0004FF480600861084604F077FA3720FFF77D
:1007F0009BFF04460CB12046E5E74FF0FF30C649A9
:10080000086008204860302088600220C86000200E
:10081000086101204861084604F08BFA0020BC49B9
:10082000086033204860402088600020C8604FF492
:1008300080600861084604F050FA3320FFF774FF27
:1008400004460CB12046BEE70CE04FF4001004F063
:10085000D7FA38B104F093FA4DF82600761C022E30
:1008600000D307E0A9483030006840F22A61084010
:100870000028EAD000BF082004F0C2FA20B1082006
:1008800004F0C9FA04209EE7022004F0B9FA20B16E
:10089000022004F0C0FA022095E7202004F0B0FA0C
:1008A00020B1202004F0B7FA06208CE74FF4007046
:1008B00004F0A6FA28B14FF4007004F0ACFA072057
:1008C00081E740F2FF5004F0A6FA00980006009974
:1008D00001F47F4140EA0120009901F47F0140EAE0
:1008E0001120009940EA11606860019800060199A2
:1008F00001F47F4140EA0120019901F47F0140EABF
:100900001120019940EA1160286020465BE77CB520
:100910000546002400200090019000260DB102261B
:1009200000E0002679481030006800F0007008B13F
:100930000E207CBD7749098888B26946FFF725FFFC
:1009400004460CB12046F4E7019800F4802060B31F
:100950007048008800046E490860372048604020D5
:1009600088600020C8604FF480600861084604F089
:10097000B4F93720FFF7D8FE04460CB12046D8E77B
:100980006348066006206249486040208860002075
:10099000C8604FF480600861084604F09EF90620A4
:1009A000FFF7C2FE04462046C3E72520C1E770B525
:1009B0000446002559480078032801D1272070BD3E
:1009C0005648007838B155480078012803D053487C
:1009D0000078022818D1022C01D32720EFE7E0B2DB
:1009E000FFF795FF05467DB94848006820F4C050E0
:1009F0004649086008460068A1B240EAC120434960
:100A000008600846006808602846D8E710B5044624
:100A10003F48046007203E4948604020886000202D
:100A2000C8604FF480600861084604F056F907205A
:100A3000FFF77AFE10BDF0B5014600200022374BCB
:100A40001B7881F85630334B1B88A1F85430344B57
:100A50001B681A0E93090B70C2F383034B7002F0EC
:100A600003038B702E4B1B68C3F30742CA702C4BD9
:100A70001B88C3F307220A71294B1A784A715B68F5
:100A80001A0E1301CB80264B5B68C3F30742CB8859
:100A900043EA1213CB8002F00F030B72204B9B88AA
:100AA000C3F30722D3094B72C2F380138B72C2F3D4
:100AB0004013CB72C2F300130B7300234B73174B1D
:100AC0001B783BB1154B1B78012B03D0134B1B78C4
:100AD000032B5FD193071B0D0B61114B1A790B6927
:100AE00043EA82030B610E4B9B681A0E0B6943EAC3
:100AF00092130B61C2F3C2030B7502F007034B752F
:100B0000074B9B680EE0000064000020042C0140AD
:100B100048170020600000205C1700205C000020C7
:100B200074170020C3F3074253098B75C2F3820385
:100B3000CB7593075B0F0B76FA4B1B89C3F3072228
:100B40000B7E43EAD2130B760B695B1C0024C1E9D0
:100B500012340B7E9B1C012404FA03F3DC17D1E949
:100B60001256A5FB037C06FB03C305FB0433C1E956
:100B700012730C7A0123A3400B650024D1E912659E
:100B80000B6DA6FB037C05FB03C306FB0433C1E925
:100B900012732EE0E44B1B78022B2AD1E14B1A7919
:100BA00093069B0A0B61DF4B9B681A0E0B6943EAA5
:100BB00002230B61DB4B9B68C3F307420B691343B2
:100BC0000B61D84B1B89C3F307220B695B1C4FF4E5
:100BD0000074A3FB04464FF480630025A4FB037C50
:100BE00006FB03C304FB0533C1E912734FF4007322
:100BF0000B65C2F3801301F8193F93065B0E4B702F
:100C0000C84B1A7A4B7843EAD2134B7002F07F0339
:100C10008B70C44BDB681A0ED309CB70C2F341133F
:100C20000B71C2F382034B7193071B0F8B71BD4B8A
:100C3000DB68C3F307428B7943EA92138B71C2F3EB
:100C40004013CB7100230B7202F001034B72B54BC2
:100C50009B89C3F30722D3098B72C2F38013CB7233
:100C6000C2F340130B73C2F300134B73C2F381033F
:100C70008B7302F00303CB73AA4B1A7B53080B74DC
:100C800001234B74A94B1B681A0ECA741939A74B60
:100C90001B68C3F307421402CC85A44B1B88C3F323
:100CA0000722CB8D1343CB85A04B1A7814060C6317
:100CB0005B681A0E0B6B43EA02440C639B4B5B6848
:100CC000C3F307420B6B43EA02240C63974B9B88E8
:100CD000C3F307220B6B13430B63944B1A79342332
:100CE0005A54924B9B681A0E35235A548F4B9B686B
:100CF000C3F3074214068C638C4B1B89C3F3072292
:100D00008B6B43EA02448C63884B1A7A8B6B43EA01
:100D100002248C63854BDB681A0E8B6B13438B6349
:100D2000824BDB68C3F307423C235B5C43EA12144B
:100D30003C235C5413071C0DCC877C4B9B89C3F36D
:100D40000722CB8F1343CB87784B1A7B5408402361
:100D50005C54012441235C54F0BD70B500264FF46F
:100D6000803505E07248046804F0450000B103E0F6
:100D7000281EA5F10105F5D100BF15B104F004004E
:100D800028B10326042004F046F8304670BD012047
:100D900004F036F818B10126012004F03CF840F2C6
:100DA000FF5004F038F83046F0E72DE9F0410546F1
:100DB0000E464FF0000805E05D48076807F0450063
:100DC00000B100E0F8E700BF042004F019F828B1F2
:100DD000042004F020F80320BDE8F081012004F095
:100DE0000FF820B1012004F016F80120F4E7504874
:100DF00024380068A84201D01020EDE740F2FF50EF
:100E000004F009F84A482038046804F4604018B92E
:100E1000200C30804046DFE704F4005008B1132076
:100E2000DAE704F4804008B11020D5E704F400406C
:100E300008B10F20D0E74046CEE738B500240120A6
:100E4000009003F044FF08B9252038BD36480078EB
:100E5000042825D000203749086002204860C020BF
:100E600088600020C8604FF480600861084603F085
:100E700034FFFFF772FF04460CB12046E5E72C482B
:100E8000203800682949086029481C3800684860F3
:100E90002748183800688860254814380068C860FA
:100EA0002148007858B120480078012807D01E4812
:100EB0000078062803D01C480078022816D10020AC
:100EC0001C49086003204860402088600020C860FA
:100ED0004FF480600861084603F0FFFE6946032076
:100EE000FFF763FF04460CB12046AEE70E480078DA
:100EF000032821D1BDF8000000040E49086003203A
:100F00004860402088600020C8604FF4806008611D
:100F1000084603F0E2FEFFF720FF044664B12046D6
:100F200093E70000741700205C0000208417002065
:100F3000342C014048170020F848007804282AD0B3
:100F4000BDF80000F6490860BDF800000004F5494E
:100F5000086009204860C02088600020C8604FF405
:100F600080600861084603F0B8FEFFF7F6FE04460D
:100F70000CB1204669E7EC480068EC490860EA4893
:100F8000001D00684860E848083000688860E6484E
:100F90000C300068C860002057E710B506E0E24852
:100FA0002030046804F0450000B100E0F7E700BF1E
:100FB000042003F025FF20B1042003F02CFF0320C0
:100FC00010BD40F2FF5003F026FF0020F8E770B597
:100FD00000264FF4803506E0D3482030046804F042
:100FE000450000B103E0281EA5F10105F4D100BFC2
:100FF00015B104F0040028B10326042003F00BFF10
:10100000304670BD04F0400018B10026402003F0C7
:1010100002FF3046F5E770B500254FF4803404E058
:10102000802003F0EDFE00B103E0201EA4F10104D6
:10103000F6D100BF0CB9032070BD40F2FF5003F0A1
:10104000EAFE2846F8E72DE9F047002700240026AD
:101050000025A046A146B220B549087500200860C9
:1010600048608860C8600861084603F00CFE0320F1
:1010700003F029FE012003F023FE00BF12E0002050
:10108000A849086048608860C8604FF480600861C3
:10109000084603F022FEFFF7BEFF044604B903E052
:1010A000781CC7B24A2FEADB00BF14B12046BDE866
:1010B000F0874FF4D5709B490860082048604020B5
:1010C00088600020C8604FF480600861084603F023
:1010D00004FEFFF77CFF044624B901208F49087005
:1010E0004FF0804900208F49086037204860402039
:1010F00088600020C8604FF480600861084603F0F3
:10110000ECFD3720FFF710FB0446002C4BD134E0F8
:101110000020844908603720486040208860002013
:10112000C8604FF480600861084603F0D6FD3720A0
:10113000FFF7FAFA04460CB12046B8E77D4849EAC1
:10114000000078490860292048604020886000201D
:10115000C8604FF480600861084603F0BEFDFFF7E9
:101160001CFF04460CB12046A1E76F480668012029
:1011700080EAD67080F001086D1CB8F1000F03D131
:101180004FF6FF708542C3D34FF6FF70854202D3FE
:101190001B2420468BE706F08040061E32D002203A
:1011A0005E4908702EE01CE063485E49086001203B
:1011B0004860402088600020C8604FF4806008616B
:1011C000084603F08AFDFFF7E8FE04460CB120460E
:1011D0006DE755480668012080EAD67080F0010866
:1011E0006D1CB8F1000F03D14FF6FF708542DBD3C1
:1011F0004FF6FF70854202D31B24204657E7032099
:1012000046490870204652E73EB5002500240121DA
:101210004A4802F089F90121C80202F0DFF94FF4CF
:10122000F850009002208DF804008DF80500002091
:101230008DF806006946424801F0B8FE042000908F
:1012400002208DF8040000208DF8060002208DF8A1
:10125000050069463B4801F0A9FE0C2208213848E8
:1012600001F02FFF0C220921354801F02AFF0C2242
:101270000A21334801F025FF0C220B21304801F0F0
:1012800020FF0C2211462E4801F01BFF0C220221E8
:101290002C4801F016FF03F0EBFC31208DF808001C
:1012A00000208DF809008DF80A0001208DF80B0050
:1012B00002A801F08AFDFFF7C6FE044614B9FFF745
:1012C000BCFD04461CB92048FFF7B5FB044634B901
:1012D0001D49B1F854100804FFF798FB04461CB9E7
:1012E0000120FFF764FB04461CB10C48007803287A
:1012F00012D1154890F8560020B1134890F85600C6
:10130000012801D10A2500E004252846FFF704FA48
:101310000020FFF7F7F9044620463EBD5C000020A0
:101320006000002048170020142C01407417002092
:1013300030170020000010800080FF800C0040006B
:1013400000080240000C02409817002010B5002051
:1013500003F0B9FC002010BD70B590B006460C46F5
:1013600015460121880502F0DFF8FE4803F0ACFACB
:101370000021FC4803F084FBFB4802904FF0006022
:10138000019003960495A0080590002006904FF464
:1013900080600790800008908000099000200A90EB
:1013A0004FF400300B9001A9EE4803F02FFB012110
:1013B000EC4803F065FB10B070BD0146002002E070
:1013C0004910421CD0B20129FAD170472DE9F84FDB
:1013D0008146174698460A9C4FF0000AD3464D4670
:1013E0004FF0FF36B9F1000F02D12620BDE8F88F8B
:1013F0000020DD4954390860DC480078022805D116
:101400000402780A40EAC8574FEA68280020D84901
:1014100088604860401E0860012048610020C86064
:101420000861084603F085FCCF486C38006800F07E
:10143000007008B10E20D9E7002C21DDB4F5006F53
:101440001EDC601E2040D8B92046FFF7B6FF009092
:10145000C84804601020C7494860402088600020C8
:10146000C8604FF480600861084603F036FC102025
:10147000FFF75AF98246BAF1000F03D05046B5E79C
:101480002620B3E700980001B94988600846446007
:101490004FF0FF300860012048610220C860002042
:1014A0000861084603F045FCB24807601120B149C5
:1014B0004860402088600020C8604FF48060086168
:1014C000084603F00AFC1120FFF72EF98246BAF114
:1014D000000F01D0504689E7A748007800285AD16C
:1014E00003F05CFF17E04FF4004003F089FC70B19B
:1014F0004FF0000B05E09C48006845F82B000BF10D
:10150000010BBBF1080FF6D320359C4E03E00EB95A
:1015100004206BE7761E94484C38006840F22A613C
:1015200008400028DFD0082003F06AFC20B1082022
:1015300003F071FC042059E7022003F061FC20B1A4
:10154000022003F068FC022050E7202003F058FC42
:1015500020B1202003F05FFC062047E74FF4007025
:1015600003F04EFC28B14FF4007003F054FC072048
:101570003CE703E003F003FC28602D1D4FF400104E
:1015800003F03EFC0028F5D103F00AFF40F2FF50C3
:1015900003F041FC34E078480078012830D1002283
:1015A00021464846FFF7D8FE002075490870754966
:1015B0000870754908706C484438006840F22A3158
:1015C0000843694944390860012003F004FC00E045
:1015D000761E64485838006800F4005038B96A48EC
:1015E000007820B96648007808B9002EF0D10EB90D
:1015F0000420FBE66248007810B1614890F800A032
:101600005046F3E62DE9FF5F17469846DDE90E46A2
:101610004FF00009CA464FF0FF355C49009808605A
:10162000002051495439086050480078022805D1FB
:101630000402780A40EAC8574FEA682800204C495B
:1016400088604860401E0860012048610020C86032
:101650000861084603F06DFB43486C38006800F0F1
:10166000007018B10E2004B0BDE8F09F002C21DD01
:10167000B4F5006F1EDC601E2040D8B92046FFF78D
:101680009CFE83463B48046010203A494860402055
:1016900088600020C8604FF480600861084603F04D
:1016A0001CFB1020FFF740F88146B9F1000F03D072
:1016B0004846D8E72620D6E7012E69D906FB04F074
:1016C000B0F1007F01D32620CDE74FEA0B10284967
:1016D000886006FB04F048604FF0FF30086001208E
:1016E00048610220C86000200861084603F021FB21
:1016F0002048076012201F49486040208860002071
:10170000C8604FF480600861084603F0E6FA1220D2
:10171000FFF70AF88146B9F1000F01D04846A2E769
:101720001548007800287DD103F038FE35E04FF4ED
:10173000004003F065FBA0B14FF0000A07E00A4843
:1017400000681249096841F82A000AF1010ABAF151
:10175000080FF4D30D48006820300C490860074D8D
:101760001BE016E058640240802C01405C00002021
:101770005C1700204817002064000020FFFF7F0056
:10178000660000206500002067000020680000203F
:10179000B0E00DB9042066E76D1EF848006840F21D
:1017A0002A3108400028C2D0082003F029FB20B1CC
:1017B000082003F030FB042055E7022003F020FB53
:1017C00020B1022003F027FB02204CE7202003F089
:1017D00017FB20B1202003F01EFB062043E74FF447
:1017E000007003F00DFB28B14FF4007003F013FB01
:1017F000072038E709E003F0C2FAE1490968086008
:10180000DF480068001DDE4908604FF4001003F057
:10181000F7FA0028EFD14FF4807003F0F1FA20B30B
:10182000D84800E028E0007838B1D6480078012890
:1018300003D0D4480078022817D10020D24908608C
:101840000C204860402088600020C8604FF4806011
:101850000861084603F041FA0C20FEF765FF814657
:10186000B9F1000F01D04846FDE603F099FD40F2C2
:10187000FF5003F0D0FA3DE0C4480078012839D188
:1018800006FB04F100220098FFF766FD0020C04926
:1018900008700120BF4908700020BF490870B74890
:1018A0000830006840F22A310843B4490831086022
:1018B000B2480838006840F00800B04908390860AC
:1018C00000E06D1EB548006800F4005008B9002D16
:1018D000F7D10DB90420C6E600BFAF48007818B9AB
:1018E000AB4800780028F8D0A948007810B1A84883
:1018F00090F800904846B6E61CB5044600200190DA
:101900000090A748008800049F4908600D204860A7
:10191000402088600020C8604FF48060086108465D
:1019200003F0DBF995480068009002E093480068F6
:101930000090009800F045000028F7D0012003F047
:101940005FFA20B1012003F066FA01201CBD0420DB
:1019500003F056FA20B1042003F05DFA0320F5E706
:101960008648243800680D2801D01020EEE740F2A8
:10197000FF5003F050FA8148203800680190019828
:10198000C0F3432020700020E0E72DE9FF5F86B020
:1019900017469846149D00260020059004900024C8
:1019A00081460390824602900195DDF818B0DDF87B
:1019B00018B0BBF1000F03D126200AB0BDE8F09F9C
:1019C00000206E4908390860764988604860401EEA
:1019D0000860012048610020C8600861084603F0E3
:1019E000A8F966482038006800F0007008B10E20A1
:1019F000E3E764480078022805D10502780A40EA46
:101A0000C8574FEA6828002D1FDDB5F5006F1CDCB4
:101A1000681E2840C8B92846FFF7CFFC05905A48F1
:101A20000560102058494860402088600020C86048
:101A30004FF480600861084603F04FF91020FEF76C
:101A400073FE06461EB13046B7E72620B5E7544878
:101A5000008800044C4908600D20486040208860E0
:101A60000020C8604FF480600861084603F035F933
:101A70000D20FEF759FE06460EB130469DE73F4861
:101A80002038006803904FF0FF341CE0641E444887
:101A9000008800043C4908600D20486040208860B0
:101AA0000020C8604FF480600861084603F015F913
:101AB0000D20FEF739FE06460EB130467DE72F4871
:101AC000203800680390039800F4807008B9002C57
:101AD000DCD10CB9292070E72B48076018202A496F
:101AE0004860402088600020C8604FF48060086132
:101AF000084603F0F2F81820FEF716FE06460EB16F
:101B000030465AE70020234908700598000125490E
:101B10008860084645604FF0FF300860012048614A
:101B20000020C8600861084603F003F94FF0FF3455
:101B300016480078002875D103F030FC59E04FF4C6
:101B4000804003F05DF9C0B10198A0EB09002028A6
:101B500038D20198A0EB090000F0030020B90198E9
:101B6000A0EB0900800804E00198A0EB09008008C0
:101B7000401C02904FF0000A20E036E0342C014077
:101B8000680000205C00002048170020640000204E
:101B9000660000206500002067000020006402400D
:101BA000600000205C170020DBF8000003F0EBF879
:101BB0000AF1010A0BF1040B09F1040902988245AC
:101BC000F2D30FE04FF0000A05E05BF82A0003F0C3
:101BD000DAF80AF1010ABAF1080FF6D30BF1200B7B
:101BE00009F120096FF0404403E00CB90420E4E659
:101BF000641EFE48006840F21A61084000289ED02A
:101C0000082003F0FDF820B1082003F004F90420B7
:101C1000D3E6022003F0F4F828B1022003F0FBF829
:101C20000220CAE61BE0102003F0EAF820B11020E1
:101C300003F0F1F80520C0E64FF4007003F0E0F87F
:101C400028B14FF4007003F0E6F80720B5E603F082
:101C5000A7FB40F2FF50E549091D086043E0E44856
:101C6000007801283FD1402229460698FFF774FBEF
:101C70000020E0490870E0490870E0490870DB483E
:101C80000830006840F21A310843D849083108602A
:101C9000D6480838006840F00800D4490839086080
:101CA00000E0641ED648006800F4005008B9002C1B
:101CB000F7D11CB9FFF7A8FA04207EE64FF0FF34F5
:101CC00000E0641ECD48007820B9CA48007808B901
:101CD000002CF6D10CB904206FE6C648007810B18C
:101CE000C448007869E640F2FF5003F094F804A875
:101CF000FFF702FE064603E004A8FFF7FDFD0646D7
:101D00003EB99DF810000728F6D09DF8100006286F
:101D1000F2D0304651E62DE9FF5F84B0DDE912478D
:101D20000026002003900290002580468146019005
:101D300007FB04FBDDF810A0DDF810A0BAF1000FDE
:101D400003D1262008B0BDE8F09F0020A74908393C
:101D50000860AC4988604860401E08600120486106
:101D60000020C8600861084602F0E3FF9F48203861
:101D7000006800F0007008B10E20E3E7A248007888
:101D8000022808D10402DDE90601400A40EAC150F8
:101D90004912CDE90601002C1FDDB4F5006F1CDCF3
:101DA000601E2040C8B92046FFF707FB0390974804
:101DB0000460102095494860402088600020C86079
:101DC0004FF480600861084602F087FF1020FEF79C
:101DD000ABFC06461EB13046B4E72620B2E7012F21
:101DE0006FD907FB04F0B0F1007F01D32620A9E7EB
:101DF0008548007838B184480078012803D08248AB
:101E0000007802282DD18248008800047F490860AC
:101E100037204860402088600020C8604FF4806010
:101E20000861084602F059FF3720FEF77DFC0646A0
:101E30000EB1304686E77548076017207349486041
:101E4000402088600020C8604FF480600861084628
:101E500002F043FF1720FEF767FC06460EB130463E
:101E600070E76A4906980860192048604020886039
:101E70000020C8604FF480600861084602F02DFF22
:101E80001920FEF751FC06460EB130465AE703987A
:101E900000015C49886007FB04F048604FF0FF30A8
:101EA0000860012048610020C8600861084602F00F
:101EB00040FF4F480078002871D1451E03F06EFAAC
:101EC00040E0F6E04948006800F48040A8B3ABEB7E
:101ED000080020281ED2ABEB080000F0030018B960
:101EE000ABEB0800800803E0ABEB08008008401C67
:101EF00001904FF0000909E0DAF8000002F043FF1A
:101F000009F101090AF1040A08F104080198814560
:101F1000F2D30FE04FF0000905E05AF8290002F073
:101F200032FF09F10109B9F1080FF6D30AF1200ACD
:101F300008F120086FF0404504E0FFE70DB90420E8
:101F400000E76D1E2948006840F21A310840002859
:101F5000B8D0082002F054FF20B1082002F05BFF47
:101F60000420EFE6022002F04BFF20B1022002F035
:101F700052FF0220E6E6102002F042FF20B11020BE
:101F800002F049FF0520DDE64FF4007002F038FF53
:101F900030B14FF4007002F03EFF0720D2E641E07E
:101FA0004FF4807002F02CFFA0B31748007838B1CE
:101FB00015480078012803D01348007802282AD158
:101FC0000020124908600C204860402088600020F2
:101FD000C8604FF480600861084602F07EFE0C2065
:101FE000FEF7A2FB0646AEB13046ABE6342C01400C
:101FF00064000020660000206500002067000020CB
:10200000006402405C1700205C000020481700209C
:1020100060000020FFE703F0C3F940F2FF5002F038
:10202000FAFE46E0DF480078012842D107FB04F1C0
:1020300040220498FFF790F90020DB490870012046
:10204000DA4908700020DA490870DA48006840F27E
:102050001A310843D7490860D6481038006840F064
:102060000800D449103908604FF0FF3500E06D1EBC
:10207000D148006800F4005008B9002DF7D11DB90F
:10208000FFF7C2F804205DE64FF0FF3500E06D1E5B
:10209000C748007820B9C448007808B9002DF6D1A7
:1020A0000DB904204EE6C048007810B1BE48007853
:1020B00048E640F2FF5002F0AEFE02A8FFF71CFC1B
:1020C000064603E002A8FFF717FC06463EB99DF856
:1020D00008000728F6D09DF808000628F2D0304600
:1020E00030E610B5B3480838006800F4807080B35B
:1020F000AE480078012814D10020B04908600C20B7
:102100004860402088600020C8604FF4806008610B
:10211000084602F0E2FD0C20FEF706FBA24908701B
:1021200002E00020A0490870A248001F006840F4A7
:102130008070A049091F0860081D00684CF23A3100
:1021400088439C49086001209949087096480078A6
:1021500010BDFFE7022002F053FE68B1022002F03A
:102160005AFE944800684CF23A318843914908601D
:1021700002208D490870EBE7082002F041FE68B1AB
:10218000082002F048FE8B4800684CF23A31884340
:1021900088490860042084490870D9E7202002F0AB
:1021A0002FFE68B1202002F036FE824800684CF213
:1021B0003A3188437F49086006207B490870C7E7A9
:1021C000102002F01DFE68B1102002F024FE7948B4
:1021D00000684CF23A31884376490860052072491C
:1021E0000870B5E74FF4007002F00AFE70B14FF4CA
:1021F000007002F010FE6F4800684CF23A318843DC
:102200006C490860072068490870A1E700209FE733
:1022100010B5FFF766FF10BD70B50446002514B970
:102220002625284670BD664800880004634908607A
:102230000D204860402088600020C8604FF4806016
:102240000861084602F049FD0D20FEF76DFA0546CB
:102250000DB12846E6E75748283800682060284630
:10226000E0E708B5002000906846FFF7D5FF08B109
:10227000FF2008BD0098C0F34320FAE72DE9FE4F88
:1022800083460C46914600200290002625462C46A7
:10229000700240EAD5566D020BF00300F0B14FF02A
:1022A000000A18E04FF4007000904FEA4A204719E6
:1022B00046EBE0733A464348FFF788F802904FF444
:1022C00000724049584608F095FB0BF5007B0AF177
:1022D000010000F0FF0ACA45E4DB16E0B9F1010F86
:1022E00009D14FF400702A46334600905846FFF754
:1022F0006DF8029009E04FF400702A463346CDE9AC
:1023000000095846FFF77EF902900298BDE8FE8F5B
:102310002DE9FE4F81460C46924600200290002691
:1023200025462C46700240EAD5566D0209F003009E
:10233000F0B14FF0000B18E04FF40072494621480D
:1023400008F058FB4FF4007000904FEA4B204719FB
:1023500046EBE0733A461B48FFF717FB029009F57E
:1023600000790BF1010000F0FF0BD345E4DB16E030
:10237000BAF1010F09D14FF400702A46334600909C
:102380004846FFF702FB029009E04FF400702A462E
:102390003346CDE9000A4846FFF7BDFC029002989B
:1023A000BDE8FE8F6400002066000020650000206C
:1023B000670000203C2C01400064024048170020C8
:1023C00060000020F017002070B5044600BF022115
:1023D0004F4802F04BFF0028F9D021464C4802F04C
:1023E000FCFE00BF01214A4802F040FF0028F9D05E
:1023F000474802F0EFFEC5B2284670BD00B587B071
:1024000002A802F053FE00BF0121880301F0D5F8B5
:1024100000BF3820ADF814000120ADF810000220F4
:10242000ADF80E000720ADF818000020ADF80C0044
:10243000ADF80800ADF816004FF48270ADF80A0050
:102440004FF40070ADF8120000BF0121022001F02E
:102450006BF800BF00BF0121042001F065F800BF48
:1024600000BF0121042001F05FF800BF02208DF8B9
:10247000040000208DF806004FF4806000900120D9
:102480008DF8070002208DF805006946214800F00C
:102490008DFD0820009069461F4800F087FD04204C
:1024A000009069461C4800F081FD05220A21194868
:1024B00000F007FE05220321174800F002FE052266
:1024C0000221154800F0FDFD02A9114802F00AFDA5
:1024D00001210F4802F000FEFF20FFF775FF07B053
:1024E00000BD10B504460021094802F0F5FD08487A
:1024F00000884FF6C77108400549088008460088E3
:1025000040EAC40008800121014802F0E5FD10BD49
:1025100000380040000402400008024010B50446A4
:102520002046FFF751FF10BD10B50420FFF7D9FF7B
:1025300010BD10B50220FFF7D4FF10BD1CB500BFC1
:102540000121042000F0F0FF00BF00BF01210420A2
:1025500000F0EAFF00BF00BF0121042000F0E4FF0B
:1025600000BF00BF0121042000F0DEFF00BF0120FA
:102570008DF8040000208DF80600012000908DF8F1
:10258000070002208DF805006946FE4800F00EFDA8
:10259000022000906946FB4800F008FD10200090E2
:1025A0006946F84800F002FD00208DF804008DF81F
:1025B00006002020009001208DF8070002208DF8F1
:1025C00005006946EF4800F0F1FCFFF717FF1CBD5E
:1025D00070B50546002400BFEB4800680028FBD01A
:1025E000FFF7A2FF0120E8497C3108600020E7499D
:1025F000C1F884020320FFF791FF2846FFF78EFF02
:10260000FF20FFF78BFF04464FF6FF7000EA04241B
:10261000FF20FFF783FF204484B20120DA497031A4
:102620000860FFF786FF204670BD70B505460C4672
:1026300000BFD54800680028FBD0FFF775FF0120D8
:10264000D1497C3108600020D049C1F884020220C1
:10265000FFF764FF2846FFF761FF2012FFF75EFFD8
:10266000E0B2FFF75BFF0120C74970310860FFF758
:1026700060FF70BD70B5002400BFC348006800282B
:10268000FBD0FF20FFF74AFF002415E040F60401CD
:102690000020FFF7CAFF022002F06EFE2046611CF8
:1026A000CCB2642800DD0DE00020FFF791FF054665
:1026B0002946B7A002F0F4FE0020FFF789FFB0F52D
:1026C000006FE3D100BF00BFAF4800680028FBD017
:1026D000002412E04FF418410320FFF7A6FF204624
:1026E000611CCCB2642800DD0DE00320FFF770FF11
:1026F00005462946ABA002F0D3FE0320FFF768FF92
:10270000B0F5184FE6D100BF142002F035FE70BDC1
:1027100010B5002400209C496C310860142002F0A0
:102720002BFE01209949C1F8900297497031086049
:102730009649C1F8800204E0601CC4B2322002F065
:1027400004FE9148006808B9C82CF5DB142002F09B
:1027500013FEC82C01DB012010BD0020FCE710B5E2
:10276000FFF7D6FF42F220010B20FFF75EFF4FF488
:1027700002610020FFF759FF00BF8348006800286E
:10278000FBD0FFF7D1FE00207F497C310860532049
:10279000FFF7C4FEEF20FFF7C1FE6E20FFF7BEFE7D
:1027A0002420FFF7BBFE0020FFF7B8FE0020FFF754
:1027B000B5FE0020FFF7B2FE0020FFF7AFFE642059
:1027C00002F0DAFD01207149C1F8900200206E4943
:1027D0007C3108604520FFF7A1FE7820FFF79EFEC0
:1027E0006920FFF79BFE7420FFF798FE0020FFF79B
:1027F00095FE0020FFF792FE0020FFF78FFE0020DD
:10280000FFF78CFE642002F0B7FD01205E497C31A9
:102810000860002008605320FFF780FEEF20FFF7DC
:102820007DFE6E20FFF77AFE4420FFF777FE002042
:10283000FFF774FE0020FFF771FE0020FFF76EFE29
:102840000020FFF76BFE642002F096FD01204E4948
:102850007C310860002008604520FFF75FFE78208B
:10286000FFF75CFE6920FFF759FE7420FFF756FE64
:102870000020FFF753FE0020FFF750FE0020FFF777
:102880004DFE0020FFF74AFE642002F075FD012096
:102890003E49C1F8900210BD10B5FFF739FF4FF463
:1028A00002610020FFF7C1FE00BF37480068002822
:1028B000FBD0FFF739FE002033497C3108604D2002
:1028C000FFF72CFEEA20FFF729FE6D20FFF726FE1A
:1028D0005420FFF723FE0020FFF720FE0020FFF723
:1028E0001DFE0020FFF71AFE0020FFF717FE9620BE
:1028F00002F042FD01202549C1F890020820FFF7AF
:1029000067FE10BD70B5044621460720FFF78DFE17
:102910000620FFF75DFE0546284670BD70B50446EB
:102920000D4621460720FFF780FE00BF16480068CD
:102930000028FBD029460620FFF777FE70BD10B5B2
:102940000446214641F60460FFF7E8FF10BD70B56C
:102950000820FFF73DFE05460920FFF739FE044633
:1029600044F66771601A8C4239D029DCA4F58040A6
:10297000A0F5A27028B110282ED0B0F53F6F2DD051
:102980001AE02AE0000802401402414200004142DD
:102990005350495F4D4F4445203D20307825580A1B
:1029A000000000005350495F434C4F434B46203DCD
:1029B00020307825580A0000B0F5416F24D10AE094
:1029C000A0F2E67060B1A0F6FF60B0B1A0F5805053
:1029D0001938C8B909E000BF00BF00BF00BF00BF81
:1029E0007D20B5FBF0F080B270BD4FF6FF708542E0
:1029F00002D140F28350F7E700BF68014FF47A71CB
:102A0000B0FBF1F080B2EFE7E41004F00304032C14
:102A100001D1012400E00024D74800EB4410290B29
:102A200030F81100E0E710B541F60560FFF76AFFE6
:102A300010BD10B541F60660FFF764FF10BD70B51C
:102A40000546CE48006888B10020CC497C3108603A
:102A5000002404E0285DFFF761FD601CC4B2202C57
:102A6000F8DB0120C5497C31086001E0012070BD20
:102A70000020FCE770B588B0002604E000200DF8C7
:102A80000600701CC6B2202EF8DB0020FFF7A0FD68
:102A9000044644F0080444F0040421460020FFF7F3
:102AA000C4FD00250EE06846FFF7C9FF50B905F1E7
:102AB000200085B20020FFF78BFD044604F00800DB
:102AC00000B902E0B5F5006FEDDB00BFB5F5006FB2
:102AD00019DAFFF7AEFFC4B2002604E0E0B20DF849
:102AE0000600701CC6B2202EF8DB002506E0684602
:102AF000FFF7A5FF10B905F1200085B240F60400EC
:102B00008542F4DB01E0FFF7B5FD0820FFF760FD2B
:102B100004460920FFF75CFD204484B21CB1FFF796
:102B2000F7FDFFF7A7FD08B070BD10B50021042028
:102B3000FFF77BFD00210420FFF777FD10BD10B5E6
:102B400000240420FFF744FD0446204610BD2DE973
:102B5000F0470446884600252DE02846691C8DB2C2
:102B600034F810702846691C8DB234F8106006F4F1
:102B7000004088B1C6F30E062846691C8DB234F8B1
:102B8000109003E0F8B24946FFF74FFD301EA6F162
:102B900001018EB20FD0F5E708E02846691C8DB21E
:102BA00034F81090F8B24946FFF73FFD301EA6F109
:102BB00001018EB2F1D14545CFDBBDE8F08770B59C
:102BC00005460024C5F1FE0084B24FF6FF7000EA0E
:102BD0000424C5F1FE00204484B221460B20FFF7F7
:102BE00024FD70BD2DE9F04706460F4690461D4670
:102BF0000024A5F108004FFA80F909F00F044FF600
:102C0000FF7000EA041408F00F0004444FF6FF7050
:102C100000EA041407F00F0004444FF6FF7000EAC6
:102C2000041406F00F00204484B221460220FFF76E
:102C3000FCFCBDE8F08770B505460020FFF7C8FC36
:102C4000044624F0100424F0800405F0010008B1CB
:102C500044F0100405F0020008B144F0800421465D
:102C60000020FFF7E2FC70BD10B5044610214CF2C5
:102C70001700FFF753FE21014CF21900FFF74EFE3B
:102C800010BD10B53E490878FFF799FF3C4C2379F9
:102C9000E278A1786078FFF7A5FF21464879FFF731
:102CA000CAFF21468879FFF7DFFF10BD2DE9F84301
:102CB00081464FF0000800254FF40B7007F068FCC8
:102CC00007464FF4805007F063FC064639462DA0B6
:102CD00002F0E6FB31462EA002F0E2FB06B107B996
:102CE000FF2529462EA002F0DBFB002D3AD1FFF78D
:102CF000C1FEFFF7C6FFFFF718FF0122494638461D
:102D000004F0B0F80446214628A002F0C9FB44BBF9
:102D1000FFF70FFC1EE06B464FF4805231463846F9
:102D200004F0A8F904464FF0000800BF06EB0800C5
:102D3000FFF785FE18B908F120001FFA80F8B8F5F2
:102D4000805FF3DBBDF80000B0F5805F00D10CB10F
:102D5000002501E0002DDED000BF384604F0A6FBC0
:102D600000E0FF25304607F0B8FC384607F0B5FC18
:102D70002846BDE8F883000086C5000814024142D9
:102D80006C000020666D7033203D2025640A000031
:102D900064617461627566203D2025640A0000004C
:102DA0007276616C203D2025640A0000665F6F70BA
:102DB000656E20726573203D2025640A00000000C6
:102DC00032490143324A1160704770B50021002337
:102DD0000F22C4781CB32E4C246804F4E064C4F5BC
:102DE000E064C4F30721C1F10404E3B20A4144786A
:102DF0009C40E1B28478144021430C07210E254CFD
:102E000005786155047804F01F050124AC4005786D
:102E10006D11AD0005F1E025C5F8004109E0047829
:102E200004F01F050124AC401B4D0678761145F8CF
:102E3000264070BD194A0A400243154B1B1F1A60F9
:102E4000704739B1124A121D12680243104B1B1D04
:102E50001A6006E00E4A121D126882430C4B1B1DBD
:102E60001A607047042808D14FF0E021096941F049
:102E700004014FF0E022116107E04FF0E021096901
:102E800021F004014FF0E022116170470000FA05C3
:102E90000CED00E000E400E080E100E080FFFF1FB7
:102EA00010B504469848844208D10121084600F034
:102EB000A6FB0021012000F0A2FB76E093488442AB
:102EC00008D10121022000F09AFB0021022000F02D
:102ED00096FB6AE08E48844208D10121042000F06C
:102EE0008EFB0021042000F08AFB5EE089488442CA
:102EF00008D10121082000F082FB0021082000F009
:102F00007EFB52E08448844208D10121102000F069
:102F100076FB0021102000F072FB46E07F488442DF
:102F200008D10121202000F06AFB0021202000F0C0
:102F300066FB3AE07A48844208D10121402000F043
:102F40005EFB0021402000F05AFB2EE075488442D1
:102F500008D10121802000F052FB0021802000F0E8
:102F60004EFB22E07048844208D10121801500F018
:102F700046FB0021A01500F042FB16E06B4884429E
:102F800008D10121401500F03AFB0021601500F046
:102F900036FB0AE06648844207D10121001500F0A3
:102FA0002EFB0021201500F02AFB10BDF0B50A46CB
:102FB00000210023002400BF3DE0012505FA01F3B4
:102FC000156805EA03049C4234D105684F000326C6
:102FD000BE40B543056015794E00B54006683543DF
:102FE00005601579012D02D01579022D16D185685D
:102FF0004F000326BE40B543856055794E00B5406D
:10300000866835438560456801268E40B543456036
:10301000456896798E40B6B235434560C5684F0025
:103020000326BE40B543C560D5794E00B540C6689D
:103030003543C560491C1029BFD3F0BD4FF6FF7161
:1030400001600021017141718171C171704708B542
:103050004FF480320092009A0A430092009AC261B3
:10306000C161009AC261C2690092C269009208BD42
:103070000246002013690B400BB1012000E0002044
:1030800070470146086980B27047024600205369C4
:103090000B400BB1012000E0002070470146486959
:1030A00080B2704701837047418370470AB1018342
:1030B00000E0418370474161704742694A40426184
:1030C0007047F0B5002300244D07ED0E02FA05F31A
:1030D000CE1000F1200555F826504E07F70E0F26AA
:1030E000BE40B543CF1000F1200646F82750CE1061
:1030F00000F1200555F8265045EA0304CE1000F1F2
:10310000200545F82640F0BD0000024000040240C2
:1031100000080240000C024000100240001402406F
:1031200000180240001C024000200240002402401F
:10313000002802400948804709480047FEE7FEE7AB
:10314000FEE7FEE7FEE7FEE7FEE7FEE7FEE7FEE757
:1031500004480549054A064B7047000091050008E0
:103160008901000828970020289D00202899002028
:1031700028990020F948006840F00100F7490860EC
:103180000020F64908310860F4480068F449084016
:10319000F2490860F348091D0860F348EF4984319B
:1031A0000860F0481038091D0860EC48006820F4F9
:1031B0008020EA4908600020E8490C310860E749AE
:1031C0008C31086070470021E44A921C117011464E
:1031D0000870704710B501460022002300204A11F4
:1031E000012A02D1DD4C236808E0022A03D1DB4C1E
:1031F0007034236802E0D94C7434236801F01F0254
:10320000012494401C400CB1012000E0002010BDBE
:1032100038B5002000900024002500BF3120FFF7C2
:10322000D9FF05460098401C00900098B0F5A04FCB
:1032300001D0002DF2D03120FFF7CCFF08B10124DE
:1032400000E00024204638BD01460020C34A106833
:1032500020F0F80040EAC10010607047C3490860E0
:1032600070470021BD4A703211701170012802D0E0
:1032700004280AD104E00121B84A7032117005E037
:103280000521B64A7032117000E000BF00BF7047E0
:10329000B7490860704770B5049C41EA8215012661
:1032A000C6EB530645EA0645054345EA0465AB4EC1
:1032B000361D356070BDAD4908667047820142EA2F
:1032C0000172A64B84331A607047A849886670471C
:1032D00010B5830143EA016343EA02739F4C8834CB
:1032E000236010BDA14908677047A049C8647047B2
:1032F00002460020994B0833186820F0EC6042EA3F
:1033000001031843954B08331860704702460020AC
:10331000924B0833186820F0784042EA01031843C2
:103320008E4B083318607047014600208B4A0832E4
:10333000106820F003000843106070478748083089
:10334000006800F00C00704701460020834A0832F4
:10335000106820F0F000084310607047014600201C
:103360007E4A0832106820F4E0500843106070472D
:1033700001460020794A0832106820F4604040EA93
:10338000C10010607047F0B5002100220024022522
:1033900000260223714F08373F6807F00C0121B166
:1033A000042905D0082937D105E0724F076036E0BF
:1033B000714F076033E0694F3F1D3F68C7F3805688
:1033C000664F3F1D3F6807F03F036EB16A4FB7FB82
:1033D000F3F7DFF888C10CF1040CDCF800C0CCF383
:1033E000881C07FB0CF40CE0624FB7FBF3F7DFF827
:1033F0006CC10CF1040CDCF800C0CCF3881C07FB9A
:103400000CF4564F3F1D3F68C7F301477F1C7D00FA
:10341000B4FBF5F7076002E0564F076000BF00BF3E
:103420004E4F08373F6807F0F0010909534F7A5CA7
:103430000768D7404760494F08373F6807F4E051B5
:10344000890A4E4F7A5C4768D7408760434F0837F8
:103450003F6807F46041490B484F7A5C4768D740A2
:10346000C760F0BD002100F44072B2F5407F0AD180
:103470003A4A0832116821F4F811414A02401143D6
:10348000364A08321160354A70321268C0F30B03B5
:103490001A43324B70331A6070473549443908601B
:1034A00070473349403908607047364908607047B3
:1034B00001460020294A8C32106820F01F004A1E65
:1034C0001043264A8C321060704701460020234A80
:1034D0008C32106820F4F8504A1E40EA02201F4A3D
:1034E0008C3210607047014600201C4A8C321068F4
:1034F00020F4401008431060704701460020174A2E
:103500008C32106820F44000084310607047014678
:103510000020124A8C32106820F4403008431060BA
:10352000704719490860704739B10C4A3032126847
:1035300002430A4B30331A6006E0084A3032126800
:103540008243064B30331A607047F9B1034A343274
:1035500012680243014B34331A601CE00038024009
:10356000FFFFF6EA10300024003000200000474240
:10357000800E47420024F40000127A0074000020FC
:10358000FFFCFF0F5C014742E01147428F4A12687F
:1035900082438E4B1A60704739B18C4A121D1268F3
:1035A00002438A4B1B1D1A6006E0884A121D1268EE
:1035B0008243864B1B1D1A60704739B1834A0C3217
:1035C00012680243814B0C331A6006E07F4A0C32CA
:1035D000126882437D4B0C331A60704739B17B4AC5
:1035E000103212680243794B10331A6006E0774AB2
:1035F000103212688243754B10331A60704739B12C
:10360000724A243A12680243704B243B1A6006E067
:103610006E4A243A126882436C4B243B1A6070470E
:1036200039B16A4A203A12680243684B203B1A605B
:1036300006E0664A203A12688243644B203B1A60D7
:10364000704739B1614A1C3A126802435F4B1C3B18
:103650001A6006E05D4A1C3A126882435B4B1C3BD1
:103660001A60704739B1594A143A12680243574BED
:10367000143B1A6006E0554A143A12688243534BD1
:10368000143B1A60704739B1504A103A126802432D
:103690004E4B103B1A6006E04C4A103A12688243C7
:1036A0004A4B103B1A60704739B1484A1C321268C5
:1036B0000243464B1C331A6006E0444A1C3212682F
:1036C0008243424B1C331A60704739B13F4A203263
:1036D000126802433D4B20331A6006E03B4A203219
:1036E00012688243394B20331A60704739B1374A28
:1036F000243212680243354B24331A6006E0334A01
:10370000243212688243314B24331A60704739B136
:103710002E4A2C32126802432C4B2C331A6006E0DE
:103720002A4A2C3212688243284B2C331A60704785
:1037300039B1264A303212680243244B30331A60C2
:1037400006E0224A303212688243204B30331A603E
:103750007047012808D11D493C31096841F0080132
:103760001A4A3C32116007E018493C31096821F0DF
:103770000801164A3C321160704739B1134A273AA2
:1037800012780243114B273B1A7006E00F4A273A82
:10379000127882430D4B273B1A7070470B4840301C
:1037A000006840F080700949403108607047014668
:1037B0000020064A283A12680A400AB1012000E0B7
:1037C000002070470149263908707047343802409C
:1037D00010B50446FA48844208D101211020FFF7B1
:1037E00052FF00211020FFF74EFF57E0F5488442BA
:1037F00009D101214804FFF735FF00214FF40030C3
:10380000FFF730FF4AE0F048844209D101218804E3
:10381000FFF728FF00214FF48020FFF723FF3DE052
:10382000EA48844209D10121C804FFF71BFF0021A7
:103830004FF40020FFF716FF30E0E548844209D13D
:1038400001210805FFF70EFF00214FF48010FFF75C
:1038500009FF23E0DF48844208D101212020FFF73F
:1038600012FF00212020FFF70EFF17E0DA48844204
:1038700009D101218807FFF7F5FE00214FF08040B4
:10388000FFF7F0FE0AE0D548844207D10121400548
:10389000FFF7E8FE00216005FFF7E4FE10BD2DE90B
:1038A000FF4705460E460024A14600BFA046B0894A
:1038B00000B100BF2C8A24F44054F08804432C82C9
:1038C000AC8941F20C608443B08831890843718926
:1038D00008430443AC81AC8A24F44074B0890443A7
:1038E000AC826846FFF74FFDB548854202D0B94823
:1038F000854202D1DDF80C9001E0DDF80890A8893E
:1039000000F4004040B109EBC90000EB0910316838
:103910004900B0FBF1F707E009EBC90000EB091023
:1039200031688900B0FBF1F76420B7FBF0F00401C7
:103930002009642101FB1078A88900F4004040B1FF
:10394000322000EBC800B0FBF1F000F007000443A8
:1039500008E0322000EB08106421B0FBF1F000F029
:103960000F0004432C81BDE8FF874FF4165101601E
:1039700000218180C18001810C2141810021818150
:10398000704710B502460020108A20F470600B8842
:103990004C8823438C882343CC88234318431082CC
:1039A00010BD0021018041808180C180704721B11C
:1039B000828942F40052828104E082894DF6FF73CD
:1039C0001A4082817047028B02F47F420283028B8D
:1039D0000A430283704721B1828942F40042828106
:1039E00003E08289C2F30E028281704721B1828A8C
:1039F00042F40062828204E0828A4FF2FF731A402E
:103A000082827047C1F3080282807047014688882D
:103A1000C0F308007047028A4FF6F0731A40028222
:103A2000028A0A430282704721B1828942F002026F
:103A3000828104E082894FF6FD731A4082817047CB
:103A400082894FF2FF731A40828182890A43828100
:103A50007047028A4FF6DF731A400282028A0A43D5
:103A60000282704721B1028A42F48042028204E05D
:103A7000028A4BF6FF731A4002827047818941F037
:103A800001018181704721B1828A42F0080282825D
:103A900004E0828A4FF6F7731A4082827047028BE5
:103AA000D2B20283028B42EA01220283704721B123
:103AB000828A42F02002828204E0828A4FF6DF731B
:103AC0001A408282704721B1828A42F010028282BB
:103AD00004E0828A4FF6EF731A4082827047828A2E
:103AE0004FF6FB731A408282828A0A4382827047B1
:103AF00021B1828A42F00202828204E0828A4FF679
:103B0000FD731A40828270471AB1838A0B43838205
:103B100002E0838A8B4383827047F0B5034600241A
:103B200000260025002040F66A17B94200D100BFE8
:103B30001846C1F3421401F01F06012707FA06F5E3
:103B4000012C01D10C3004E0022C01D1103000E036
:103B500014301AB107682F43076002E00768AF43CB
:103B60000760F0BD02460020B1F5007F00D100BF24
:103B700013880B400BB1012000E00020704701F4D6
:103B80000072B2F5007F00D100BFCA4302807047C7
:103B900070B50246002400230025002040F66A1676
:103BA000B14200D100BFC1F3421501F01F0301264D
:103BB00006FA03F3012D13D19689334017E0000074
:103BC000001001400044004000480040004C00400C
:103BD000005000400014014000780040007C00408C
:103BE000022D02D1168A334001E0968A33400C122E
:103BF000012606FA04F41688344013B10CB10120F2
:103C000000E0002070BD10B50022002340F66A14C9
:103C1000A14200D100BF0A1201249440A3B2DC43A8
:103C2000048010BD10B50446FE48844208D101212D
:103C30000846FFF728FD00210120FFF724FD9DE045
:103C4000B4F1804F08D101210846FFF70BFD002198
:103C50000120FFF707FD91E0F348844208D10121DC
:103C60000220FFF7FFFC00210220FFF7FBFC85E0AC
:103C7000EE48844208D101210420FFF7F3FC002123
:103C80000420FFF7EFFC79E0E948844208D10121E4
:103C90000820FFF7E7FC00210820FFF7E3FC6DE0B8
:103CA000E448844208D101211020FFF7DBFC002109
:103CB0001020FFF7D7FC61E0DF48844208D10121E2
:103CC0002020FFF7CFFC00212020FFF7CBFC55E0A0
:103CD000DA48844208D101210220FFF7D4FC0021F8
:103CE0000220FFF7D0FC49E0D548844209D10121E8
:103CF0000804FFF7C8FC00214FF48030FFF7C3FC35
:103D00003CE0D048844209D101214804FFF7BBFCC4
:103D100000214FF40030FFF7B6FC2FE0CA48844280
:103D200009D101218804FFF7AEFC00214FF4802067
:103D3000FFF7A9FC22E0C548844208D101214020B8
:103D4000FFF790FC00214020FFF78CFC16E0C048F4
:103D5000844208D101218020FFF784FC00218020CB
:103D6000FFF780FC0AE0BB48844207D1012180159F
:103D7000FFF778FC0021A015FFF774FC10BD0022AE
:103D80000288A84B98420ED0AC4B98420BD0B0F1B1
:103D9000804F08D0A44B984205D0A44B984202D043
:103DA000A34B984204D14FF68F731A404B881A43A5
:103DB000A04B984207D0A04B984204D04FF6FF4347
:103DC0001A400B891A4302804B68C3620B88038533
:103DD000944B984202D0994B984201D18B7A03863A
:103DE0000123838270474FF0FF3141600021018041
:103DF00001814180817270470185828270470A4645
:103E0000002101884FF68F731940114301807047DC
:103E100041627047C16270470146486A7047014677
:103E2000088D704721B1028842F00202028004E04E
:103E300002884FF6FD731A400280704721B1028854
:103E400042F00402028004E002884FF6FB731A403D
:103E50000280704721B1028842F08002028004E0B3
:103E600002884FF67F731A400280704702884FF62F
:103E7000F7731A40028002880A4302807047028862
:103E80004FF6FF431A40028002880A4302807047BF
:103E900021B1028842F00102028004E002884FF65C
:103EA000FE731A400280704770B500240022002380
:103EB000058C4FF6FE7635400584028C8388048B92
:103EC0004FF68F752C40B51E2C400D882C43751E67
:103ED0002A408D892A434D882A43524DA84202D058
:103EE000564DA84213D14FF6F7752A40CD892A4383
:103EF0004FF6FB752A408D882A434FF6FF652B400D
:103F00004FF6FF552B400D8A2B434D8A2B43838060
:103F100004838D684563028470BD70B5002400225F
:103F20000023058C4FF6EF7635400584028C83889C
:103F3000048B48F6FF752C404FF6FF452C400D884A
:103F40004FF6FF7606EA05252C434FF6DF752A402B
:103F50008D8906EA05152A434D8806EA05152A4388
:103F6000304DA84202D0354DA8421DD14FF67F7585
:103F70002A40CD894FF6FF7606EA05152A434FF60B
:103F8000BF752A408D8806EA05152A434FF6FF358E
:103F90002B404FF2FF752B400D8A06EA85052B4317
:103FA0004D8A06EA85052B43838004838D688563EB
:103FB000028470BD70B5002400220023058C4FF6EA
:103FC000FF6635400584028C8388848B4FF68F759D
:103FD0002C404FF6FC752C400D882C434FF6FF55B6
:103FE0002A408D894FF6FF7606EA05252A434D883B
:103FF00006EA05252A430B4DA84202D00F4DA842E0
:1040000038D14FF2FF752A40CD894FF6FF7606EA88
:1040100005252A434FF6FF352A408D8806EA0525F7
:104020002A4319E00000014000040040000800405D
:10403000000C00400010004000140040000401404B
:104040000040014000440140004801400018004089
:10405000001C0040002000404EF6FF752B404DF63E
:10406000FF752B400D8A06EA05152B434D8A06EA9B
:1040700005152B43838084838D68C563028470BDDE
:1040800070B5002200230024058C4EF6FF763540E3
:104090000584038C8488828B48F6FF752A404FF68E
:1040A000FF452A400D884FF6FF7606EA05252A438C
:1040B0004DF6FF752B408D8906EA05352B434D885B
:1040C00006EA05352B43FE4DA84202D0FD4DA8421D
:1040D00008D14BF6FF752C400D8A4FF6FF7606EAA5
:1040E00085152C43848082838D680564038470BDAC
:1040F000002101804180818081608181C1810182B4
:104100004182704770B503460020002418461830DD
:1041100001258D40ACB21D8CA5431D8409B1082931
:104120000AD100EB610005684FF68F7635400560D7
:104130000568154305600FE00D1FC5F34E052844C3
:10414000056848F6FF763540056005684FF6FF764E
:1041500006EA02263543056070BD416370478163FE
:104160007047C1637047016470470A460021018BA4
:104170004FF68F7319401143018370470A4600219F
:10418000018B48F6FF7319404FF6FF7303EA0223D1
:104190001943018370470A460021818B4FF68F73C4
:1041A00019401143818370470A460021818B48F6EC
:1041B000FF7319404FF6FF7303EA0223194381830B
:1041C00070470A460021018B4FF6F77319401143DF
:1041D000018370470A460021018B4FF2FF7319409B
:1041E0004FF6FF7303EA02231943018370470A461F
:1041F0000021818B4FF6F77319401143818370477B
:104200000A460021818B4FF2FF7319404FF6FF736E
:1042100003EA02231943818370470A460021018B78
:104220004FF6FB7319401143018370470A46002182
:10423000018B4FF6FF3319404FF6FF7303EA022359
:104240001943018370470A460021818B4FF6FB73A7
:1042500019401143818370470A460021818B4FF634
:10426000FF3319404FF6FF7303EA0223194381839A
:1042700070470A460021018B4FF67F7319401143A6
:10428000018370470A460021018BC1F30E014FF6EE
:10429000FF7303EA02231943018370470A46002192
:1042A000818B4FF67F7319401143818370470A4613
:1042B0000021818BC1F30E014FF6FF7303EA022345
:1042C0001943818370470A460021018C4FF6FD7324
:1042D00019401143018470470A460021018C4FF6B2
:1042E000F77319401143018470470A460021018C7D
:1042F0004FF6DF7319404FF6FF7303EA02131943B9
:10430000018470470A460021018C4FF67F731940E3
:104310004FF6FF7303EA02131943018470470A46FC
:104320000021018C4FF6FF5319404FF6FF7303EA4B
:1043300002231943018470470A460021018C4FF281
:10434000FF7319404FF6FF7303EA022319430184F8
:1043500070470A460021018C4DF6FF7319404FF655
:10436000FF7303EA023319430184704730B5002319
:1043700001248C40A3B2048C9C430484048C02FA74
:1043800001F5ADB22C43048430BD30B500230424C4
:104390008C40A3B2048C9C430484048C02FA01F583
:1043A000ADB22C43048430BD828B4FF2FF331A40F0
:1043B0008283828B4FF6FF7303EA01231A438283C1
:1043C0007047F0B50C461546002100220026078CE8
:1043D0004EF6FF7C07EA0C070784818B028C4FF6B0
:1043E000FF7707EA043640F6FF4739404FF6FF777C
:1043F00007EA052739434FF6FF7707EA03373943C2
:1044000045F6FF773A4046F480573A438183028469
:10441000F0BD828B4FF6F3731A408283828B0A437E
:1044200082837047F0B50C46154600210022002615
:10443000078C4FF6FF6C07EA0C070784818B028C10
:104440004FF6FF7707EA04264FF60C7739404FF610
:10445000FF7707EA03172F4339434FF2FF573A40DC
:1044600046F480773A4381830284F0BD028B4FF299
:10447000FF331A400283028B4FF6FF7303EA0123D6
:104480001A4302837047F0B50C46154600210022FE
:104490000026078C4FF6EF7C07EA0C070784018B98
:1044A000028C4FF6FF7707EA041640F6FF473940C3
:1044B0004FF6FF7707EA033739434FF6FF7703E0FC
:1044C000000001400004014007EA052739434FF688
:1044D0005F773A4046F010073A4301830284F0BD0B
:1044E000028B4FF6F3731A400283028B0A43028356
:1044F0007047F0B50C46154600210022068C4FF699
:10450000FE773E400684018B028C4FF60C763140DC
:104510007E1C06EA03162E4331434FF6F5763240F1
:1045200044F00106324301830284F0BD70B50546B4
:104530000C46208850B92389A28861882846FFF755
:10454000D8FFE1882846FFF7CBFF25E02088042824
:104550000AD12389A28861882846FFF794FFE18861
:104560002846FFF783FF17E0208808280AD123890F
:10457000A28861882846FFF755FFE1882846FFF7A3
:1045800048FF09E02389A28861882846FFF719FFC0
:10459000E1882846FFF708FF70BD002101804180B7
:1045A000012181800021C180018170472DE9F04106
:1045B00005460C4600260127608808B9022600E05F
:1045C0000026A088012801D1022700E001272088C9
:1045D000A0B92389A28861882846FFF78AFFE1886D
:1045E0002846FFF77DFF23893A4631462846FFF7E4
:1045F0004AFFE1882846FFF739FF13E02389A288A4
:1046000061882846FFF73FFFE1882846FFF72EFF25
:1046100023893A4631462846FFF76BFFE188284652
:10462000FFF75EFFBDE8F0810146486B7047014629
:10463000886B70470146C86B70470146086C70472D
:104640000A884B881A438B881A43CB881A430B89F4
:104650001A434B891A438B891A43A0F844207047A8
:104660000021018041808180C1800181418181815F
:10467000704731B1B0F8442042F40042A0F8442021
:1046800005E0B0F84420C2F30E02A0F844207047C1
:1046900021B1828842F00402828004E082884FF6D1
:1046A000FB731A408280704721B1828842F0010278
:1046B000828004E082884FF6FE731A408280704741
:1046C0001AB183890B43838102E083898B43838101
:1046D00070478182704702460020138A0B400BB15D
:1046E000012000E000207047CA430282704730B5C5
:1046F0000246002000230024158A05EA010395895B
:1047000005EA010413B10CB1012000E0002030BD26
:10471000CA430282704741EA0203A0F8483070475A
:104720001AB183890B43838102E083898B438381A0
:10473000704721B1828842F00802828004E08288BA
:104740004FF6F7731A408280704701894FF6F8726E
:104750001140018170470A46002101894FF68F738D
:10476000194011430181704730B504460D46294672
:104770002046FFF7F0FF208940F00700208130BD80
:104780002DE9F04104460D4616461F46602D06D120
:104790003B46012231462046FFF775FE05E03B46C9
:1047A000012231462046FFF7A4FE29462046FFF7A6
:1047B000D2FF208940F007002081BDE8F08130B5AC
:1047C0000C4600210189C9B24FF6FF7505EA0325A1
:1047D000154325432943018130BD2DE9F0410546AC
:1047E0000E4617469846002443463A463146284628
:1047F000FFF7E5FF2C894FF6F870044044F00704FA
:104800004FF68F70044044F070042C81BDE8F081B5
:10481000F0B504460D4616461F463B46324629462D
:104820002046FFF7CCFF208940F480402081F0BD76
:1048300082884FF68F731A40828082880A43828072
:10484000704702894FF6F8731A40028102890A43C1
:104850000281704702894FF67F731A4002810289F4
:104860000A4302817047F0B50C4615461E460021EA
:10487000002200230189028B038C4FF6F877394020
:1048800021434FF6FC473A4040F201173A434FF6B6
:10489000DD773B404FF6FF7707EA06172F433B4390
:1048A000018102830384F0BD21B1828842F080023D
:1048B000828004E082884FF67F731A4082807047BE
:1048C000A0F8501070470000016821F0010101605C
:1048D0000021016041608160C1600161212141616D
:1048E000DB49884204D13D21D94A103A91608CE0DD
:1048F000D7491831884205D14FF47461D44A103A2F
:10490000916082E0D2493031884205D14FF4741170
:10491000CF4A103A916078E0CD494831884205D1BC
:104920004FF07461CA4A103A91606EE0C849603134
:10493000884204D1C749C64A103AD16065E0C449EB
:104940007831884204D1C449C14A103AD1605CE050
:10495000BF499031884204D1C049BD4A103AD16064
:1049600053E0BB49A831884205D14FF03D51B84AC8
:10497000103AD16049E0BA49884204D13D21B84A91
:10498000083A116041E0B6491831884205D14FF428
:104990007461B34A083A116037E0B1493031884256
:1049A00005D14FF47411AE4A083A11602DE0AC49BC
:1049B0004831884205D14FF07461A94A083A116024
:1049C00023E0A7496031884204D1A249A44A121FBA
:1049D00011601AE0A2497831884204D19E49A04A68
:1049E000121F116011E09E499031884204D19B4909
:1049F0009B4A121F116008E09949A831884204D1EE
:104A00004FF03D51964A121F1160704710B50022B9
:104A10000268944B1A40CC680B6823434C692343CB
:104A20008C692343CC6923430C6A23434C6A234398
:104A30008C6A23434C6B23438C6B23431A430260E1
:104A4000426922F00702D1E90B3423431A43426141
:104A50000B6943604B6883608B68C36010BD0021A5
:104A6000016041608160C160016141618161C1613A
:104A7000016241628162C162016341638163704787
:104A800021B1026842F00102026003E0026822F0F4
:104A900001020260704721B1026842F400420260E4
:104AA00003E0026822F400420260704721B102680C
:104AB00042F02002026003E0026822F0200202605D
:104AC0007047416070470146486880B2704722B124
:104AD000036843F40023036003E0036823F4002326
:104AE00003600161704721B1026842F480220260D4
:104AF00003E0026822F48022026070470AB101617B
:104B000000E0C1607047014600200A6802F40022FC
:104B10000AB1012000E000207047014600200A6829
:104B200002F001020AB1012000E0002070470146B6
:104B300000204A6902F03800704730B503460A4643
:104B400000200024464DAB4202D24149103901E019
:104B50004349103902F000550DB14C6800E00C6873
:104B6000414D2C4004EA02050DB1012000E0002077
:104B700030BD02463A4B9A4202D23548103801E025
:104B80003748103801F000531BB1374B0B40C3605E
:104B900002E0354B0B408360704710B501F0800395
:104BA0004BB122B1436943F08003436103E04369A1
:104BB00023F08003436180290BD02AB1036801F000
:104BC0001E042343036004E0036801F01E04A343B2
:104BD000036010BD70B50246002000240025204E61
:104BE000B24202D21A4B103B01E01D4B103B1F4E4C
:104BF0000E4036B11E2606EAD124166806EA0405E0
:104C000002E0566906F0800501F000560EB15C68BE
:104C100000E01C68144E344004EA010616B10DB1E0
:104C2000012000E0002070BD02460D4B9A4202D2E6
:104C30000748103801E00A48103801F000531BB152
:104C4000094B0B40C36002E0074B0B408360704789
:104C5000106002403D000020400F002000003D2079
:104C6000106402403F801CF07D0F7D0F3C0F3C0F15
:104C700010B50121C802FEF706FD00214FF40060C7
:104C8000FEF701FD10BD00216C4A116847F6FF6276
:104C90009143027D83681A4343681A43C3681A43E9
:104CA00003681A4303691A431143644A1160704749
:104CB00000210175016041608160C1600161704740
:104CC0005F49086070475D49091F086070475B488D
:104CD000001F006800F0030070470021574B1B1DA8
:104CE00002681A601A1D11686FF30A01D0E90123E6
:104CF0001A43C3681A4303691A4311434F4A0832DF
:104D0000116070470021016041608160C1600161F4
:104D100070474A480C300068C0B2704708B5014679
:104D2000002000904548103008440090009800682A
:104D300008BD0021414B203302681A601B1D4268E8
:104D40001A601A1D116821F0F701D0E902231A43F5
:104D500003691A4343691A431143384A28321160E0
:104D600070474FF0FF310160002141608160C160F8
:104D700001614161704731482C30006870472F480D
:104D80007C30006870472D497C31086070472B48A3
:104D90004430006870472B49086070472949091D55
:104DA00008607047274908310860704725490C3171
:104DB000086070472449086070472349091D08604E
:104DC000704701218143204A0832116070471E4913
:104DD0000C31086070471B4914390860704739B1BD
:104DE000164A383212680243144B38331A6006E010
:104DF000124A383212688243104B38331A607047B7
:104E0000014600200D4A303212680A400AB10120E2
:104E100000E00020704709493431086070470146BE
:104E20000020064A303212680A400AB1012000E030
:104E3000002070470149343108607047042C01405C
:104E4000A0802542A0852542AC81254210B50446AC
:104E5000FB48844208D101218014FEF714FC002194
:104E6000A014FEF710FC3CE0F648844208D1012172
:104E70000014FEF7F7FB00212014FEF7F3FB30E0EF
:104E8000F148844208D10121C013FEF7EBFB002159
:104E9000E013FEF7E7FB24E0EC48844208D101214F
:104EA0004014FEF7F0FB00216014FEF7ECFB18E065
:104EB000E748844209D101210805FEF7E4FB0021FF
:104EC0004FF48010FEF7DFFB0BE0E248844208D18C
:104ED00001214805FEF7D7FB00214FF40010FEF733
:104EE000D2FB10BD10B50022028802F441520B889B
:104EF0004C8823438C882343CC8823430C89234349
:104F00004C8923438C892343CC8923431A43028051
:104F1000838B4FF2FF74234083830B8A038210BD7F
:104F20002DE9F04F0025022300244FF00109002253
:104F30000026002794469046B0F81CA04FF2400B84
:104F40000AEA0B0AA0F81CA04FF0020AA0F820A061
:104F5000858BD1F808A0BAF1020F01D100BF82E021
:104F6000B1F804A0BAF1000F02D14FF0010901E03D
:104F70004FF00209DFF8E0A2DAF800A00AF4000A14
:104F8000BAF1000F09D0DFF8D0A2DAF800A02AF4B5
:104F9000000ADFF8C4B2CBF800A0DFF8BCA20AF127
:104FA0007C0ADAF800A0CAF3881CDFF8ACA20AF188
:104FB0007C0ADAF800A0CAF30278DFF89CA2AAF112
:104FC000040ADAF800A00AF03F07DFF88CA2AAF181
:104FD000040ADAF800A00AF4800ABAF5800F08D1B2
:104FE000DFF878A2BAFBF7FA0AFB0CFABAFBF8F67C
:104FF00007E0DFF86CA2BAFBF7FA0AFB0CFABAFB7F
:10500000F8F6B1F806A0BAF5007F0ED14FEA162ADD
:105010000AEB8A0A4FEA4A0AD1F808B0BAFBFBFA4F
:105020000AF1050A1FFA8AF20FE04FEA491AB6FBA5
:10503000FAFA0AEB8A0A4FEA4A0AD1F808B0BAFB30
:10504000FBFA0AF1050A1FFA8AF24FF00A0AB2FBCC
:10505000FAF202F00104A2EB040ACAF34F034FF67E
:10506000FF7A0AEA0424022B01DBFF2B01DD022375
:105070000024B1F806A04AEA040A4AEA030AA0F8A2
:1050800020A0B1F804A0B1F80CB04AEA0B0AB1F8BC
:1050900002B04AEA0B0AB1F800B04AEA0B0A4AF435
:1050A000006A4AEA05058583BDE8F08F002101808A
:1050B00041808180C180018141818181C18107213D
:1050C000018270470021018041808180C1800221DE
:1050D000816000218181704721B1028842F0400245
:1050E000028004E002884FF6BF731A4002807047C6
:1050F00021B1828B42F48062828304E0828B4FF67E
:10510000FF331A408283704702884FF2FF731A40C0
:10511000028002880A4302807047B1F5804F04D1B3
:10512000028842F48042028004E002884BF6FF735A
:105130001A40028070474FF6FF62914204D0028805
:1051400042F48072028004E002884FF6FF631A4046
:105150000280704721B1828842F00402828004E01C
:1051600082884FF6FB731A408280704721B1828893
:1051700042F01002828004E082884FF6EF731A40FA
:105180008280704730B500220023848B4FF24005A7
:105190002C40848302240484828B0C88B4F5007F25
:1051A00001D00C8814B94FF4807308E00C88B4F572
:1051B000407F03D00C88B4F5807F00D100238C8819
:1051C0008D892C434D882C431C4344F400642243B6
:1051D000828330BD0146888970478181704721B143
:1051E000028842F40052028004E002884DF6FF7308
:1051F0001A4002807047018841F480510180704755
:1052000002460020012901D0108B00E0908A7047EF
:105210000146088A70471AB183880B43838002E0F5
:1052200083888B438380704730B5002400230C11A2
:105230000125A540ABB2AAB185881D43858014E045
:105240000030014000380040003C00400034014084
:1052500000500140005401400838024000127A001A
:105260000024F40085889D43858030BD02460020DF
:1052700013890B400BB1012000E000207047CA43A6
:1052800002817047F0B5024600200024002300256B
:1052900001F00F070126BE40B4B20B1101269E405B
:1052A000B3B2968806EA03051689264016B10DB1F9
:1052B000012000E00020F0BD10B5002201F00F0435
:1052C0000123A3409AB2D343038110BD1FB501212E
:1052D0000220FEF772F90020ADF80C001020ADF8A6
:1052E00006004FF6FF7002905320ADF8040001A9AC
:1052F0002748FEF744FD012211462548FFF7E0F953
:105300001D208DF8000001208DF8030000208DF88D
:1053100001008DF802006846FDF757FD1FBD10B56E
:10532000FFF7D4FF10BD10B501211948FFF7DFF9D1
:1053300050B101211648FFF7EBF900211448FEF7A0
:10534000A7FD00201349087010BD10B5044604B92C
:1053500010BD611E0E48FEF75BFD01200D4908706F
:1053600001210B48FEF794FD00BF00BF09480078FB
:105370000028FAD100BFEBE710B5044603E04FF474
:105380007A70FFF7E2FF201EA4F10104F7D110BDEF
:10539000000400408400002030BF704772B67047A0
:1053A00062B6704700B587B001210846FEF7BCF829
:1053B00001211020FEF712F901A8FEF7D6FA02200B
:1053C0008DF818000002059000208DF81A000120C9
:1053D0008DF81B0002208DF8190005A95848FDF72B
:1053E000E5FD072209215648FDF76BFE02208DF8E6
:1053F00018004002059001208DF81B0002208DF856
:10540000190005A94E48FDF7D1FD07220A214C4895
:10541000FDF757FE4B48FEF7DBF94FF4E130019002
:105420000020ADF810000C20ADF80E000020ADF803
:105430000C00ADF80A00ADF8080001A94148FEF7DC
:105440002EFA25208DF8000001208DF803000020A1
:105450008DF801008DF802006846FDF7B6FC0122C8
:1054600040F225513748FEF758FB01213548FEF739
:105470009EFA07B000BD70B505460E4600240CE04C
:10548000295D3048FEF7BEFA00BF80212D48FEF7A7
:1054900069FB0028F9D0601C84B2B442F0DB70BD17
:1054A0000FB438B505A800904FF480712648009BD2
:1054B000049A05F04FFA044600200090FF2C02D118
:1054C00038BC5DF814FB2049891E0C800846018811
:1054D000801CFFF7D0FF00BFF2E710B504464FF481
:1054E00080721A49204605F085FA00201749891E66
:1054F000088010BD10B540F225511248FEF748FB58
:1055000001281AD11148801E0088FF2800D110BD43
:105510000C48FEF77BFAC1B20C48801E0288801C42
:105520008154801E0088401C0849891E0880002183
:105530000648801E0288801C815400BFE7E70000F7
:105540000000024000100140F41A0020F21900206F
:1055500001460020704770B5044624B9FBF754FE9D
:105560000546284670BD0120FCE72DE9F0410446C0
:105570000D4616461F4644B9FAB231462846FCF796
:105580007DFE80464046BDE8F0810420FBE72DE922
:10559000F04104460D4616461F4644B9FAB231465C
:1055A0002846FCF7B5FE80464046BDE8F081042061
:1055B000FBE72DE9F0470646894615465EBBB9F183
:1055C000000F09D0B9F1010F13D0B9F1020F05D0C6
:1055D000B9F1030F19D106E0002418E04FF4007070
:1055E0002860002413E00D48B0F850002880002403
:1055F0000DE00A484FF400720023D0E912713846DA
:1056000005F084F92860002401E0042400BF00BFF5
:105610002046BDE8F0870420FBE700009817002033
:10562000014648780A7842EA002070470146C87867
:105630008A7842EA00204A7842EA00200A7842EA60
:105640000020704700F8011B091200F8011B704789
:1056500000F8011B090A00F8011B090A00F8011BE8
:10566000090A00F8011B70470146F7480078884294
:105670000FDCF5484078884201DB01207047F24892
:105680008078884205DCF048C078884201DB012040
:10569000F4E70020F2E70146EB480079884219DC84
:1056A000E9484079884201DB01207047E64880796B
:1056B000884205DCE448C079884201DB0120F4E738
:1056C000E148007A884205DCDF48407A884201DB05
:1056D0000120EAE70020E8E72DE9F04106463568B9
:1056E00015F8014B2046FFF7BFFF60B115F8017BAD
:1056F0003846FFF7D0FF18B94FF0FF30BDE8F08112
:1057000007EB042084B24CB14FF46A71204603F0D9
:1057100043FA044614B94FF0FF30EFE7A046356076
:105720004046EBE72DE9F04107460C4616464FF49C
:105730006A71384603F0F8F90546FF2D0BDD022E9D
:1057400002D20020BDE8F081281204F8010B04F811
:10575000015B0220F6E705B10EB90020F2E704F87C
:10576000015B0120EEE770B5044600252079E8B121
:105770006078012304F13401226AFFF708FFA0B921
:1057800000202071A16A206A401AE16988420DD286
:10579000E07802280AD1D4E90731CA1860780123D9
:1057A00004F13401FFF7F3FE00E00125284670BD47
:1057B00070B504460D460026206AA84210D0204647
:1057C000FFF7D1FF06465EB9607801232A4604F14F
:1057D0003401FFF7CAFE10B14FF0FF3501262562F4
:1057E000304670BD70B504462046FFF7BCFF054645
:1057F000002D37D1607901282DD1002060712078EB
:10580000032828D14FF4007104F1340005F093F916
:105810008E4904F13400FFF71BFF8D4904F5067033
:10582000FFF716FF04F507706169FFF711FF04F534
:1058300008702169FFF70CFF864904F50C70FFF72B
:1058400007FF616A491C0A4621626078012304F15E
:105850003401FFF79CFE607800221146FFF7A9FE95
:1058600000B10125284670BD0246891E9069801E40
:10587000884201D8002070475389106B03FB010058
:10588000F9E72DE9F04781460C46D9F80050022C83
:1058900002D3A869A04202D84FF001085EE04FF0A1
:1058A000FF382878012804D002282CD0032851D1B1
:1058B0003CE0264606EB5606A86A00EB5621284631
:1058C000FFF776FF00B148E03046761CC0F30801D0
:1058D00005F13400475CA86A00EB56212846FFF723
:1058E00067FF00B139E0C6F3080105F13400405C00
:1058F00047EA002704F0010008B1380901E0C7F3C6
:105900000B00804629E0A86A00EB14212846FFF727
:105910004FFF00B121E040F2FF1101EA440205F11E
:1059200034015018FFF77CFE804616E0A86A00EBB1
:10593000D4112846FFF73CFF00B10EE040F2FF1102
:1059400001EA840205F134015018FFF76FFE20F0E0
:10595000704802E04FF0010800BF00BF4046BDE8BC
:10596000F0872DE9F04704460D4616464FF0020930
:10597000022D71D3A069A8426ED92078012804D0E5
:10598000022849D003280DD167E02F4607EB5707BF
:10599000A06A00EB57212046FFF70AFF8146B9F1C4
:1059A000000F00D07DE038467F1CC0F3080104F1F1
:1059B000340001EB000805F0010028B1F1B298F8BD
:1059C000000061F31F1000E0304688F8000001205D
:1059D0002071A06A00EB57212046FFF7E9FE8146BF
:1059E000B9F1000F00D05CE0C7F3080104F1340006
:1059F00001EB000805F0010010B1C6F3071006E046
:105A000098F8000000F0F000C6F30321084388F87E
:105A100000000120207144E0A06A00EB152120461F
:105A2000FFF7C6FE8146B9F1000F00D039E0B1B2F0
:105A300040F2FF1202EA450304F134029818FFF71E
:105A400001FE012020712CE0D5C5000852526141B1
:105A500072724161000055AA24E0A06A00EBD511E2
:105A60002046FFF7A5FE8146B9F1000F00D018E0EF
:105A700040F2FF1101EA850204F134015018FFF7EA
:105A8000D5FD66F31B00064640F2FF1101EA8502D0
:105A900004F1340150183146FFF7DAFD012020717E
:105AA00000BF00BF4846BDE8F0872DE9F0478146BA
:105AB0000E4617464FF00008D9F80040022E02D3D8
:105AC000A069B04202D80220BDE8F08767B100BFEC
:105AD0004FF0FF3239462046FFF743FF8046B8F1CA
