:020000040800F2
:1000000010EC0020510300080F210008CD2000084B
:100010000D210008C71E00083D2700080000000051
:10002000000000000000000000000000B90200080D
:10003000C91E000800000000FD020008252300087A
:100040006B0300086B0300086B0300086B030008D8
:100050006B0300086B0300086B0300086B030008C8
:100060006B0300086B0300086B0300086B030008B8
:100070006B0300086B0300086B0300086B030008A8
:100080006B0300086B0300086B0300086B03000898
:100090006B0300086B0300086B0300086B03000888
:1000A0006B0300086B0300086B0300086B03000878
:1000B000A1230008CD2300086B0300086B03000890
:1000C0006B0300086B0300086B0300086B03000858
:1000D0006B0300086B0300086B0300086B03000848
:1000E0006B0300086B0300086B0300086B03000838
:1000F0006B0300086B0300086B0300086B03000828
:100100006B0300086B0300086B0300086B03000817
:100110006B0300086B0300086B0300086B03000807
:100120006B0300086B0300086B0300086B030008F7
:1001300000F002F800F0B0F80AA090E8000C824449
:100140008344AAF10107DA4501D100F0A5F8AFF226
:10015000090EBAE80F0013F0010F18BFFB1A43F0A5
:1001600001031847EC1903000C1A03000A444FF06E
:10017000000C10F8013B13F0070408BF10F8014B06
:100180001D1108BF10F8015B641E05D010F8016B4B
:10019000641E01F8016BF9D113F0080F1EBF10F8AF
:1001A000014BAD1C0C1B09D16D1E58BF01F801CBD2
:1001B000FAD505E014F8016B01F8016B6D1EF9D555
:1001C0009142D6D37047000000230024002500266A
:1001D000103A28BF78C1FBD8520728BF30C148BFAA
:1001E0000B6070476E2900F04484702900F09587F9
:1001F00066292AF0088165292AF0058167292AF0F5
:10020000028161292AF0018103681B0A28BF41F09D
:100210008001692900F04681642900F04381752935
:1002200000F040816F2900F02287782900F0618773
:10023000E92900F0BD86E42900F0BA86F52900F02E
:10024000B786EF2900F01F87F82900F06087036860
:10025000DB0928BF41F08001632901F07D8173290A
:1002600001F08281E32901F08D81F32901F092816F
:10027000002070471FB500F05DFF04000020002142
:1002800029F03EFD401C60600020002129F022FD85
:10029000E0601FBD10B510BD01F016FA1146FFF762
:1002A000E9FF24F0DFFB01F03DFA03B4FFF7F2FFB2
:1002B00003BC00F01DFB0000224B19680868B0E881
:1002C000F00F80F30988BFF36F8F4FF0000080F3C9
:1002D00011884EF00D0E70470000000006480068BF
:1002E000006880F3088862B661B6BFF34F8FBFF332
:1002F0006F8F00DF00BF00BF08ED00E0EFF3098063
:10030000BFF36F8F0F4B1A6820E9F00F106008B52C
:100310004FF0BF0080F31188BFF34F8FBFF36F8F93
:1003200029F074FA4FF0000080F31188BDE808400E
:1003300019680868B0E8F00F80F30988BFF36F8F81
:10034000704700BF4C020020EFF3058070470000AB
:100350000948804709480047FEE7FEE7FEE7FEE759
:10036000FEE7FEE7FEE7FEE7FEE7FEE70448054995
:10037000054A064B70470000512300083101000870
:1003800010E6002010EC002010E8002010E800200B
:1003900053EA020C00F069802DE9F04B4FF00006A3
:1003A000002B1FBFB3FA83F503FA05F424FA05F610
:1003B0005E4012BF1643B2FA82F502FA05F4C5F1A7
:1003C00020051EBF22FA05FC44EA0C04203556EA3B
:1003D000044C4FEA144418BF641C4FF000084FF05F
:1003E0000009904271EB030C39D3002919BFB1FA0F
:1003F00081F701FA07F6B0FA80F700FA07F6C7F1BD
:1004000020071EBF20FA07FC46EA0C062037B6FB81
:10041000F4FCA7EB0507103F07F01F0BCBF12006FC
:100420000CFA0BFB2CFA06F644BFB3460026202F2D
:10043000A4BF5E464FF0000B5BEA060C08BF4FF00E
:10044000010B19EB0B09ABFB027C48EB0608C01B48
:1004500006FB02CC0BFB03CC71EB0C01C1E70B4696
:10046000024641464846BDE8F08B13B54FF0000008
:100470004FF00001AFF30080BDE81C407047000062
:100480001CB50C46064B7B4469460090204600F0A4
:1004900018FD04460020694600F026FD20461CBDDC
:1004A0005F0A00002DE9F041064600241068752916
:1004B000314616A510D000F048FA002802DA404272
:1004C00013A507E031688A0701D512A502E04907A4
:1004D00004D511A5012401E000F040FA00210A2210
:1004E00006F1240709E0B0FBF2FCB0FBF2F302FBDB
:1004F0001C00303078541846491C0028F3D123469C
:100500002A463046BDE8F04100F05ABA000000002B
:100510002D0000002B000000200000002DE9F05FFE
:10052000894604464FF0000ADFF874B1FB44C0F876
:1005300020A02046E1688847002874D0252806D0EE
:10054000D4E901219047206A401C2062F1E700268F
:100550005F462046E16888472028054607DB312DA5
:1005600005D2781910F8200C08B10643F1E7B0075E
:1005700001D526F00406C4F81CA00027C4F818A072
:100580002A2D09D0284602F00CF938B304EB87086D
:10059000303DC8F8185019E059F8041B204604EB08
:1005A00087029161E1688847012F054618D1E0690B
:1005B000002820DA26F020061DE0D8F8180000EB0D
:1005C000800005EB40003038C8F818002046E1688C
:1005D0008847054602F0E5F80028EED1012F0AD041
:1005E0002E2D08D12046E16888477F1C0546022F42
:1005F00046F02006C4DBA069002803DA404246F03A
:100600000106A061F00701D026F010066C2D0BD07A
:10061000682D09D04C2D39D06A2D35D0742D35D0A8
:100620007A2D33D016E038E0E1682F46204688471F
:10063000B842054609D16C2F26D04FF48060E1689E
:10064000064320468847054604E06C2F1AD04FF435
:10065000807006430DB3A5F14100192802D820355A
:1006600046F400664A462946204626604E46FFF775
:10067000B9FD80B101280BD0F61D26F0070000F16E
:10068000080956E74020E4E78020D8E70020D6E7B5
:1006900006F104094DE7284652E7206ABDE8F09FBD
:1006A000D80F030040EA0103024630B59B0710D182
:1006B0004FF0013400E008C208C91D1B9D4315EA34
:1006C000C41FF8D013F0FF0102F8011B0DD01B0A64
:1006D000F8E711F8013B002B02F8013B05D011F8B7
:1006E000013B002B02F8013BF3D130BD10B5431C98
:1006F00002E010F8011B71B18107FAD14FF001320D
:1007000002C88C1A8C4314EAC211F9D0C01A0A0626
:1007100003D0C01E10BDC01A10BD0A0401D0801E37
:1007200010BD0902FCD0401E10BD032A40F23080EB
:1007300010F0030C00F0158011F8013BBCF1020F22
:10074000624498BF11F801CB00F8013B38BF11F8A3
:10075000013BA2F1040298BF00F801CB38BF00F8BA
:10076000013B11F0030300F02580083AC0F0088037
:1007700051F8043B083A51F804CBA0E80810F5E71B
:10078000121D5CBF51F8043B40F8043BAFF30080FE
:10079000D20724BF11F8013B11F801CB48BF11F873
:1007A000012B24BF00F8013B00F801CB48BF00F843
:1007B000012B704710B5203AC0F00B80B1E81850FB
:1007C000203AA0E81850B1E81850A0E81850BFF43B
:1007D000F5AF5FEA027C24BFB1E81850A0E81850DA
:1007E00044BF18C918C0BDE810405FEA827C24BF2E
:1007F00051F8043B40F8043B08BF7047D20728BFBC
:1008000031F8023B48BF11F8012B28BF20F8023B0A
:1008100048BF00F8012B70474FF0000200B51346A7
:1008200094469646203922BFA0E80C50A0E80C5010
:10083000B1F12001BFF4F7AF090728BFA0E80C50C1
:1008400048BF0CC05DF804EB890028BF40F8042BBA
:1008500008BF704748BF20F8022B11F0804F18BF27
:1008600000F8012B704700004FF0013C50F8042BBA
:1008700051F8043B9A4221D1A2EB0C03934313EAB3
:10088000CC1317D150F8042B51F8043B9A4215D1E0
:10089000A2EB0C03934313EACC130BD150F8042BB7
:1008A00051F8043B9A4209D1A2EB0C03934313EA9B
:1008B000CC13DBD04FF00000704700BFD01A01BA54
:1008C000B1FA81F101F0180122FA01F0CB40C1F137
:1008D0002001DBB2C0B2C01A2CFA01F3D11A914345
:1008E00011EAC311E6D170477047704770470000A6
:1008F00001491820ABBEFEE72600020070B5044691
:1009000085690068C10601D5302600E02026C007B1
:1009100007D070BDD4E9012130469047206A401CC1
:1009200020626D1EF6D570BD70B5044685690078ED
:10093000C00707D170BDD4E9012120209047206A6B
:10094000401C20626D1EF6D570BD09684A0501D5B0
:1009500040B27047C905FCD500B2704709684A0526
:1009600001D5C0B27047C905FCD580B2704770B5DB
:100970000C460546012A05D02878800600D5EA698C
:10098000002302E0012305E05B1C934202D2E05CFD
:100990000028F9D1A869E618C01AA861286A184485
:1009A00028622846FFF7AAFF04E0D5E9012114F8E0
:1009B000010B9047B442F8D32846FFF7B5FF70BD4E
:1009C0002DE9F0470D4699469246044600F1240869
:1009D0000168880604D5E06921F01001216000E07B
:1009E0000120A84201DD471B00E00027A1697A1918
:1009F00002EB0900081AA0612078C00602D4204644
:100A0000FFF77CFF002608E0D4E901211AF8060070
:100A10009047206A401C761C20624E45F4DB20780B
:100A2000C0060AD52046FFF769FF06E0D4E9012198
:100A300030209047206A401C2062381EA7F1010731
:100A4000F4DC07E0D4E9012118F805009047206A9A
:100A5000401C2062281EA5F10105F3DC2046FFF7AB
:100A600063FF2078000602D50220BDE8F087012050
:100A7000FBE711680268006A530501D508700AE0B7
:100A8000D30501D5088006E0130603D5C217C1E9D6
:100A9000000200E008600120704770472DE9FF4F19
:100AA0000C461E464FF0FF378BB0D2E90001DDF84F
:100AB00060800A908A46C1F30A5505B93D46002177
:100AC00008464FF00000BAF1000F00F4400005DACC
:100AD00000EB80004FF4400101EA50004FEA9059CA
:100AE000B9F1010F00DDB9460A9850EA4A000ED06C
:100AF00044F61050A5F2FF3545432F14B8F1000F0E
:100B00001ED07542291E1EDDC9F100021CE0B8F19D
:100B1000010F4FF0000001D0302103E0F24305E067
:100B20002154401CB042FBDB3046002200212154FE
:100B30000B99C1F80880C1E900200FB0BDE8F08F23
:100B4000BD1B6D1CDEE74A4600DA694206A800F0CC
:100B500025FD06AB93E8070003AB83E8070050468A
:100B60000A9900F0E8FD8DE80700A0F500501F3855
:100B700000900398002D0ADD42F21F014A46084406
:100B8000002303A90390684601F051F809E0A0F59D
:100B900000504A461F38002303A90390684601F01D
:100BA0005BF88DE807000004000C03D04FF0FF3025
:100BB000410800E01046B8F1000F03D00022009277
:100BC00015461EE0751E05D400F0B8FA30326255A5
:100BD0006D1EF9D5B3460122084302D000227F1CC6
:100BE00004E02078302801D100227F1E002A0997D6
:100BF00084D01DE0112D07DA00F0A0FA30326255E2
:100C00006D1C50EA0102F5D1084302D00098C8B12A
:100C10000EE00021681E05E0235C625C63542254F0
:100C2000401E491C8142F7DBAB46A81B401E0990C1
:100C3000002004F80B000B98099AC0F80880C0E95E
:100C4000002B7AE711264FF0000857E72DE9F04F07
:100C500088460446D21D22F0070191B0D1E9000177
:100C6000CDE90A0101F06BFD02460B98C00F01D0DF
:100C70002D2007E02068810701D52B2002E02021EC
:100C800001EAC000032A099001D0072A05DB0346C8
:100C90004146204600F016FC0BE12078800601D585
:100CA000E06900E00620B8F1650F814606D0B8F192
:100CB000660F18D0B8F1670F70D131E00020B9F19C
:100CC000110F009001DB112301E009F101030AAAD1
:100CD00001A90CA8FFF7E2FEDDE90C70002609F17E
:100CE0000105834647E001204B4600904FF0004746
:100CF0000AAA01A90CA8FFF7D1FEDDE90DB00C99F5
:100D00005D46002610B909F101000D18B9EB050088
:100D100003D4C0F1FF3609F10105A5EB09002BE072
:100D2000B9F1010F01DA4FF001090020B9F1110FFB
:100D30000090484601DD112300E003460AAA01A9FC
:100D40000CA8FFF7ABFEDDE90C704D46002683468C
:100D5000207800070AD4AB4500DA5D4601A8012DD2
:100D600004DD411911F8011C302907D04F4502DA82
:100D700017F1040F04DA012082460FE06D1EEEE742
:100D8000002F02DCED1B3E4403E0781CA84200DD8E
:100D90007D1CB81B00F1010A4FF0004720780007C6
:100DA00003D4AA4501DB4FF0FF3A0021B7F1004F11
:100DB0000DF143088DF8431024D002202B23002F7F
:100DC00001DA7F422D230A21021EA0F1010000DC7E
:100DD0005FB197FBF1FC97FBF1F201FB1C7C17461E
:100DE0000CF1300C08F801CDEEE7A8F1010003701A
:100DF0002188090501D5452100E06521A0F1010800
:100E000000F8011C09980FA9A1EB0807FF1D00B10C
:100E10000120411901EBEA70A1693844081A401E0B
:100E2000A0612078C00602D42046FFF767FD09982C
:100E300028B1D4E901219047206A401C2062207823
:100E4000C00622D52046FFF759FD1EE0002E04DB28
:100E5000B34502DD01A8805D00E03020D4E9012126
:100E60009047206A401C2062761CAAF101005FEACC
:100E7000000A0AD100F05EF9C0680168405CD4E95C
:100E800001219047206A401C2062281EA5F101051F
:100E9000DCDC07E0D4E9012118F8010B9047206A57
:100EA000401C2062381EA7F10107F3DC2046FFF743
:100EB0003BFD032011B041E601694A1C026108783C
:100EC000704700B58FB0CDE901310021059105498A
:100ED0007944CDE9031011466846FFF71FFB0FB0B8
:100EE00000BD0000E5FFFFFF0A6802F8010B0A6081
:100EF000704700002DE9FF5F15468A460446DFF87B
:100F0000AC80F8440027D8E900103E46CDE9001037
:100F100010E03AF816106A4602A800F0B1FB411C36
:100F200007D02178890603D5E269391891420DD896
:100F30000744761C2078800602D5E069B84205DDBA
:100F4000AE42E6DB3AF816000028E2D1A069C01BE9
:100F5000A0612046FFF7D2FCD8E90010CDE90010CF
:100F6000002017E03AF818106A4602A800F088FB43
:100F7000B0F1FF3F81460BD000250DF1080B05E0D5
:100F8000D4E901211BF8050090476D1C4D45F7D3AE
:100F900008F10100B0428046E4DB206A3844206258
:100FA0002046FFF7C1FCBDE8FF9F000016060300C6
:100FB0002DE9F0418046D21D22F007020025D2E93A
:100FC0000002F52915A614D0011E72F1000106DAFF
:100FD0000023D0EB030063EB020211A608E0D8F86F
:100FE00000108B0701D50FA602E0490701D50EA618
:100FF00001251146002408F1240704E000F09EF8C2
:1010000030323A55641C50EA0102F7D12B46324681
:1010100021464046BDE8F041FFF7D2BC0000000089
:101020002D0000002B0000002000000030B4002143
:1010300000F1240408E002F00705D208303542EA46
:101040004372DB086554491C52EA0305F3D1046876
:10105000002310A2250707D5A40600D421B1C46936
:1010600001230DA2641EC46130BCFFF7A9BC10B5FA
:10107000044621461068FFF771FC02462046BDE891
:1010800010400023D2E7D21D22F00701D1E900234E
:10109000CCE700000000000030000000F0B40D4676
:1010A0000188090502D5214C7C4402E01F4C7C4498
:1010B0000E34002100F1240608E002F00F071209A7
:1010C000E75D42EA03721B097754491C52EA0307A1
:1010D000F3D102780023120704D5702D06D009B190
:1010E000022311342246F0BCFFF76ABC01231034FE
:1010F000F8E770B504460D4621461068FFF72EFC50
:10110000024629462046BDE870400023C6E7D21DAE
:1011100022F00703D3E90023C0E70368126843F015
:10112000200303600823C3610023B7E778040300AA
:101130007047000000487047CCE5002030B5B0F1A2
:101140000A024FEA900E71F100034EEA817EB0EB85
:101150000E0061EB91014FEA101E4EEA017E10EB8A
:101160000E0041EB11114FEA102E4EEA016E10EB0A
:101170000E0041EB11214FEA104E4EEA014E10EBEA
:101180000E0041EB1141401841F100014FEAD0003F
:1011900040EA41704FEAD10110EB80054FEA81042B
:1011A00044EA907444EB01046D1944EB0404521BAF
:1011B000A3414FF0000348BF0A3200D530BD401CA8
:1011C00041F1000130BD00002DE9F04F04460D460D
:1011D000D21D22F0070089B0D0E900974846394671
:1011E00001F0ADFA0246F80F01D02D2307E0206888
:1011F000810701D52B2302E0202101EAC0038DF8ED
:1012000020300BB1012000E00020032A824601D0EB
:10121000072A04DB2946204600F054F93FE12078F4
:10122000800601D40D2500E0E569C7F30A560D2DAF
:1012300049DA00214FEA175B08464FF00000002F03
:1012400000F4400007DA00EB80004FF4400100EBAF
:10125000D07001EA60008115012901DD4FF0FF31F6
:1012600000224FEA850CBCF1180F06D31346ACF1EF
:1012700018004FF08052C24003E04FF4801323FA6D
:101280000CF30CF10C0CBCF1200F04D3ACF1200CCE
:1012900009FA0CF001E007FA0CF000294FF00048C1
:1012A00001DD18B90FE00ED140450CD319EB02094E
:1012B0005F4121B9404502D19F4329EA0209BBEBB6
:1012C000175F00D0761C2088000502D57B48784443
:1012D00002E07A487844193808AA302302F80A3024
:1012E000037C0AF10101002E0AF1020A53546A46F6
:1012F00002DC4FF0300101E04FF031014FF0010806
:101300008DF8001002D0A6F2FF3603E059EA47013B
:1013100000D06B4E002D02DC2178090704D54FF078
:1013200002082E218DF80110C44600210BE0C7F3FE
:1013300003433F01C35C491C6D1E02F808300529B8
:1013400008F1010801DA002DF1DC00210CE000EBCE
:101350001973491C1B786D1E082902F808304FEAE2
:10136000091908F1010801DA002DF0DC21688B066B
:1013700002D516E0A8F10108E04505DD02EB0803FF
:1013800013F8013C302BF5D0B8F1000F09DD02EB6A
:10139000080313F8013C2E2B03D1090701D4A8F14F
:1013A0000108002D05DD3E2102F808106D1E08F130
:1013B0000108407C002E02F8080008F1010804DA58
:1013C0002D20764202F8080002E02B2002F80800E7
:1013D0000A214FF47A70864208F101080BDB96FB74
:1013E000F0F3303302F8083096FBF0F308F101080F
:1013F00000FB136601E0642E0CDB642096FBF0F327
:10140000303302F8083096FBF0F308F1010800FBD6
:10141000136601E00A2E06DB96FBF1F0303002F88D
:10142000080008F1010896FBF1F001FB1060303074
:1014300002F80800A16908F1010808EB050202EBB7
:101440000A00081AA0612078C00602D42046FFF7DF
:1014500055FA216A08AE01EB0A00206204E0D4E9E3
:10146000012116F8010B9047BAF1010AF7D2207852
:10147000C00602D52046FFF741FA6E4609E016F88D
:10148000010B3E280FD0D4E901219047206A401C6F
:101490002062B8F10108F2D22046FFF745FA09B000
:1014A0000320BDE8F08F206A2844206203E0D4E9DD
:1014B0000121302090476D1EEBD3F8E78D02030029
:1014C00002FCFFFF2DE9F0411F4604460326016898
:1014D000072A01F4006004DB08B116A505E016A593
:1014E00003E008B115A500E015A521F0100020606B
:1014F000A069C01EA0610FB1401EA0612046FFF789
:10150000FDF94FB1D4E9012138469047206A401CCB
:101510002062C01C206206E0206AFAE7D4E90121BB
:1015200015F8010B9047761EF8D22046FFF7FCF91C
:10153000BDE8F0814E414E006E616E00494E46009E
:10154000696E660010B5436913B1AFF3008001E026
:10155000FFF70DFA012010BD127800F124010A7086
:1015600000224A700122EDE711684FF0FF32E9E7EF
:1015700010B5436913B1AFF3008001E0FFF7BAFC87
:10158000012010BD128800F1240182840022C2844F
:101590000122EDE711684FF0FF32E9E72DE9F0474E
:1015A000814616468AB0354878440DC88DE80D004E
:1015B00032487844801C03AC0DC884E80D0041F625
:1015C0009B300844372190FBF1F290FBF1F5A5F137
:1015D000800501FB12041B3C02D56442012000E09F
:1015E0000020DFF898A080460027FA44AAF1BE0A3E
:1015F0000EE0E0070AD03246684607EB47010123B8
:101600000AEB810100F028FB8DE8070064107F1CC5
:10161000002CEED1194F7F44AE3F19E0E80715D0FA
:1016200007EB04100DF1180A90E80E008AE80E008E
:10163000C068F04201D1981908903246012306A9EA
:1016400003A800F009FB03AB83E807006D10641CDE
:10165000002DE3D14FF0010332466946B8F1000F87
:1016600003A802D000F0E3FA01E000F0F5FAC9E9BE
:101670000001C9F808200AB0BDE8F0874400030063
:1016800070B516460C46054600F044F8036893F81A
:101690000101012806D0FF2C0FD8185D68B1012088
:1016A0002C7070BDD3F807013246214603F20713B0
:1016B00003442846BDE8704018474FF0FF3070BD26
:1016C00000487047ACE500207546FFF7F9FFAE46CD
:1016D00005006946534620F00700854618B020B53E
:1016E000FEF744FEBDE820404FF000064FF0000733
:1016F0004FF000084FF0000B21F00701AC46ACE8BA
:10170000C009ACE8C009ACE8C009ACE8C0098D4626
:101710007047000010B5FFF70DFD001D10BD00BFA4
:10172000E185020010B50446AFF300802046BDE815
:101730001040FEF7BABD5FEA400C08BF91F0000F01
:101740004FEA8C234FEAC12243EA51514FEA1C5021
:1017500018BF00F5F0404FEA300018BF41F00041DB
:101760005FEA6C5C00F02980BCF1FF3F08BF40F0ED
:1017700080407047130C06BF12044FF0100C4FF05E
:10178000000C130E04BF12020CF1080C130F04BF5F
:1017900012010CF1040C930F04BF92000CF1020C27
:1017A000D30F04BF52000CF1010C11464FF00002A0
:1017B000A0F11F00A0EB0C00704711F0004F08BF14
:1017C000704731F000413FF4D5AF0B0C06BF090460
:1017D0004FF0100C4FF0000C0B0E04BF09020CF17F
:1017E000080C0B0F04BF09010CF1040C8B0F04BF94
:1017F00089000CF1020CCB0F04BF49000CF1010C65
:10180000CCF12003A0EB0C0022FA03F302FA0CF255
:1018100041EA030100F10100704720F07F4C80EAAB
:10182000030023F07F47ACEB070303F57C5300F084
:10183000004003F1FF032DE980494FEA154B09B43D
:101840004FEA144325EA0B4E24EA03480FF204261C
:1018500006EB132749083E785FEA320203FB06676E
:10186000C7F5000707FB06F64FEA54374FEAD6469E
:1018700006F1020607FB066CCCF1005C4FEA1C4740
:101880002CEA074C07FB06F40CFB06F504EB1546A7
:101890004FEA961634BF00204FF000404FEAD13790
:1018A00006FB07FC4FEA1C4C0CFB0BF7D21B03FB9F
:1018B0000CF761EB07010CFB0EF7B0EB074072EB86
:1018C00017420CFB08F734BFA2EB0742B2EB07420A
:1018D00061EB17414FEA0C444FEA910706FB07FC06
:1018E0004FEA1C4C0CFB0BF7B0EBC74072EB5732C6
:1018F00003FB0CF734BFA2EBC742B2EBC74261EB6C
:1019000057310CFB0EF7B0EBC70072EB57720CFBB4
:1019100008F734BFA2EBC702B2EBC70261EB577105
:10192000039F4FEA816141EA921104EBCC044FEA34
:10193000D1374FEA826206FB07FC42EA90124FEA77
:1019400080604FEA1C4C0CFB0BF7D21B03FB0CF71F
:1019500061EB07010CFB0EF7B0EB074072EB17428F
:101960000CFB08F734BFA2EB0742B2EB074261EB76
:1019700017414FEA8C554FEA910704EB9C2406FB74
:1019800007FC4FEA1C4C0CFB0BF7B0EBC74072EBAB
:10199000573203FB0CF734BFA2EBC742B2EBC7428E
:1019A00061EB57310CFB0EF7B0EBC70072EB5772CF
:1019B0000CFB08F734BFA2EBC702B2EBC70261EB26
:1019C000577115EB4C254FEA816141EA92114FEABC
:1019D00082624FEAD13742EA901206FB07FC44F1DB
:1019E00000044FEA80604FEA1C4C0CFB0BF7D21B43
:1019F00003FB0CF761EB07010CFB0EF7B0EB0740A4
:101A000072EB17420CFB08F734BFA2EB0742B2EBB4
:101A1000074261EB174115EB1C154FEA813141EA92
:101A200092414FEA823242EA90424FEA80304FEAD6
:101A30000C7644F1000448EA03434EEA0B484FF0A9
:101A4000000EB2EB080C71EB030724BF6246394667
:101A50004EEB0E0E4FF0000B0018524149414BEB7C
:101A60000B0BB2EB080C71EB03077BF1000B24BFEF
:101A7000624639464EEB0E0E4FF0000B00185241F5
:101A800049414BEB0B0BB2EB080C71EB03077BF1FD
:101A9000000B24BF624639464EEB0E0E51EA020798
:101AA00018BF46F0010616EB0E7655F1000254F110
:101AB000000103D5BDE88901BDE80088BDE88901C2
:101AC000BDE80048B619524141EB0101A3F1010301
:101AD000704780807F7E7D7C7B7A7978777676759B
:101AE0007473727171706F6E6E6D6C6C6B6A6A6913
:101AF0006868676666656464636362616160605FAD
:101B00005F5E5E5D5D5C5C5B5B5A5A595958585725
:101B1000575656555555545453535252525151508D
:101B200050504F4F4F4E4E4D4D4D4C4C4C4B4B4BE0
:101B30004A4A4A4949494848484747474746464626
:101B40004545454444444443434343424242424161
:101B50004141002B9C4630D477002BD01CB54FEA76
:101B6000370703B44FF010004FF01001BAF1000F27
:101B700006D0BCF1000FDCBF40F0080040F00801C7
:101B80004FF000000FBCBDE810400BF1010BBBF1A2
:101B9000010F08BF5FEA170722BF12F1010211F11E
:101BA00001014FF0004143F1000300F0004043EA1F
:101BB00000007047F9D35708D0E746EA064613F10C
:101BC000400F4FEA16461FDD13F1200FDFBF16430B
:101BD0000A46002120335B42BED0C3F1200746EA0B
:101BE000064602FA07F74FEA164646EA0706C3F129
:101BF000200722FA03F201FA07F721FA03F14FF066
:101C0000000342EA0702A7E746EA020646EA06465A
:101C10004FEA164646EA0106BCBF46EA0646360CBF
:101C20004FF000034FF000024FF0000194E72DE960
:101C3000804C9A46934670B491E8380007C831EA60
:101C4000400C48BF34EA430C03D5FFF7E6FDFFF72D
:101C500080FFF0BCBDE8008C2DE9804C9A4693468D
:101C600070B491E8380007C810F0804F08BF13F037
:101C7000804F03D100F005F8FFF76BFFF0BCBDE823
:101C8000008C20F07F4780EA030023F07F4C07EBB5
:101C90000C03A3F57C5300F00040A3F1FE0392F087
:101CA000000F00F0B38095F0000F00F077802DE971
:101CB00001494FEA11404FEA144621EA004800FB6F
:101CC00006FC24EA064708FB06F607FB08F800FBBB
:101CD00007F718EB06484CEB164C4FEA124B18EB83
:101CE00007484FEA15464CEB174022EA0B4E0BFB18
:101CF00006FC25EA06470EFB06F607FB0EFE0BFB6D
:101D000007F71EEB064E4CEB164C4FF000061EEB91
:101D1000074E4CEB174B18EB0B0840F1000018EB8B
:101D20000E0B58EB000840F100008F1A4FF0000135
:101D30003CBFC943661B14BFB5EB040C00213CBF7C
:101D4000C943F61B4FEA17444EEA8E0E27EA0445B4
:101D50004FEA1C4704FB07622CEA074C05FB07F718
:101D60000CFB05F604FB0CFC16EB074642EB174296
:101D700016EB0C4642EB1C421BEB060658EB02022C
:101D8000414146EA9E0601D5BDE80189B619524196
:101D900041EB0101A3F10103BDE801894FEA1445BC
:101DA0004FEA114724EA054621EA074C05FB07F4F0
:101DB00006FB07F70CFB06F105FB0CFC11EB0741DA
:101DC00044EB17444FEA124711EB0C4144EB1C441F
:101DD00022EA074C05FB07F206FB07F70CFB06F6A9
:101DE00005FB0CFC16EB074642EB174216EB0C46C4
:101DF00042EB1C456A1854F1000148BF7047B61900
:101E0000524141EB0101A3F10103704795F0000F2E
:101E100037D04FEA11424FEA144721EA024624EA3A
:101E2000074C02FB07F106FB07F70CFB06F402FB6D
:101E30000CFC14EB074441EB17414FEA154714EB38
:101E40000C4441EB1C4125EA074C02FB07F506FB5D
:101E500007F70CFB06F602FB0CFC16EB074645EBFE
:101E6000174516EB0C4645EB1C42121951F10001C7
:101E700048BF7047B619524141EB0101A3F101037C
:101E800070474FEA14454FEA114724EA054621EA14
:101E9000074C05FB07F106FB07F70CFB06F24FF0BA
:101EA000000605FB0CFC12EB074241EB174112EB5D
:101EB0000C4251EB1C4148BF7047921841EB0101A5
:101EC000A3F101037047FEE7704700008000A0F116
:101ED000C0400029016802D041F0010101E0024A3E
:101EE0001140016070470000FEFF0F0010B5D0E9FF
:101EF00001121143D0E903231A43114342691143EC
:101F000082691143C2691143026A1143426A114353
:101F1000826A1143C26A1143026B11430268920044
:101F2000A2F1C04211608168082907D101688900C7
:101F3000A1F1C0410A6842F040020A60416BD1E958
:101F4000002342EA03128B688C891B0243EA044394
:101F50001A430B8A42EA03520B7D896942EA036203
:101F60000A4301688900A1F1C0414A60C16AB1F524
:101F7000804F08D000686FF070418000A0F1C04031
:101F8000C0F8041110BD816BD1E9002342EA0312AD
:101F90008B680C8A1B0243EA04531A430B7D896940
:101FA00042EA036200680A438000A0F1C040C0F822
:101FB000042110BDF0B5CA78002502F00F03D20647
:101FC00001D58A7813430A784FF00F0E12F0FF0FF5
:101FD0004FF001021CD004680F8802FA05F6374062
:101FE000B74211D14FEA850C0EFA0CF724EA070725
:101FF00003FA0CF43C43CF78282F02D0482F02D0AC
:1020000002E0466100E006616D1C082DE4D3046027
:102010000C88FF2C1ED944685FF0000606F1080703
:1020200002FA07F50F882F40AF420FD14FEA860C16
:102030000EFA0CF7BC4303FA0CF73C43CF78282F79
:1020400000D14561CF78482F00D10561761C082E5C
:10205000E4D34460F0BD0246002092680A4200D0FA
:102060000120704702460020D2680A4200D00120B9
:1020700070474161704701617047000008B5012158
:10208000202000F09BF80121402000F097F801216A
:10209000080200F06FF84CF20370ADF80000182051
:1020A0008DF8030003208DF8020069460548FFF70C
:1020B00081FF4FF68070ADF8000069460248FFF7D7
:1020C00079FF08BD0014014000180140FEE7000040
:1020D00038B50121042000F071F810208DF80300BC
:1020E0000220ADF800000320074C8DF8020069467D
:1020F0002046FFF75FFF0420ADF800006946204648
:10210000FFF758FF38BD000000080140FEE77047A8
:1021100070B50F23C47801780122F4B1144C2468FF
:10212000457804F4E064C4F5E064240AC4F10406CC
:10213000E3408478B5401C402C4301F1E0212301A9
:1021400081F80034007800F01F018A4040098000C7
:1021500000F1E020C0F8002170BD01F01F008240B6
:102160004809800000F1E020C0F8802170BD000027
:102170000CED00E0044A0029516901D0014300E060
:10218000814351617047000000100240044A002959
:10219000D16901D0014300E08143D1617047000063
:1021A00000100240044A0029116901D0014300E0F7
:1021B000814311617047000000100240044A002969
:1021C000916901D0014300E08143916170470000B3
:1021D00000100240044A0029D16801D0014300E008
:1021E0008143D160704700000010024030B51F49A4
:1021F0004A6812F00C031E4A03D0042B01D0082BAE
:1022000021D002604A680F231A4C03EA1212A35C21
:102210000268DA4042604B68072505EA1323E35C55
:1022200022FA03F383604B6805EAD323E35CDA40C8
:10223000C2604968032303EA9131231F595CB2FB52
:10224000F1F1016130BD4A684B6802F470124FF041
:10225000020413F4803F04EB924202D04B689B03CC
:1022600001D5054B00E0024B5A43CAE7001002407B
:1022700000127A000D00002000093D000CB500217D
:10228000264801910091026842F4803202604FF4C6
:10229000A063026802F400320092019A521C01927B
:1022A000009A12B9019A9A42F3D10268920333D587
:1022B000012100911A490A6842F010020A600A6876
:1022C00022F003020A600A6842F002020A604168D2
:1022D000416041684160416841F48061416041680A
:1022E00021F47C114160416841F4E81141600168CA
:1022F00041F08071016001688901FCD5416821F0DD
:1023000003014160416841F0020141604168C1F34D
:1023100081010229FAD10CBD00910CBD00100240D0
:102320000020024010B5BF2080F31188BFF34F8F0B
:10233000BFF36F8F27F084FB18B104494FF0805032
:102340000860002080F3118810BD000004ED00E05B
:102350000F4810B5016841F00101016041680D4A64
:102360001140416001680C4A11400160016821F48C
:1023700080210160416821F4FE0141604FF41F019A
:102380008160FFF77BFF05494FF00060086010BDDA
:10239000001002400000FFF8FFFFF6FE08ED00E02D
:1023A00010B501218C07204600F035F8002809D02F
:1023B00005490868401C08602046BDE8104001211E
:1023C00000F01CB810BD00005C00002010B5094CE6
:1023D0000121204600F01FF800280AD001212046E4
:1023E00000F00CF80021204600F00BF80249002014
:1023F000087010BD0004004008000020C94301829D
:1024000070470029018802D041F0010101E021F06C
:1024100001010180704702460020138A92890B4215
:1024200002EA010202D0002A00D001207047002AEF
:10243000828901D00A4300E08A4382817047818407
:102440007047000030B502881B4B1C4C98420DD0E1
:10245000A0420BD0B0F1804F08D0194DA84205D052
:10246000184DA84202D0184DA84203D122F07005A1
:102470004A882A43154DA84206D0154DA84203D0DC
:1024800022F44075CA882A4302808A8882850A8895
:10249000028598420AD0A04208D00E4A904205D048
:1024A0000D4A904202D00D4A904201D1097A01862C
:1024B0000121818230BD0000002C01400034014028
:1024C0000004004000080040000C004000100040E4
:1024D0000014004000400140004401400048014019
:1024E00030B585B001210420FFF768FE0121880383
:1024F000FFF764FE18208DF813004FF40070ADF85C
:102500001000184D01248DF8124004A92846FFF749
:1025100051FD04208DF813000002ADF810008DF875
:10252000124004A92846FFF745FD0F4C204600F055
:1025300069F84FF4E130002100900C20ADF80A005A
:10254000ADF80610ADF80C10ADF80810ADF8041099
:102550006946204600F098F80121204600F048F82E
:1025600005B030BD000801400038014070B5134D82
:102570000C4629880A19B2F5807F1ED8AA1C8B1830
:10258000014622461846FEF7D0F828880C4E204413
:10259000288000240CE028198178304600F0CAF821
:1025A0008021304600F068F80028F9D0641CA4B2FD
:1025B0002888A042EFD80020288070BDF6020020B5
:1025C000003801400FB410B5084C03AAA01C0299B2
:1025D000FDF756FFA01CFEF789F881B22180A01CF0
:1025E000FFF7C4FF10BC5DF814FB0000F8030020E7
:1025F0000029818902D041F4005101E021F4005109
:1026000081817047174910B588420AD101218C0396
:102610002046FFF7DFFD2046BDE810400021FFF710
:10262000D9BD1149884202D101214C0410E00F4963
:10263000884202D101218C040AE00D49884202D16E
:102640000121CC0404E00B4988420AD101210C0588
:102650002046FFF7A7FD2046BDE810400021FFF708
:10266000A1BD10BD003801400044004000480040BA
:10267000004C0040005000400246002012880A42F0
:1026800000D001207047000030B50446008A85B0B4
:102690000D464CF6FF710840E98801432182A1896B
:1026A0004EF6F3100140A8882A8910436A890A432C
:1026B0001043A081A08A4FF6FF410840A989014339
:1026C000A1826846FFF792FD1948844201D1039820
:1026D00000E00298A189090400EBC00101EB0010A1
:1026E000296801D5490000E08900B0FBF1F06422BF
:1026F000B0FBF2F109010B096FF018056B4300EB19
:102700008300A3891D044FF0320306D503EBC000FC
:10271000B0FBF2F000F0070005E003EB0010B0FBA7
:10272000F2F000F00F000843208105B030BD00003A
:1027300000380140C1F3080181807047FEE749007D
:1027400050EAC12018BF04204A0D18BF40F0010014
:1027500040F2FF72B2EB515F08BF40F00200012867
:1027600008BF0520704770B5044600256FF02F069E
:1027700008E02068411C2160007805EB850106EB2C
:10278000410145182068007800F004F80028F0D1D5
:10279000284670BD3038092801D801207047002034
:1027A000704730380A2801D2012070470020704756
:1027B00010B54021074801F013F900220A2106480C
:1027C00021F08EFC054CA06002F062F90020207020
:1027D00010BD0000186B0020394B0008D00100200C
:1027E00070B5B1F90030B2F90040A34200DC2346D5
:1027F0000380B1F90250B2F90240A54200DD2C4637
:102800004480B1F90460B2F90450AE4200DA3546B2
:102810008580B1F90610B2F90620914200DB11461D
:10282000C1800120AB4201DC8C4200DD002070BD84
:10283000F8B50D460446B0F90000B1F9001016468F
:10284000884247DBB4F90210B5F90220914241DB1E
:10285000B4F90410B5F9042091423BDCB4F9061038
:10286000B5F90620914235DC96B3ADF800006088DA
:10287000ADF8020032466946284600F099F8002873
:1028800027D0A088ADF800006088ADF8020032467D
:102890006946284600F08CF800281AD02088ADF848
:1028A0000000E088ADF8020032466946284600F094
:1028B0007FF800280DD0A088ADF80000E088ADF8C2
:1028C000020032466946284600F072F8002800D01F
:1028D0000120F8BD0020F8BDB0F90020B1F90430A6
:1028E0009A4213DCB0F90420B1F900309A420DDBB2
:1028F000B0F90220B1F906309A4207DCB0F90600BF
:10290000B1F90210884201DB0120704700207047B6
:10291000F8B50D460446B0F90400B1F900101646AA
:10292000884243DBB4F90600B5F9021088423DDB6A
:10293000B4F90000B5F90410884237DCB4F902108C
:10294000B5F90620914231DC76B3ADF8000060881D
:10295000ADF8020032466946284600F029F818BB57
:10296000A088ADF800006088ADF8020032466946E4
:10297000284600F01DF8B8B92088ADF80000E088BE
:10298000ADF8020032466946284600F011F858B901
:10299000A088ADF80000E088ADF802003246694634
:1029A000284600F005F808B10020F8BD0120F8BD68
:1029B0002DE9FC4114460E46B1F90020B0F9001093
:1029C00005468A423ADBB5F90400824236DCB6F9A4
:1029D0000270B5F90220974230DBB5F906309F420C
:1029E0002CDC002C75DD401A9A1A401C521C00B2D7
:1029F00012B200EBD07002EBD27240105210904233
:102A000000DB1046844200DD0446ADF80010288843
:102A100000222044ADF804006888ADF80200688800
:102A200031462044ADF806006846FFF7C1FF40B1CB
:102A3000BDF804002044ADF804003FE00020BDE8EC
:102A4000FC81E8880022001BADF80200E888ADF8A0
:102A5000060031466846FFF7ABFF28B1BDF8040019
:102A60002044ADF8040011E0A8880022001BADF856
:102A70000000A888ADF8040031466846FFF798FFCB
:102A800050B1BDF80000001BADF80000BDF8020019
:102A9000001BADF8020016E06888ADF802006888F7
:102AA00000222044ADF8060031466846FFF780FF5B
:102AB00070B1BDF80000001BADF80000BDF80600C5
:102AC0002044ADF80600314668461EF05BFEB6E7CE
:102AD000FFE70120B3E710B5B1F90040B2F90030CB
:102AE0009C4200DA23460380B1F90240B2F9023079
:102AF0009C4200DA23464380B1F90440B2F9043025
:102B00009C4200DD23468380B1F90610B2F906200D
:102B1000914200DC1146C18010BD0000FEB50546A3
:102B200021F08CFA0026784C074600960DB1E86833
:102B300001E014F0C3FB606000691EF0BFFD606837
:102B4000406908B11EF0BAFD6068C0691EF0B6FDAC
:102B50006068006A1EF0B2FD60680169F1B31FF0A1
:102B600057F81EF0D3FF6068B0F8501199B30168B0
:102B7000097C890715D514F0FFFB401E05B260687B
:102B800014F0B4FB401E03B20022114601A80095C8
:102B900012F056FA606801A90268926B516004F065
:102BA0000BFC60684FF4807130301AF07DFB606878
:102BB000202100F598701AF077FB6068A0F850614A
:102BC000384621F035FA009060680068436A13B116
:102BD0002268009998471AF0A9F900E007E000F090
:102BE000CDF800F09FF8494D6F691FB149E0A0F89A
:102BF0005061FEBD14F062FB14F08EFB19F094F8E6
:102C0000074600227F211EF091FC0022114610464B
:102C100013F073FE0190BDF80410002238461EF038
:102C200073FCFF221146104613F067FE0190BDF8B9
:102C30000410002238461EF0D7FC0022032138463B
:102C40001EF0C6FC0022032138461EF0AFFC002215
:102C5000032138461EF0B0FC0022032138461EF046
:102C6000B1FC0022032138461EF0B8FC28A13846EA
:102C700019F0C4FE00231A46062138461AF0DCFE7D
:102C80006F61286821F0D4F9B0F5967F0CD22068E6
:102C900041F288318842ACD968680099084468607C
:102CA000A868401CA860FEBD21F0C8F928606068D3
:102CB0004FF47A7140680068B1FBF0F0696809B9B7
:102CC00001216960A968E1B14FF47A7251436A68E1
:102CD000B1FBF2F46E60AE60844200D9044628690C
:102CE00020442861E868401CE86021F02BFAC0F11C
:102CF000640303B022463846BDE8F04005A119F050
:102D0000B4BE0446E6E70000940000208469002079
:102D10003F0000002575204650530A2575252520C3
:102D20004350550070B50A4D002400BFC4EBC406E3
:102D300055F8260008B11AF06DF905EB86001C2144
:102D40001AF0B2FA641CE4B2042CEFD370BD000098
:102D5000F46B0020084949680AE04A68824202D0C0
:102D60000A68824203D10A7E42F001020A7649696A
:102D70000029F2D170470000680000207047000071
:102D80000421014800F02CBE0C6B00201C210148DE
:102D900000F026BE246B00202DE9FF5F0446DDE92C
:102DA0000E0613B9B0F5807F7ED0B6F900504FF013
:102DB000FF376D42454307EB25252DB22580B6F937
:102DC00002C0CCF1000C0CFB00FC07EB2C273FB23F
:102DD0006780B6F900C0A1EB0C0141434FF0020C33
:102DE0000CEB212109B2A180B6F90280A2EB080206
:102DF00042430CEB222000B2E080002B7ED04FF04B
:102E00000A0A93FBFAF5684200EB800003EB4007E7
:102E100005F1010928B221F077FB00900FFA89F043
:102E200021F072FB83465A3528B221F06DFB8046B3
:102E300009F15A0000B221F067FB0146009AC7F180
:102E40000A0000FB02F300FB08F00BFB073301FB59
:102E5000070193FBFAF291FBFAF04FEA601AB4F91A
:102E60000010B4F902000AFB01FCCDF80CC05511AA
:102E7000378805FB10C207EBA2220FFA82F905FB87
:102E800001F2BB46029277880AFB002107EBA121E1
:102E90000BB2B4F90410BE460AFB01FC05FB10C2DC
:102EA0000BEBA22216B200E02FE005FB01F7CDE903
:102EB000007CB4F90680DDF80CC00AFB007005FB4D
:102EC00018C1DDF804C0009F05FB18C5029A0AFB73
:102ED000087C0AFB08220BEBA1210EEBAC270EEBC2
:102EE000A02009B20EEBA2220BEBA5250FFA87FC5E
:102EF00000B212B22DB24F46494500E00EE000DAB2
:102F00000F46B54216DAA84615E000202080491E7B
:102F10006080A180521EE280BDE8FF9F32882A4473
:102F2000228072883A44628032881144A18071887C
:102F300008444FE0B046474504DA4F46494506DAB3
:102F40000F4604E0B54201DA2F4600E037462780FD
:102F50004F46494500DD0F46B54201DDA84600E079
:102F6000B046474503DD4D46494505DC01E0B54225
:102F700001DD294600E03146A1809A4201DA15467A
:102F800000E01D46844501DA614600E001468D42BD
:102F900005DA9A4201DA114606E0194604E0844552
:102FA00001DA614600E0014661809A4201DD114686
:102FB00000E01946844501DD654600E00546A9426A
:102FC00005DD9A4201DD104604E0184602E0844522
:102FD00000DD6046E0809FE72DE9FE4F0446D0F813
:102FE00000B0B0F90800E589081AB4F90A10511ABE
:102FF000D4E90932B5F5807F38D0A589ADB3A66B89
:10300000704345114E437011266BE16A06FB05F7CC
:1030100001FB1077694306FB001003EBA72902EBC5
:10302000A02080460612B4F904004FEA2927B842CE
:103030004EDD002F4CDBB4F90610B14248DD002E06
:1030400046DB94F834104A0745D58A0704F1140387
:1030500022D400FB067045004FF0020A0BEB05017D
:10306000524618461AF0D6F827E00DE0256BE66ABE
:1030700005FB00F706FB1177464305FB016003EBF8
:10308000A70902EBA000CCE7A56B68434D4303EB17
:10309000601902EB6510C4E700FB067000EB400509
:1030A0004FF0030A0BEB0501022218461AF0B2F8A2
:1030B000E81C584410F8010CA07594F83400C007BF
:1030C0001FD04FF4FC60ADF80000A18A814218D1F6
:1030D0000020BDE8FE8F32B204F118002369CDE96B
:1030E0000102002539B2AA468B4617F007FC009072
:1030F000BDF80000A082DDE90102594617F096FBF9
:10310000DAE7E07C78B1A4F83C90A4F83E80A4F81B
:103110004070A4F84260656484F848A02046BDE889
:10312000FE4F00F002B80120D3E72DE9F04F04462E
:1031300090F83C10D0F8009090F83E0087B04FF027
:10314000FF36702907DAB4F940203546012A00D548
:10315000002580310DE0902916DDB4F94020B4F946
:1031600004300125521C9A4200DB0025A1F27F1198
:103170004942C9B28846702809DAB4F942100129D7
:1031800000D50026803010E00025FF21F2E79028CE
:103190000DDDB4F94210B4F906200126491C914214
:1031A00000DB0026A0F27F104042C7B201E00026FB
:1031B000FF2760690090A07D05900020824683462D
:1031C000049094F83400400744D594F84810606C9B
:1031D000022201FB0501494401A81AF01BF8B4F9C9
:1031E000040094F8481002224843616C06FB001169
:1031F000494403A81AF00EF8B4F9041094F84800F2
:10320000626C414306FB012200FB0590111802226B
:1032100002A819F0FFFF94F83400800761D594F8F4
:103220004800616C00EB090200FB0513134413F81E
:10323000013C0493B4F90430434306FB031100FB43
:1032400005000A44014401EB090012F801AC10F832
:10325000010C45E0B4F84000B4F94220284401B222
:1032600004F118008146236917F048FB0190B4F877
:103270004200B4F94010304402B254F8103F4846BE
:1032800017F03CFB0390608E2368304402B2208E1E
:10329000284401B2484617F031FB029094F824000C
:1032A000103C80071DD5B4F9422034F8400F284463
:1032B00001B2484617F0BAFA04906088B4F90010D9
:1032C000304402B2484617F0B1FA82466088304472
:1032D00002B234F84009284401B2484617F0A6FA71
:1032E000834694F8340042464546800735D5059913
:1032F000049B01FB08F1C8F1FF0003FB00110AFB6E
:1033000008F30BFB0030C1F30721C0F3072001FBDA
:1033100007F3C7F1FF0600FB06331B0AA37502295A
:1033200007D8022803D8002007B0BDE8F08F002797
:1033300002E0022800D8FF270598022800D80022C2
:103340000498022800D8FF22BAF1020F00D8002505
:10335000BBF1020F03D8FF2501E0FF20A075EAB101
:10336000FF2A04D0DDE9000113F0A2FB0090BDB1FB
:10337000FF2D17D0DDE902102A4613F099FB0490C7
:1033800097B1FF2F05D001463A46009813F090FB05
:103390000090BDF80000A0820120C5E70198E5E794
:1033A0000298ECE70398EAE7BDF81000F3E70000A5
:1033B0002DE9F0470446B0F908000A2700026062D0
:1033C000B4F90A000002A062B4F90C1091FBF7F501
:1033D000684200EB800001EB4006684205F10108FD
:1033E00000B221F091F88246E84300B221F08CF857
:1033F0008146C5F15A0000B221F086F80546C8F1B1
:103400005A0000B221F080F8C6F10A0101FB0AF36C
:10341000024609FB0630694390FBF7F002FB0611F8
:1034200091FBF7F14011E06248112063A07C17F096
:1034300012FB94F8341060F3000184F83410A07C7F
:1034400017F0F9FA94F8341060F3410184F834105D
:10345000A07C042824D0052822D0062820D021F0E2
:10346000040100BF84F8341021682162A16921F0B1
:10347000E00160F30401A08860F39421E08860F328
:103480005F51A161E0894FF4001101EB5001B1FBE4
:10349000F0F0A063FF20A075208AA082BDE8F0872D
:1034A00041F00401DEE700002DE9F04115460E462B
:1034B0000746114C20F0C2FD80462B463246394665
:1034C000204617F049FE20B10020A062E06950B10B
:1034D00010E02C21204619F0E7FE4FF00040A062DA
:1034E0000020BDE8F081404620F0A2FDE06108B96F
:1034F0000120E0612046F4E7486B002010B514215C
:10350000074800F06DFA17F0EDFD40B10549016084
:1035100005494160054981600549C16010BDFEE76C
:10352000306B002011AB01088DAE010805B0010819
:10353000DDAA010870B50D4604461021284619F091
:10354000B3FE20680078012804D0022807D00428A0
:1035500007D008E0208A2880608A688003E0E0685D
:1035600000E00A20686020684268002A03D02946EB
:10357000BDE87040104770BDFEB5866A0446BEB90E
:10358000A08A218A0844A082E08A618A0844E082F5
:1035900020460AF0DCF8060079D020460CF0A6FFA1
:1035A00000220921304616F089FC607880076ED42D
:1035B000208A10B9608A002869D00025ADF804502F
:1035C000ADF8085094F83C0000F00F000328304696
:1035D00016D01BF0F1FB074630461BF0A7FA034656
:1035E0000C200090B4F912103A46304609F068FCFD
:1035F000ADF8080030461BF0EBFAC10712D017E017
:103600001BF06EFB074630461BF00AFB0246032008
:103610000090B4F910103B46304609F051FCADF86B
:103620000400E7E7BDF90410002901DDADF80450FE
:10363000810705D4BDF90410002901DAADF8045062
:10364000410705D4BDF90810002901DDADF8085087
:10365000000705D4BDF90800002801DAADF80850CC
:1036600002AA01A9204622F074FE0023BDF9082019
:10367000BDF9041030461DF099FBA08ABDF8041076
:103680000844A082E08ABDF808100844E082FEBD2C
:103690002DE9FC5F0446806A5FEA000B71D094F864
:1036A0003C0000076DD018F011F80190006840212F
:1036B000457E58461CF028FB4FF0000818B9A4F8C6
:1036C0001A80A4F8188058461BF068FB82465846BA
:1036D0001BF06BFB064694F83C004FF0640900F0C9
:1036E0000F000C2802D003284CD09AE0A4F81880D0
:1036F00056B1B4F91A50002717F0E8FF0068407E71
:10370000C0F16401484622E0B4F91A00C5F1640131
:10371000484390FBF9F0608358461BF007FA0546D2
:1037200058461BF049FB02460C200090B4F91A10D1
:103730002B46584609F0C4FB6083024600231EE076
:103740007A1917B201FB05F292FBF0F215B2002DC7
:10375000F6D1ADF80070A4F81A806A460021204620
:1037600022F0F7FD41F6FF72BDF900305142584694
:103770000AF052F9BDF800100123084402B20021FA
:103780004CE09AE0A4F81A80BAF1000F0AD0B4F91C
:103790001850002717F09AFF00684946407EC0F194
:1037A000640022E0B4F91800C5F16401484390FBBD
:1037B000F9F0208358461BF033FA054658461BF0B3
:1037C0008FFA034603200090B4F918102A46584691
:1037D00009F076FB2083014600231EE07A1917B218
:1037E00000FB05F292FBF1F215B2002DF6D1ADF817
:1037F0000070A4F8188000226946204622F0A9FD36
:1038000041F6FF72BDF90030514258460AF07CF88B
:10381000BDF800100123084401B2002258461DF0F3
:10382000C5FA208B002848D1608B002845D1C6B945
:1038300058461BF0C1FA054658461BF077F9002D93
:1038400006DC00280DDD002D02DA01232A4604E003
:10385000002806DA0123404202B2002158461DF03A
:10386000A5FABAF1000F19D158461BF0D9F905464F
:1038700058461BF035FA002D07DC00280EDD002D20
:1038800003DA01230022294605E0002806DA012395
:103890000022404201B258461DF088FA0A215846DB
:1038A000019A16F00BFB6078800706D414F83C0FE1
:1038B00020F00F00207044F8148CBDE8FC9F00003D
:1038C0007FB50E46040003D113F0F8FC040023D0AA
:1038D0000025FEB1ADF80050ADF8025013F006FD22
:1038E000401EADF80400204613F046FD401EADF822
:1038F00006006A46314602A8FEF772FF00280BD088
:103900002068017C890708D5DDE90001C4E90C01C4
:1039100001202AE0A0F850517FBD82690AB102A9B6
:10392000904700260BE000BF04EBC601002202A86E
:103930003031FEF77DFF0028EED1761CB6B2B4F828
:103940005001B042F0D880B2202804D204EBC0006D
:1039500002A9303004E0A4F8505104F13000694667
:1039600011F0C5FAB4F85001401CA4F85001606889
:103970000028D1D020F094FC7FBD70B5054600F042
:1039800012F804460CE02146284600F01EF80646D0
:103990002146284600F071F8204619F03BFB3446DA
:1039A000002CF0D170BD002800D04068704700B5F1
:1039B00003460022FFF7F7FF03E01846521C00F011
:1039C00004F80100F9D1104600BD0068091D4058F7
:1039D0007047006840587047002800D080687047E2
:1039E00000224260C91C21F003018260016070471F
:1039F00070B504460068083019F082FA050013D04B
:103A000001460022204621F063FC294620466268D8
:103A100021F058FC616819B12A46204621F058FC73
:103A20006560A06800B9A560284670BD70B5044601
:103A30000068083019F064FA050013D0014600222E
:103A4000204621F03FFC29462046A26821F040FC98
:103A5000A16819B12A46204621F034FCA5606068AF
:103A600000B96560284670BD28B1416809B9806811
:103A700008B1002070470120704770B504000DD0D8
:103A8000FFF791FF00228842204608D1FFF79DFFF3
:103A90006060011E01D000221EE0A26070BDFFF731
:103AA0009BFF8842206808440AD10168A16029B1BF
:103AB0002046BDE87040002221F004BC626070BD69
:103AC00005682046FFF781FF064602462946204644
:103AD00021F0F8FB2A4631462046BDE8704021F02F
:103AE000F7BB10B50446006882680AB121469047CA
:103AF00020680068002801D02060F5E710BD8068CC
:103B0000002801D0B0F91600704700002DE9F047F9
:103B1000074690B0408C189E40F004007884904690
:103B20003A8499468A46328938461BF059FF054641
:103B3000A7F820903289514638461BF051FF0446C1
:103B4000788CA54220F00400788403D12904B1EBDD
:103B5000044F68D0A7F820803289514638461BF0C0
:103B60003FFF05468046A7F82090514638460BF0A7
:103B700083FA318900682A461FF0CAF93089602823
:103B800023D147F6FF794D4501D04C451DD138462C
:103B90001CF071F800EBD070451038461CF06BF843
:103BA00000EBD0704010C84506D1691C431C9942F7
:103BB00000DA00E0194688464C4506D1691C421CD3
:103BC000914201DA6C1C00E014461948FFF710FF1F
:103BD00005002BD02F60C5E903843089A880684692
:103BE000C5F808A010F09EFC1248FF21CDE9005056
:103BF000114802901148039000200790CDE9080178
:103C000030880A9070889DF83E1040420B90F06812
:103C10000690002060F300018DF83E103069059099
:103C2000684610F0F3FC10B0BDE8F087FEE7000036
:103C30003C6B002001920208F593020851930208A0
:103C400014210148FFF7CCBE3C6B00202DE9FC5F3E
:103C5000002592468B4606462C46042743F60F085D
:103C600043F60E0900E100BFF16807EBC4000858F5
:103C700082017DD480B230EA0B0212D05FF00002E4
:103C800030EA0A000FD00020824271D051F834008F
:103C900001AA41F6100100901EF020FF002868D113
:103CA00003E00122ECE70120EEE701AA41F6110151
:103CB00000981EF013FF002873D101AA41F61201EB
:103CC00000981EF00BFF00286BD101AA41F61301EA
:103CD00000981EF003FF002863D101AA41F61501E8
:103CE00000981EF0FBFE00285BD101AA41F61401EA
:103CF00000981EF0F3FEE0BB01AA41F269010098B2
:103D00001EF0ECFEA8BB01AA43F20C0100981EF0C5
:103D1000E5FE70BB01AA43F20D0100981EF0DEFE25
:103D200038BB01AA41F2010100981EF0D7FE00BB8A
:103D300001AA41F2040100981EF0D0FEC8B901AA00
:103D400041F2020100981EF0C9FE90B901AA41F2A9
:103D5000030100981EF0C2FE58B901AA41F2050104
:103D600000981EF0BBFE20B901AA41F2060101E055
:103D700079E016E000981EF0B1FE90B901AA41F278
:103D8000320100981EF0AAFE58B901AA41460098D7
:103D90001EF0A4FE28B901AA494600981EF09EFE16
:103DA00010B10320BDE8FC9F01AA40F60A0100986B
:103DB0001EF094FEF0BB01AA40F60B0100981EF025
:103DC0008DFEB8BB01AA414600981EF087FE88BB55
:103DD00001AA494600981EF081FE58BB01AA40F690
:103DE0003C0100981EF07AFE20BB01AA40F63D017E
:103DF00000981EF073FEE8B901AA40F63A01009857
:103E00001EF06CFEB0B901AA4FF4046100981EF0D8
:103E100065FE78B901AA40F6450100981EF05EFEE5
:103E200040B901AA40F6410100981EF057FE08B9BA
:103E300001AA00E013E040F6420100981EF04EFE99
:103E400068B901AA40F6430100981EF047FE30B958
:103E500001AA40F6490100981EF040FE08B1022573
:103E600001E005B90125641C708CC0F3C500A042B7
:103E70003FF6FAAE284695E70148406870470000D3
:103E8000940000200448002141600161C16081600C
:103E9000016041617047000084690020C0F3041094
:103EA000072800D90720704710B518210348FFF7ED
:103EB00097FD03490120087010BD0000E86A00204A
:103EC000FC0100202DE9F04190460C46050015D07C
:103ED000FCF70CFC0A4F06462146BA682846904774
:103EE0000446BA682819414690470146701A03E013
:103EF0006218AA5C2A55641CA042F9D2BDE8F08180
:103F0000100200202DE9F041094D90460E466A68E6
:103F10001C46074619469047306020B120686A6801
:103F2000384400219047C8F80000BDE8F081000047
:103F3000100200202DE9F04F87B08A46DDE91058C5
:103F40001F4693460446002105B129805CB12078C4
:103F5000002809D0BAF1000F05D0002618F0060F8E
:103F600015D0002004E0002007B0BDE8F08F401C11
:103F7000215C0A2904D00D2902D00029F7D100E0E4
:103F8000401C002DF0D04FF0FF312980ECE75FEAB4
:103F9000887001D541F6FF77894608468DF81410E0
:103FA000049127E00498CDF8189068B34FF0000C06
:103FB00005AA06ABCDF80CC0CDF80080CDE90132E2
:103FC00020443B465A46514620F0C8FA06997A1AD0
:103FD000314417B20EB288B104990144049120789B
:103FE0000A280BD00D2809D0605C0A280FD00D28B4
:103FF0000DD00846205C08B1002FD3DC049848B1EE
:1040000005B12E800498AFE74FF0010CD0E7481CB3
:104010000490F3E7064A04A9204652689047002D11
:10402000F0D001460022504616F023F806B2E8E729
:10403000100200202DE9F0411746884606001ED0E8
:10404000002F1CD0FCF752FB04463846FCF74EFB11
:10405000050014D00B4A2C444146926830469047E4
:10406000411903E0621BB25C3255641EA142F9D9CA
:1040700030442A463946BDE8F04119F0D7B8BDE8CA
:10408000F08100001002002000230278232902D0D2
:10409000012A0DD00FE02AB10021012A04D0022A02
:1040A00004D008E0012101E0017004E0017001E0AA
:1040B000202902D00123184670470221F6E72DE996
:1040C000F0410E468046024600213346084620F065
:1040D00081FC04460027401C18F012FF050008D0A0
:1040E0002F5533464246611C20F074FC2846BDE83B
:1040F000F081FEE72DE9F0471E4614460D46824644
:10410000DDF8209015E000BF4FEA540808FB065781
:10411000394650464A469047002808DD44F30000DF
:10412000C0EB540407EB0605A4F1010401E005DA35
:104130004446002CE8D12046BDE8F0873846FBE72E
:104140002DE9FC5F9B460CAB8A468146DDE9116098
:1041500093E81210DDE90F575FEA80784FF03003E3
:104160001AD45EB15FEAC07808D000F00C0858EAB3
:104170000C0803D0761E01E00B55641CBC4204D22F
:10418000202CF9D301E00B55641C5FEAC07803D002
:10419000B44201D2202CF6D35FEAC06825D55FEA8D
:1041A00040580AD44CB1BC4201D0B44205D1641E7F
:1041B00003D0102D03D1641E04E0102D02D0022D77
:1041C0000AD00EE0850603D4202C1ED2782506E006
:1041D000202C1AD2582502E0202C16D262250D552B
:1041E000641C202C11D20B55641C202C0DD2BCF168
:1041F000000F01D02D2306E0430701D52B2302E059
:10420000030702D520230B55641CCDE900BAC8462C
:10421000154681468B46AA46800714D1274607E0FB
:104220002A46DDE900316D1C2020C446E0477F1C92
:10423000B742F5D307E02A466D1C641EDDE9003164
:104240001BF80400C047002CF5D15FEA897006D442
:1042500009E02A46DDE900316D1C2020C047A5EBAE
:104260000A00B042F5D32846BDE8FC9F2DE9F04F87
:104270008FB099468B46DDE91818DDE91C63DDE94E
:104280001A4792468646002209B923F010035805C2
:1042900007AD00D5C9B1B1FBF4F004FB1010C0B2FA
:1042A0000A2801D2303009E05FEA836C02D54FF072
:1042B000410C01E04FF0610C60440A38B1FBF4F1AD
:1042C000A854521C09B1202AE5D3CDF80880CDE9C5
:1042D0000563CDE90052CDE903474B4652465946A6
:1042E0007046FFF72DFF0FB0BDE8F08F2DE9FF4FAF
:1042F0008FB01CACDDE9239594E8030820AC94E86A
:10430000C004002450EA010201D125F010056A051D
:104310000DF11C0802D550EA010217D032463B4687
:10432000FCF736F8D2B20A2A01D2303206E0AB06E8
:1043300001D5412300E061231A440A3A08F8042019
:10434000641C50EA010201D0202CE7D3CDE900849F
:10435000CDF808B0CDE90595CDE9036A0FAF97E830
:104360000F00FFF7EDFE13B0BDE8F08F9A4200D2C8
:1043700088547047704700002DE9FF4F89B005460B
:104380000A9800249246002800D1FE4D8FE125288E
:1043900004D02246641C53460A990BE2491C4FF094
:1043A000000808460C9101782B2919D004DC20293B
:1043B00019D0232904D119E02D290ED0302909D094
:1043C0000026C8B2FEF7E6F9B0B10CA8FEF7CBF9AB
:1043D00006461FE048F001010AE048F0020107E04C
:1043E00048F0040104E048F0080101E048F0100141
:1043F000401C88460C90D6E70C9908782A2809D1E9
:10440000169840C81690002E02DA48F0020876424C
:10441000491C0C910C984FF0000B01782E2919D1F2
:10442000401C0C9048F480680078FEF7B3F920B186
:104430000CA8FEF798F983460CE00C9A10782A280D
:1044400008D1169901C91691002800DC0020521CE1
:1044500083460C920C9801786C290AD004DC6829F8
:104460000FD06A2919D128E0742929D07A2914D1CA
:1044700026E0401C0C90017848F480786C291CD010
:104480000BE0401C0C90017848F08008682904D1AA
:1044900048F04001401C88460C900146007869288D
:1044A00022D015DC62281FD00DDC252872D05028C0
:1044B0001AD058287FF46DAF16E048F40071E9E790
:1044C00048F48071E6E7632879D06428F2D10BE0E4
:1044D000732875D004DC6F2806D07028EAD103E079
:1044E000752801D07828E5D178280DD058280BD030
:1044F00070280BD0502809D06F2816D0622816D00B
:104500000A2228F0100016E0102207E04878102256
:1045100048F48878562804D1491C0C91087858280A
:1045200007D00878502804D006E0082209E00222CB
:1045300007E048F0200080460878692803D0642806
:1045400001D028F00C085FEA485001D528F0010896
:10455000087869281FD064281DD0562864D05FEAE7
:10456000885072D51698CDF818B0C01D0021CDE93D
:1045700004210291CDE9076820F007005346F0E8D6
:104580000212CDE900121690224628460A99FFF73A
:10459000ADFE88E009E15FEA885022D5169804AFA5
:1045A000C01D20F00703F3E802011693002387E8FB
:1045B0000C08CDE90768002903DA012202E07FE058
:1045C000A6E00022002302921A461B1A8A4103DB4E
:1045D0000022404262EB010153462246CDE9000130
:1045E000D3E75FEAC85004D5169901C90FE04042ED
:1045F00015E05FEA486003D5169911F8040B06E050
:104600005FEA0860F0D5169931F8040B00B21691F4
:10461000CDE9022BCDE90468C10F0028E7DD534640
:104620002246CDE900013AE01699AAEB040201C93D
:10463000169141680968009103680A980119284693
:10464000FFF79AFE04442FE0FFE75FEAC8500CD55D
:10465000CDE9022BCDE9046816980021534604C821
:10466000CDE900211690224619E05FEA486003D5A3
:10467000169810F8041B08E05FEA0860169803D546
:1046800030F8041B89B200E002C8169001AF002088
:10469000009187E80508CDE904685346224628467C
:1046A0000A99FFF7E3FD04460C98401C0C900C9906
:1046B000087800287FF46BAE54457DD222467DE019
:1046C00001275FEA887006D509E02246641C53463C
:1046D00020200A99A84738467F1CB042F5D3169887
:1046E0002246641C10F804CB1690534660460A9983
:1046F000A8475FEA887006D4D6E72246641C534672
:1047000020200A99A84738467F1CB042F5D3CBE752
:10471000169850F8049B16904B46BBF1000001D050
:10472000014601E04FF0FF31484600E0401C0278AE
:104730000AB1491EFAD2C71A5FEA485003D5584653
:104740005F4500D307465FEA887006D511E0224630
:10475000641C534620200A99A84738467F1CB04263
:10476000F5D306E0224609F10109641C53460A9973
:10477000A84799F8000040B15FEA4851F2D5BBF173
:10478000010B01E075430008ECD25FEA887006D4A3
:104790008AE72246641C534620200A99A8473846D7
:1047A0007F1CB042F5D37FE706E02246641C5346E7
:1047B00025200A99A84777E7AAF10102534600206D
:1047C0000A99A8470DB02046BDE8F08F10B5020049
:1047D0004FF000000CD04B1E194200D0FEE70A44F7
:1047E000521E9A43B2F5004F02D20C2A01D910464C
:1047F00010BD0C2010BD08444A1E401E90431142BB
:1048000000D0FEE7704700002DE9F0410F4601217E
:104810000025044641862E460BE01B49FCF724F890
:1048200010B16D1CADB202E0608E401C6086761C3B
:10483000B6B257F8260010B101780029EDD1208ECC
:10484000A8421ED0A06A002610B118F0E3FBA662B1
:10485000E06A10B118F0DEFBE662E80018F050FBE9
:10486000A06238B1680018F04BFBE06218B1A16A91
:1048700011B102E0FEE7FEE70025690018F014FD23
:104880002586BDE8F0810000C85801082DE9F84FE1
:104890008146407A0F4600F00700022819D01046E2
:1048A0008046974200DD3A46164603202A4C2B4AA2
:1048B00000EB460020F00305A06811681035411A8E
:1048C000636805EB010C9C4505D2416821F000416D
:1048D00024E00846E4E79D4219D892464FF0FF3B9A
:1048E00048196168884210D9002269461C48CDF8F1
:1048F00000B00CF0B3F9002269461A480CF0AEF98A
:10490000A168DAF80000091AEAE7A068DDE728469E
:1049100018F0F6FAC0B1416841F0004188EA670238
:10492000416089EA02010160416801F04041491C8F
:1049300031F0804141608681A0F80E8005D500F1FC
:1049400010018160BDE8F88FFEE7A16801F1100257
:1049500029448260A160F5E79C000020EC01002062
:104960003DD70008BD0C010870B586B000228DF857
:1049700008208DF80C208DF81020444C90F83C2035
:10498000142302F00302A5784FF4B476012A23D051
:10499000022A5FD0AA4211D010F8265F05EB051558
:1049A00005EB4505B5FBF3F52570407800EB0010ED
:1049B00000EB4000B0FBF3F06070A27004AA03A803
:1049C000CDE9000201EB41004FF6FF7101EA400022
:1049D00002AB627821781AE0AA4210D0858C05EBF0
:1049E00045056D02B5FBF6F5A58090F8270000EBB4
:1049F000001000EB4000B0FBF3F06070A27004AA5E
:104A000003A8CDE90002C9B202AB62783CE008F02D
:104A1000A9FB9DF810209DF80C10D308BDF80020CC
:104A20009DF8080063F30402ADF800208A08BDF881
:104A3000001062F34A11ADF80010C108BDF8000083
:104A400061F3CF20ADF8000080B20090BDF8000007
:104A500006B070BDAA4210D0858C05EB45056D02ED
:104A6000B5FBF6F5A58090F8260000EB001000EBF2
:104A70004000B0FBF3F02070A27004AA03A8CDE9B7
:104A80000002CAB2217802ABA088C0E74C01002026
:104A900010B5084C012020700748FEF784FF00285D
:104AA000A06803D0BDE810401FF0FABBBDE810407D
:104AB0001FF0EABBD0010020186B002010B504469F
:104AC00090F83E00626B810707D4A18F39B1A1F540
:104AD0007F43FF3B15D0491EA187A18F89B90AB139
:104AE00081070ED521461348FEF7C7FFFFF7D0FF19
:104AF000E16809B1204688472046BDE8104018F01B
:104B000089BAA16B4942E162002A11D0810702D41F
:104B1000216B4942E1624110491C61F3410084F874
:104B20003E00616AE069E1616062A06AA26260635E
:104B300010BD0000186B002070B5304D68681FF084
:104B400077FA0646687880F00100687047E0002038
:104B5000287094F83E006978C0F380028A4242D0FF
:104B600061F3820084F83E00E16A8A19030719D4D0
:104B7000002917DC002A15DBC00709D1216939B1EA
:104B800020468847E1690144E161616A0844606246
:104B9000A16809B12046884794F83E0040F008001B
:104BA00084F83E00E06A8019E06216D4A16A884267
:104BB00000DDE162A169204688470146206A8842FB
:104BC00004D0216262680AB120689047D4E90A01E2
:104BD000814202DB2046FFF771FF287818B10848B0
:104BE000FEF7E1FE03E021460548FEF7EEFE040075
:104BF000ADD11FF023FA686070BD0000D001002025
:104C0000186B002070B5044640680D4608B1FFF7E8
:104C1000F9FF2268002A04D029462046BDE87040EA
:104C2000104770BD89B210F0C7B889B210F000B952
:104C30000AF0F0BD70B514460D46064606E0304653
:104C4000711C8EB200F006F805F8010B641EA4B2C8
:104C5000F5D270BD10B504460AF080FE200AA021EE
:104C600001EB4000C0B20AF04DFE0AF0B7FEE0B220
:104C70000AF048FE0AF0B2FE0AF070FEA1200AF027
:104C800041FE0AF0ABFE00200AF00AFE04460AF0DC
:104C900087FE204610BD70B516460C46054606E058
:104CA0002178284600F007F86D1CADB2641C761E12
:104CB000B6B2F5D270BD70B50D4604460AF04EFE90
:104CC000200AA02101EB4000C0B20AF01BFE0AF04E
:104CD00085FEE0B20AF016FE0AF080FE28460AF0D1
:104CE00011FE0AF07BFE0AF05BFEBDE870400A2070
:104CF00001F0BABB10B50446406882080AD0496882
:104D000021F00301091D08446060204600F042F8CC
:104D1000204610BDFEE74068103120F003008842B5
:104D200001D301207047002070472DE9FC4705465C
:104D300048680C4620F0030001AA694620F058F9A3
:104D4000DDE9007005EBC71101EB80098046D9F859
:104D5000380060B164B1C4E9020504F10806C4601A
:104D600030460421FFF747FD864202D0FEE7FEE70A
:104D7000FEE7C9F838400120296900FA07F211431B
:104D8000296105EB870100FA08F04A6902434A618C
:104D9000BDE8FC8710B5044600F087F8046010BD3C
:104DA0002DE9FC4706464FF000000D000090074635
:104DB000019042D00C46E9460DF10408802907D342
:104DC000084623F04EFF411F01208840401E044446
:104DD00042464946204620F00BF9009C092C2CDA6B
:104DE00006EB8400019A40694FF0FF3101FA02F2AC
:104DF00010400CD1641C3069A14008401DD023F044
:104E000028FF0446009006EB8000406978B123F04B
:104E100020FF034606EBC411019001EB8000876B75
:104E20005FB1786820F00300A84201D2FEE7FEE7F8
:104E300039463046009A21F0C7F83846BDE8FC876D
:104E400010B50446FFF7A6FF416841F0020141603A
:104E5000606840F00100606010BD10B5044600F0CD
:104E600024F8416821F002014160606820F00100EF
:104E7000606010BD70B506460D46084600F015F896
:104E8000040010D02079C0070BD0686880080BD0D0
:104E90002146304600F03CF821462846FFF72AFF1D
:104EA0000546284670BDFEE7FEE7426800F10801AE
:104EB00022F00300001F0844910800D1FEE770476C
:104EC00070B506460C004FF000001ED0F2B12079FC
:104ED0001546C0071BD011462046FFF71CFF78B1CE
:104EE0002946204600F025F805462046FFF752FFE8
:104EF0006868294640F0020068603046FFF715FFF9
:104F00002046FFF7AAFF04F1080070BDFEE7FEE7A8
:104F10007CB5054648680C4620F0030001AA6946A6
:104F200020F066F8DDE900232146284621F04CF800
:104F30007CBD2DE9F0410D46044600F10801281F13
:104F40000E18606806F1080720F00300401BA0F16E
:104F5000040838460421FFF74EFC874200D0FEE7E4
:104F6000606820F0030108EB0500001D814200D0BD
:104F7000FEE7307900F0030040EA0800706020F09E
:104F800003000C2800D2FEE7207900F0030028433C
:104F900060603046FFF754FF3046BDE8F08138B519
:104FA000044616F093FB054616F0C5FB0028204684
:104FB00005D0218FE1861BF06CF9012038BD14F07B
:104FC00043FD002820461ED014F013FC218FE08EF4
:104FD00081420CD02087E08E00906A461C2120463A
:104FE00014F06CFF0128E9D120461BF052F9284645
:104FF00016F0ADFB0428E0D1204619F045FD002154
:1050000015F0F3FBD9E714F07BFDD6E770B514F08B
:1050100050FF054619F07EFD0446284610F0FEFCC0
:1050200001462046BDE8704001221EF02DBB000065
:105030002DE9F04F0D4687B00446002119F059FCC8
:1050400060B32946204600F061FA2946204600F068
:105050006FF8002120461AF081FB059000212046C0
:105060001AF04EFC0490002120461AF043FA012861
:1050700000D000208046002120461AF0D9FD0746C6
:10508000002120461AF0B4FA42F2D17906464F4583
:105090000BD1608C400508D4012707E007B02846F3
:1050A000BDE8F04F1C2118F0FFB80027204619F08A
:1050B0009EFCDFF878A0834620460021BAF8022043
:1050C0001AF08EFCD5F810C0AB682968CDF800C086
:1050D000CDF80C80CDE90131C2B239465846059B66
:1050E0000AF03CF828834E4504D1608C800501D439
:1050F000012600E00026204619F05FFC0746204606
:105100000021BAF806201AF06BFCC2B268690024CC
:105110006B68E9688DE81B0031463846049B0AF04D
:105120001DF8688307B0BDE8F08F0000C0000020C4
:105130002DE9F34F81B00C46019809F07DFA06463F
:10514000019819F054FC8246304600F007FF2061B8
:10515000400017F001FF20602069400017F0FCFEBE
:10516000002541F69A79A0603AE036F91510DFF88B
:105170002081494533D10027DFF818B11FE03946B7
:10518000019819F0B6FB594600901AF0C4FDA8B971
:10519000009809F063FA012810D1009809F054FA38
:1051A000A8420BD100981AF066FD4146404501DA4D
:1051B000084602E000981AF05EFD80467F1C0198C8
:1051C00019F0A9FBB842DAD8B8F1000F03DBA168E7
:1051D00021F8158003E0A168002021F815006D1C5E
:1051E0002069A842C1D800252F46284641F69B7861
:1051F0004A4615E036F91010414504DB0D44A5F58B
:10520000F8559B3D0BE0914204D1A16831F8101094
:10521000394403E0A36823F8101039440FB2401C4E
:1052200021698142E6D8002101981AF097FA216994
:10523000C1F1010200FB02A0C01B00B2002800DA8D
:10524000002000224FF0FF331146C44611E000BF9A
:1052500036F9117067450BDBA7F5F8579B3F3AB25B
:1052600000FB02F3B3FBF5F3A76827F811300B46F8
:10527000491C27698F42EBD8002B07DBA91A414351
:10528000B1FBF5F1401AA16821F81300BDE8FE8FCB
:1052900001E0FFFF010006002DE9F14F0022114659
:1052A00000981BF0C1FE002100981AF057F904463F
:1052B000002100981AF039FB20440FFA80F90021F0
:1052C00000981AF0F7F920440FFA80F800981AF0C5
:1052D000B7F800EB090101EB0800DFF898A006B26F
:1052E0005446009819F017FB074600252AE000985D
:1052F00021498068006850F8250083461AF00BFDAC
:10530000F8B958461BF026F840BB002158461AF061
:10531000BCF818B3012821D002281FD003281DD0C3
:10532000002158461AF0A0FC58B9BBF81A10BBF877
:105330001600081A401C00B24844A04200DB044694
:1053400024B26D1CBD42D2D3544504D004EB0800F6
:1053500000B2B04200DC3046BDE8F88F0098BBF9DF
:105360001A10B0F91600081A411CA142E8DB0C46DD
:10537000E6E7000001E0FFFF010004002DE9F84F1F
:105380000022804611461BF039FE002140461AF0EB
:10539000E5F80446002140461AF05EFA20440FFA70
:1053A00080FA002140461AF0FCF920440FFA80F9F7
:1053B00040461AF053F800EB090101EB0A00DFF850
:1053C00044B105B25C46404619F0A5FA07460021F3
:1053D00040461AF07AF801284FF0000644D078E0F1
:1053E000D8F808004849006850F8260000901AF0E4
:1053F00092FCC0BB00981AF0ADFF50B10098B8F90C
:105400001810B0F91400091A481CA0422ADB4C1CE1
:1054100028E0002100981AF038F858B1032809D084
:10542000062807D0082805D0002100981AF015FC9E
:1054300058B118E00098B8F91810B0F91400081A1B
:10544000411CA1420EDB0C460CE000981430009089
:105450000FF0BEFD5044A04204DB00980FF0B8FDF1
:1054600000EB0A0424B2761CBE42B9D35C453BD0A3
:1054700004EB090033E000BFD8F8080022490068B7
:1054800050F8260000901AF046FC08BB00981AF06D
:1054900061FF60BB0021009819F0F7FF38B30128C5
:1054A00025D0042823D0072821D0002100981AF005
:1054B000DBFB68B90098143000900FF089FD484478
:1054C000A04204DB00980FF083FD00EB090424B236
:1054D000761CBE42D0D35C4506D004EB0A0000B275
:1054E000584501D0A84200DC2846BDE8F88F009856
:1054F000B0F91810B8F91400091A481CA042E6DBEC
:105500004C1CE4E701E0FFFF010004002DE9F84F27
:105510000C46834609F0AEFC064600F01FFD6061B4
:10552000400017F019FD60606069400017F014FD3D
:10553000002541F69A79E0603AE036F91500DFF887
:105540000C81484533D10027DFF804A11FE039461C
:10555000584619F0CEF9514600901AF0DCFBA8B974
:10556000009809F00DFD012810D1009809F0FEFC0B
:10557000A8420BD1009819F08CFA4146404501DA57
:10558000084602E0009819F084FA80467F1C5846CD
:1055900019F0C1F9B842DAD8B8F1000F03DBE168BD
:1055A00021F8158003E0E168002021F815006D1C4A
:1055B0006069A842C1D800273D46384641F69B782D
:1055C0004A4615E036F91010414504DB0F44A7F5B3
:1055D000F8579B3F0BE0914204D1E16831F810107D
:1055E000294403E0E36823F8101029440DB2401C5D
:1055F00061698142E6D8002158461AF081F9814656
:10560000584619F0DAF901466069C0F1010209FB58
:105610000210401B01B2002900DA0021002043469D
:105620000FE000BF36F910209A4209DBA2F5F852CC
:105630009B3A12B24A43B2FBF7F2E56825F8102014
:10564000401C62698242EDD8BDE8F88F01E0FFFF9F
:10565000010006001CB50B8804892344ADF8003016
:105660004B8844892344ADF802308B880489234455
:10567000ADF80430C98843891944ADF80610436970
:10568000694698471CBD0000F8B50D46D0E90C21CD
:1056900004468AB112787AB141B100BF1EF0F5FA22
:1056A0000D4909688847616B884211D2206B88B127
:1056B00000200A4E009006E061B1EFE732686946CB
:1056C0009047A84206D0206B0099415C0029F5D193
:1056D0000020F8BD0120F8BD28020020140200209F
:1056E0002DE9FF4F87B0C878189CC0070D460028E9
:1056F00001D0F14800E0F148069001D0F04800E008
:10570000F048049001D1EE4800E0EE484FF0100A56
:105710004FF00C0ECDF814006088A1884FF0000BFC
:10572000A0EB010001B25A465846276912E000BFBB
:1057300000EB8006E3680AEB860C13F80CC05FEA06
:10574000CC7C0BD04FF0080C0CEB86069B5BC91A87
:1057500009B2401C8742EBD8002347E00EEB8606D7
:105760009B5B1A4412B2F4E703EB8306E7680AEB8B
:1057700086000190385CC00737D191FBF2F00EEB48
:10578000860CCDF800C037F80CC00CFB00FC0FFAFB
:105790008CF94FF0060C04200CEB860C00EB860015
:1057A00037F90C80385ECC46C84500DCC4466045FD
:1057B00004DC4046CC46C84500DD6046484506D07E
:1057C000DDF804804FF0010CE34647F808C0D4F838
:1057D0000CC0082707EB86062CF80600E768009E39
:1057E000BE5B921B081A12B201B25B1C2069984280
:1057F000BAD8BBF1000F8FD10021079819F073FEC2
:10580000012826D000270020ADF80800ADF80C00D4
:1058100003A902A8CDE900012089B4F9022003B24E
:10582000287816991FF0E6FDE878384207D00798E7
:1058300019F0DDF8BDF808100844ADF80800099922
:10584000079819F056F806464FF4FA684FF0640BC3
:1058500027E10127D7E79C4930461AF05CFA002877
:105860007DD10021304619F0ABFEE8B34FF00009BE
:105870004846216911E000BFE26800EB800352F85E
:105880002320B24208D100EB8002E168082000EB3F
:10589000820031F9009002E0401C8142ECD8E878A7
:1058A000C007708C02D040F4806001E040F40070CA
:1058B000708406F11400049982468847484528D030
:1058C00030461AF0E6FCB08AADF80000F08AADF878
:1058D0000200308BADF80400708BADF80600069A1C
:1058E00049465046904700E00FE06A46292130467D
:1058F00014F0E4FA304619F00DF93246222114F082
:10590000DDFA30461AF0C5FC03E0708C20F4C0606C
:105910007084002000906878012810D0022816D1E9
:10592000059906F114008847B4F90010491C21F0CC
:105930000101081A00EBD07040F34F0006E0059912
:1059400006F1140088472188081A00B20090E87810
:1059500038420AD0049906F11400884700E098E024
:10596000BDF80810081AADF808003046002143F2CF
:105970000C021AF035F80FFA80F93046002143F294
:105980000D021AF02DF80FFA80FA30461AF073F96A
:105990000190304619F07DF80146C9F341300128E5
:1059A0000ED129F4C04040450ADCB0F57A7F01DD14
:1059B000C0F57A70019A504390FBFBF00FFA80F922
:1059C000CAF3413001280DD12AF4C040404509DC1A
:1059D000B0F57A7F01DDC0F57A70484390FBFBF0AB
:1059E0000FFA80FAB18A1498F28A411A01EB090081
:1059F000159900B28A1A02EB0A01EA7809B2D207B5
:105A0000002A02D0BDF9082000E0009A10440FFAE5
:105A100080FA01D0009801E0BDF9080008440FFAAF
:105A200080F95AEA09001BD030461AF032FCB18ADC
:105A300001EB0A00B082318B01EB0A003083F18A5E
:105A400001EB0900F082718B01EB09007083304695
:105A50001AF01FFC01234A46514630461AF0C8FC92
:105A6000E87838420CD1049906F114008847179958
:105A70000844BDF80C100844BDF80810084406E0BE
:105A8000BDF80C1017980844BDF80810081AADF8B6
:105A90000800E87809AAC0F38001079809F0B6F871
:105AA0000646002E04D0DDE9090188427FF4D3AE1A
:105AB0000BB0BDE8F08F0000595001084F500108AD
:105AC000F54F01089D4F0108010006002DE9F04F38
:105AD00091B00E0005463FD02E83286808B117F01C
